{
	"data": {
		"bytecode": {
			"linkReferences": {},
			"object": "60e060405260006035553480156200001657600080fd5b5060405162000e8938038062000e8983398181016040528101906200003c9190620002c0565b8573ffffffffffffffffffffffffffffffffffffffff1660808173ffffffffffffffffffffffffffffffffffffffff1660601b815250508473ffffffffffffffffffffffffffffffffffffffff1660a08173ffffffffffffffffffffffffffffffffffffffff1660601b815250508373ffffffffffffffffffffffffffffffffffffffff1660c08173ffffffffffffffffffffffffffffffffffffffff1660601b81525050826034819055508160369080519060200190620001009291906200015c565b508060379080519060200190620001199291906200015c565b50603760008154811062000132576200013162000506565b5b9060005260206000200154426200014a9190620003f2565b603381905550505050505050620005d7565b8280548282559060005260206000209081019282156200019b579160200282015b828111156200019a5782518255916020019190600101906200017d565b5b509050620001aa9190620001ae565b5090565b5b80821115620001c9576000816000905550600101620001af565b5090565b6000620001e4620001de84620003c3565b6200039a565b905080838252602082019050828560208602820111156200020a576200020962000569565b5b60005b858110156200023e5781620002238882620002a9565b8452602084019350602083019250506001810190506200020d565b5050509392505050565b600081519050620002598162000589565b92915050565b600082601f83011262000277576200027662000564565b5b815162000289848260208601620001cd565b91505092915050565b600081519050620002a381620005a3565b92915050565b600081519050620002ba81620005bd565b92915050565b60008060008060008060c08789031215620002e057620002df62000573565b5b6000620002f089828a0162000292565b96505060206200030389828a0162000248565b95505060406200031689828a0162000248565b94505060606200032989828a01620002a9565b935050608087015167ffffffffffffffff8111156200034d576200034c6200056e565b5b6200035b89828a016200025f565b92505060a087015167ffffffffffffffff8111156200037f576200037e6200056e565b5b6200038d89828a016200025f565b9150509295509295509295565b6000620003a6620003b9565b9050620003b48282620004a1565b919050565b6000604051905090565b600067ffffffffffffffff821115620003e157620003e062000535565b5b602082029050602081019050919050565b6000620003ff8262000497565b91506200040c8362000497565b9250827fffffffffffffffffffffffffffffffffffffffffffffffffffffffffffffffff03821115620004445762000443620004d7565b5b828201905092915050565b60006200045c8262000477565b9050919050565b600062000470826200044f565b9050919050565b600073ffffffffffffffffffffffffffffffffffffffff82169050919050565b6000819050919050565b620004ac8262000578565b810181811067ffffffffffffffff82111715620004ce57620004cd62000535565b5b80604052505050565b7f4e487b7100000000000000000000000000000000000000000000000000000000600052601160045260246000fd5b7f4e487b7100000000000000000000000000000000000000000000000000000000600052603260045260246000fd5b7f4e487b7100000000000000000000000000000000000000000000000000000000600052604160045260246000fd5b600080fd5b600080fd5b600080fd5b600080fd5b6000601f19601f8301169050919050565b62000594816200044f565b8114620005a057600080fd5b50565b620005ae8162000463565b8114620005ba57600080fd5b50565b620005c88162000497565b8114620005d457600080fd5b50565b60805160601c60a05160601c60c05160601c61086b6200061e600039600061022d0152600081816101930152610255015260008181610157015261043a015261086b6000f3fe608060405234801561001057600080fd5b50600436106100885760003560e01c806386d1a69f1161005b57806386d1a69f146100f1578063b91d4001146100fb578063f6b4dfb414610119578063fc0c546a1461013757610088565b80630a56293d1461008d57806338af3eed1461009757806367e404ce146100b55780636ab28bc8146100d3575b600080fd5b610095610155565b005b61009f610229565b6040516100ac9190610513565b60405180910390f35b6100bd610251565b6040516100ca9190610513565b60405180910390f35b6100db610279565b6040516100e891906105e9565b60405180910390f35b6100f9610283565b005b610103610424565b60405161011091906105e9565b60405180910390f35b61012161042e565b60405161012e9190610513565b60405180910390f35b61013f610436565b60405161014c919061058e565b60405180910390f35b7f000000000000000000000000000000000000000000000000000000000000000073ffffffffffffffffffffffffffffffffffffffff166323b872dd7f0000000000000000000000000000000000000000000000000000000000000000306034546040518463ffffffff1660e01b81526004016101d49392919061052e565b602060405180830381600087803b1580156101ee57600080fd5b505af1158015610202573d6000803e3d6000fd5b505050506040513d601f19601f820116820180604052508101906102269190610473565b50565b60007f0000000000000000000000000000000000000000000000000000000000000000905090565b60007f0000000000000000000000000000000000000000000000000000000000000000905090565b6000603454905090565b61028b610424565b4210156102cd576040517f08c379a00000000000000000000000000000000000000000000000000000000081526004016102c4906105c9565b60405180910390fd5b60006036603554815481106102e5576102e461074c565b5b9060005260206000200154905060008111610335576040517f08c379a000000000000000000000000000000000000000000000000000000000815260040161032c906105a9565b60405180910390fd5b61033d610436565b73ffffffffffffffffffffffffffffffffffffffff1663a9059cbb610360610229565b836040518363ffffffff1660e01b815260040161037e929190610565565b602060405180830381600087803b15801561039857600080fd5b505af11580156103ac573d6000803e3d6000fd5b505050506040513d601f19601f820116820180604052508101906103d09190610473565b5060016035546103e09190610615565b6035819055506037603554815481106103fc576103fb61074c565b5b90600052602060002001546033819055508060345461041b919061066b565b60348190555050565b6000603354905090565b600030905090565b60007f0000000000000000000000000000000000000000000000000000000000000000905090565b60008151905061046d8161081e565b92915050565b6000602082840312156104895761048861077b565b5b60006104978482850161045e565b91505092915050565b6104a98161069f565b82525050565b6104b8816106e7565b82525050565b60006104cb602883610604565b91506104d682610780565b604082019050919050565b60006104ee603783610604565b91506104f9826107cf565b604082019050919050565b61050d816106dd565b82525050565b600060208201905061052860008301846104a0565b92915050565b600060608201905061054360008301866104a0565b61055060208301856104a0565b61055d6040830184610504565b949350505050565b600060408201905061057a60008301856104a0565b6105876020830184610504565b9392505050565b60006020820190506105a360008301846104af565b92915050565b600060208201905081810360008301526105c2816104be565b9050919050565b600060208201905081810360008301526105e2816104e1565b9050919050565b60006020820190506105fe6000830184610504565b92915050565b600082825260208201905092915050565b6000610620826106dd565b915061062b836106dd565b9250827fffffffffffffffffffffffffffffffffffffffffffffffffffffffffffffffff038211156106605761065f61071d565b5b828201905092915050565b6000610676826106dd565b9150610681836106dd565b9250828210156106945761069361071d565b5b828203905092915050565b60006106aa826106bd565b9050919050565b60008115159050919050565b600073ffffffffffffffffffffffffffffffffffffffff82169050919050565b6000819050919050565b60006106f2826106f9565b9050919050565b60006107048261070b565b9050919050565b6000610716826106bd565b9050919050565b7f4e487b7100000000000000000000000000000000000000000000000000000000600052601160045260246000fd5b7f4e487b7100000000000000000000000000000000000000000000000000000000600052603260045260246000fd5b600080fd5b7f5363686564756c6564546f6b656e4c6f636b3a206e6f20746f6b656e7320746f60008201527f2072656c65617365000000000000000000000000000000000000000000000000602082015250565b7f5363686564756c6564546f6b656e4c6f636b3a2063757272656e742074696d6560008201527f206973206265666f72652072656c656173652074696d65000000000000000000602082015250565b610827816106b1565b811461083257600080fd5b5056fea2646970667358221220d5066cde2cd80d0b3580c225d6b45db0550f4a18d2ddb3b509d7c382a36905e264736f6c63430008070033",
			"opcodes": "PUSH1 0xE0 PUSH1 0x40 MSTORE PUSH1 0x0 PUSH1 0x35 SSTORE CALLVALUE DUP1 ISZERO PUSH3 0x16 JUMPI PUSH1 0x0 DUP1 REVERT JUMPDEST POP PUSH1 0x40 MLOAD PUSH3 0xE89 CODESIZE SUB DUP1 PUSH3 0xE89 DUP4 CODECOPY DUP2 DUP2 ADD PUSH1 0x40 MSTORE DUP2 ADD SWAP1 PUSH3 0x3C SWAP2 SWAP1 PUSH3 0x2C0 JUMP JUMPDEST DUP6 PUSH20 0xFFFFFFFFFFFFFFFFFFFFFFFFFFFFFFFFFFFFFFFF AND PUSH1 0x80 DUP2 PUSH20 0xFFFFFFFFFFFFFFFFFFFFFFFFFFFFFFFFFFFFFFFF AND PUSH1 0x60 SHL DUP2 MSTORE POP POP DUP5 PUSH20 0xFFFFFFFFFFFFFFFFFFFFFFFFFFFFFFFFFFFFFFFF AND PUSH1 0xA0 DUP2 PUSH20 0xFFFFFFFFFFFFFFFFFFFFFFFFFFFFFFFFFFFFFFFF AND PUSH1 0x60 SHL DUP2 MSTORE POP POP DUP4 PUSH20 0xFFFFFFFFFFFFFFFFFFFFFFFFFFFFFFFFFFFFFFFF AND PUSH1 0xC0 DUP2 PUSH20 0xFFFFFFFFFFFFFFFFFFFFFFFFFFFFFFFFFFFFFFFF AND PUSH1 0x60 SHL DUP2 MSTORE POP POP DUP3 PUSH1 0x34 DUP2 SWAP1 SSTORE POP DUP2 PUSH1 0x36 SWAP1 DUP1 MLOAD SWAP1 PUSH1 0x20 ADD SWAP1 PUSH3 0x100 SWAP3 SWAP2 SWAP1 PUSH3 0x15C JUMP JUMPDEST POP DUP1 PUSH1 0x37 SWAP1 DUP1 MLOAD SWAP1 PUSH1 0x20 ADD SWAP1 PUSH3 0x119 SWAP3 SWAP2 SWAP1 PUSH3 0x15C JUMP JUMPDEST POP PUSH1 0x37 PUSH1 0x0 DUP2 SLOAD DUP2 LT PUSH3 0x132 JUMPI PUSH3 0x131 PUSH3 0x506 JUMP JUMPDEST JUMPDEST SWAP1 PUSH1 0x0 MSTORE PUSH1 0x20 PUSH1 0x0 KECCAK256 ADD SLOAD TIMESTAMP PUSH3 0x14A SWAP2 SWAP1 PUSH3 0x3F2 JUMP JUMPDEST PUSH1 0x33 DUP2 SWAP1 SSTORE POP POP POP POP POP POP POP PUSH3 0x5D7 JUMP JUMPDEST DUP3 DUP1 SLOAD DUP3 DUP3 SSTORE SWAP1 PUSH1 0x0 MSTORE PUSH1 0x20 PUSH1 0x0 KECCAK256 SWAP1 DUP2 ADD SWAP3 DUP3 ISZERO PUSH3 0x19B JUMPI SWAP2 PUSH1 0x20 MUL DUP3 ADD JUMPDEST DUP3 DUP2 GT ISZERO PUSH3 0x19A JUMPI DUP3 MLOAD DUP3 SSTORE SWAP2 PUSH1 0x20 ADD SWAP2 SWAP1 PUSH1 0x1 ADD SWAP1 PUSH3 0x17D JUMP JUMPDEST JUMPDEST POP SWAP1 POP PUSH3 0x1AA SWAP2 SWAP1 PUSH3 0x1AE JUMP JUMPDEST POP SWAP1 JUMP JUMPDEST JUMPDEST DUP1 DUP3 GT ISZERO PUSH3 0x1C9 JUMPI PUSH1 0x0 DUP2 PUSH1 0x0 SWAP1 SSTORE POP PUSH1 0x1 ADD PUSH3 0x1AF JUMP JUMPDEST POP SWAP1 JUMP JUMPDEST PUSH1 0x0 PUSH3 0x1E4 PUSH3 0x1DE DUP5 PUSH3 0x3C3 JUMP JUMPDEST PUSH3 0x39A JUMP JUMPDEST SWAP1 POP DUP1 DUP4 DUP3 MSTORE PUSH1 0x20 DUP3 ADD SWAP1 POP DUP3 DUP6 PUSH1 0x20 DUP7 MUL DUP3 ADD GT ISZERO PUSH3 0x20A JUMPI PUSH3 0x209 PUSH3 0x569 JUMP JUMPDEST JUMPDEST PUSH1 0x0 JUMPDEST DUP6 DUP2 LT ISZERO PUSH3 0x23E JUMPI DUP2 PUSH3 0x223 DUP9 DUP3 PUSH3 0x2A9 JUMP JUMPDEST DUP5 MSTORE PUSH1 0x20 DUP5 ADD SWAP4 POP PUSH1 0x20 DUP4 ADD SWAP3 POP POP PUSH1 0x1 DUP2 ADD SWAP1 POP PUSH3 0x20D JUMP JUMPDEST POP POP POP SWAP4 SWAP3 POP POP POP JUMP JUMPDEST PUSH1 0x0 DUP2 MLOAD SWAP1 POP PUSH3 0x259 DUP2 PUSH3 0x589 JUMP JUMPDEST SWAP3 SWAP2 POP POP JUMP JUMPDEST PUSH1 0x0 DUP3 PUSH1 0x1F DUP4 ADD SLT PUSH3 0x277 JUMPI PUSH3 0x276 PUSH3 0x564 JUMP JUMPDEST JUMPDEST DUP2 MLOAD PUSH3 0x289 DUP5 DUP3 PUSH1 0x20 DUP7 ADD PUSH3 0x1CD JUMP JUMPDEST SWAP2 POP POP SWAP3 SWAP2 POP POP JUMP JUMPDEST PUSH1 0x0 DUP2 MLOAD SWAP1 POP PUSH3 0x2A3 DUP2 PUSH3 0x5A3 JUMP JUMPDEST SWAP3 SWAP2 POP POP JUMP JUMPDEST PUSH1 0x0 DUP2 MLOAD SWAP1 POP PUSH3 0x2BA DUP2 PUSH3 0x5BD JUMP JUMPDEST SWAP3 SWAP2 POP POP JUMP JUMPDEST PUSH1 0x0 DUP1 PUSH1 0x0 DUP1 PUSH1 0x0 DUP1 PUSH1 0xC0 DUP8 DUP10 SUB SLT ISZERO PUSH3 0x2E0 JUMPI PUSH3 0x2DF PUSH3 0x573 JUMP JUMPDEST JUMPDEST PUSH1 0x0 PUSH3 0x2F0 DUP10 DUP3 DUP11 ADD PUSH3 0x292 JUMP JUMPDEST SWAP7 POP POP PUSH1 0x20 PUSH3 0x303 DUP10 DUP3 DUP11 ADD PUSH3 0x248 JUMP JUMPDEST SWAP6 POP POP PUSH1 0x40 PUSH3 0x316 DUP10 DUP3 DUP11 ADD PUSH3 0x248 JUMP JUMPDEST SWAP5 POP POP PUSH1 0x60 PUSH3 0x329 DUP10 DUP3 DUP11 ADD PUSH3 0x2A9 JUMP JUMPDEST SWAP4 POP POP PUSH1 0x80 DUP8 ADD MLOAD PUSH8 0xFFFFFFFFFFFFFFFF DUP2 GT ISZERO PUSH3 0x34D JUMPI PUSH3 0x34C PUSH3 0x56E JUMP JUMPDEST JUMPDEST PUSH3 0x35B DUP10 DUP3 DUP11 ADD PUSH3 0x25F JUMP JUMPDEST SWAP3 POP POP PUSH1 0xA0 DUP8 ADD MLOAD PUSH8 0xFFFFFFFFFFFFFFFF DUP2 GT ISZERO PUSH3 0x37F JUMPI PUSH3 0x37E PUSH3 0x56E JUMP JUMPDEST JUMPDEST PUSH3 0x38D DUP10 DUP3 DUP11 ADD PUSH3 0x25F JUMP JUMPDEST SWAP2 POP POP SWAP3 SWAP6 POP SWAP3 SWAP6 POP SWAP3 SWAP6 JUMP JUMPDEST PUSH1 0x0 PUSH3 0x3A6 PUSH3 0x3B9 JUMP JUMPDEST SWAP1 POP PUSH3 0x3B4 DUP3 DUP3 PUSH3 0x4A1 JUMP JUMPDEST SWAP2 SWAP1 POP JUMP JUMPDEST PUSH1 0x0 PUSH1 0x40 MLOAD SWAP1 POP SWAP1 JUMP JUMPDEST PUSH1 0x0 PUSH8 0xFFFFFFFFFFFFFFFF DUP3 GT ISZERO PUSH3 0x3E1 JUMPI PUSH3 0x3E0 PUSH3 0x535 JUMP JUMPDEST JUMPDEST PUSH1 0x20 DUP3 MUL SWAP1 POP PUSH1 0x20 DUP2 ADD SWAP1 POP SWAP2 SWAP1 POP JUMP JUMPDEST PUSH1 0x0 PUSH3 0x3FF DUP3 PUSH3 0x497 JUMP JUMPDEST SWAP2 POP PUSH3 0x40C DUP4 PUSH3 0x497 JUMP JUMPDEST SWAP3 POP DUP3 PUSH32 0xFFFFFFFFFFFFFFFFFFFFFFFFFFFFFFFFFFFFFFFFFFFFFFFFFFFFFFFFFFFFFFFF SUB DUP3 GT ISZERO PUSH3 0x444 JUMPI PUSH3 0x443 PUSH3 0x4D7 JUMP JUMPDEST JUMPDEST DUP3 DUP3 ADD SWAP1 POP SWAP3 SWAP2 POP POP JUMP JUMPDEST PUSH1 0x0 PUSH3 0x45C DUP3 PUSH3 0x477 JUMP JUMPDEST SWAP1 POP SWAP2 SWAP1 POP JUMP JUMPDEST PUSH1 0x0 PUSH3 0x470 DUP3 PUSH3 0x44F JUMP JUMPDEST SWAP1 POP SWAP2 SWAP1 POP JUMP JUMPDEST PUSH1 0x0 PUSH20 0xFFFFFFFFFFFFFFFFFFFFFFFFFFFFFFFFFFFFFFFF DUP3 AND SWAP1 POP SWAP2 SWAP1 POP JUMP JUMPDEST PUSH1 0x0 DUP2 SWAP1 POP SWAP2 SWAP1 POP JUMP JUMPDEST PUSH3 0x4AC DUP3 PUSH3 0x578 JUMP JUMPDEST DUP2 ADD DUP2 DUP2 LT PUSH8 0xFFFFFFFFFFFFFFFF DUP3 GT OR ISZERO PUSH3 0x4CE JUMPI PUSH3 0x4CD PUSH3 0x535 JUMP JUMPDEST JUMPDEST DUP1 PUSH1 0x40 MSTORE POP POP POP JUMP JUMPDEST PUSH32 0x4E487B7100000000000000000000000000000000000000000000000000000000 PUSH1 0x0 MSTORE PUSH1 0x11 PUSH1 0x4 MSTORE PUSH1 0x24 PUSH1 0x0 REVERT JUMPDEST PUSH32 0x4E487B7100000000000000000000000000000000000000000000000000000000 PUSH1 0x0 MSTORE PUSH1 0x32 PUSH1 0x4 MSTORE PUSH1 0x24 PUSH1 0x0 REVERT JUMPDEST PUSH32 0x4E487B7100000000000000000000000000000000000000000000000000000000 PUSH1 0x0 MSTORE PUSH1 0x41 PUSH1 0x4 MSTORE PUSH1 0x24 PUSH1 0x0 REVERT JUMPDEST PUSH1 0x0 DUP1 REVERT JUMPDEST PUSH1 0x0 DUP1 REVERT JUMPDEST PUSH1 0x0 DUP1 REVERT JUMPDEST PUSH1 0x0 DUP1 REVERT JUMPDEST PUSH1 0x0 PUSH1 0x1F NOT PUSH1 0x1F DUP4 ADD AND SWAP1 POP SWAP2 SWAP1 POP JUMP JUMPDEST PUSH3 0x594 DUP2 PUSH3 0x44F JUMP JUMPDEST DUP2 EQ PUSH3 0x5A0 JUMPI PUSH1 0x0 DUP1 REVERT JUMPDEST POP JUMP JUMPDEST PUSH3 0x5AE DUP2 PUSH3 0x463 JUMP JUMPDEST DUP2 EQ PUSH3 0x5BA JUMPI PUSH1 0x0 DUP1 REVERT JUMPDEST POP JUMP JUMPDEST PUSH3 0x5C8 DUP2 PUSH3 0x497 JUMP JUMPDEST DUP2 EQ PUSH3 0x5D4 JUMPI PUSH1 0x0 DUP1 REVERT JUMPDEST POP JUMP JUMPDEST PUSH1 0x80 MLOAD PUSH1 0x60 SHR PUSH1 0xA0 MLOAD PUSH1 0x60 SHR PUSH1 0xC0 MLOAD PUSH1 0x60 SHR PUSH2 0x86B PUSH3 0x61E PUSH1 0x0 CODECOPY PUSH1 0x0 PUSH2 0x22D ADD MSTORE PUSH1 0x0 DUP2 DUP2 PUSH2 0x193 ADD MSTORE PUSH2 0x255 ADD MSTORE PUSH1 0x0 DUP2 DUP2 PUSH2 0x157 ADD MSTORE PUSH2 0x43A ADD MSTORE PUSH2 0x86B PUSH1 0x0 RETURN INVALID PUSH1 0x80 PUSH1 0x40 MSTORE CALLVALUE DUP1 ISZERO PUSH2 0x10 JUMPI PUSH1 0x0 DUP1 REVERT JUMPDEST POP PUSH1 0x4 CALLDATASIZE LT PUSH2 0x88 JUMPI PUSH1 0x0 CALLDATALOAD PUSH1 0xE0 SHR DUP1 PUSH4 0x86D1A69F GT PUSH2 0x5B JUMPI DUP1 PUSH4 0x86D1A69F EQ PUSH2 0xF1 JUMPI DUP1 PUSH4 0xB91D4001 EQ PUSH2 0xFB JUMPI DUP1 PUSH4 0xF6B4DFB4 EQ PUSH2 0x119 JUMPI DUP1 PUSH4 0xFC0C546A EQ PUSH2 0x137 JUMPI PUSH2 0x88 JUMP JUMPDEST DUP1 PUSH4 0xA56293D EQ PUSH2 0x8D JUMPI DUP1 PUSH4 0x38AF3EED EQ PUSH2 0x97 JUMPI DUP1 PUSH4 0x67E404CE EQ PUSH2 0xB5 JUMPI DUP1 PUSH4 0x6AB28BC8 EQ PUSH2 0xD3 JUMPI JUMPDEST PUSH1 0x0 DUP1 REVERT JUMPDEST PUSH2 0x95 PUSH2 0x155 JUMP JUMPDEST STOP JUMPDEST PUSH2 0x9F PUSH2 0x229 JUMP JUMPDEST PUSH1 0x40 MLOAD PUSH2 0xAC SWAP2 SWAP1 PUSH2 0x513 JUMP JUMPDEST PUSH1 0x40 MLOAD DUP1 SWAP2 SUB SWAP1 RETURN JUMPDEST PUSH2 0xBD PUSH2 0x251 JUMP JUMPDEST PUSH1 0x40 MLOAD PUSH2 0xCA SWAP2 SWAP1 PUSH2 0x513 JUMP JUMPDEST PUSH1 0x40 MLOAD DUP1 SWAP2 SUB SWAP1 RETURN JUMPDEST PUSH2 0xDB PUSH2 0x279 JUMP JUMPDEST PUSH1 0x40 MLOAD PUSH2 0xE8 SWAP2 SWAP1 PUSH2 0x5E9 JUMP JUMPDEST PUSH1 0x40 MLOAD DUP1 SWAP2 SUB SWAP1 RETURN JUMPDEST PUSH2 0xF9 PUSH2 0x283 JUMP JUMPDEST STOP JUMPDEST PUSH2 0x103 PUSH2 0x424 JUMP JUMPDEST PUSH1 0x40 MLOAD PUSH2 0x110 SWAP2 SWAP1 PUSH2 0x5E9 JUMP JUMPDEST PUSH1 0x40 MLOAD DUP1 SWAP2 SUB SWAP1 RETURN JUMPDEST PUSH2 0x121 PUSH2 0x42E JUMP JUMPDEST PUSH1 0x40 MLOAD PUSH2 0x12E SWAP2 SWAP1 PUSH2 0x513 JUMP JUMPDEST PUSH1 0x40 MLOAD DUP1 SWAP2 SUB SWAP1 RETURN JUMPDEST PUSH2 0x13F PUSH2 0x436 JUMP JUMPDEST PUSH1 0x40 MLOAD PUSH2 0x14C SWAP2 SWAP1 PUSH2 0x58E JUMP JUMPDEST PUSH1 0x40 MLOAD DUP1 SWAP2 SUB SWAP1 RETURN JUMPDEST PUSH32 0x0 PUSH20 0xFFFFFFFFFFFFFFFFFFFFFFFFFFFFFFFFFFFFFFFF AND PUSH4 0x23B872DD PUSH32 0x0 ADDRESS PUSH1 0x34 SLOAD PUSH1 0x40 MLOAD DUP5 PUSH4 0xFFFFFFFF AND PUSH1 0xE0 SHL DUP2 MSTORE PUSH1 0x4 ADD PUSH2 0x1D4 SWAP4 SWAP3 SWAP2 SWAP1 PUSH2 0x52E JUMP JUMPDEST PUSH1 0x20 PUSH1 0x40 MLOAD DUP1 DUP4 SUB DUP2 PUSH1 0x0 DUP8 DUP1 EXTCODESIZE ISZERO DUP1 ISZERO PUSH2 0x1EE JUMPI PUSH1 0x0 DUP1 REVERT JUMPDEST POP GAS CALL ISZERO DUP1 ISZERO PUSH2 0x202 JUMPI RETURNDATASIZE PUSH1 0x0 DUP1 RETURNDATACOPY RETURNDATASIZE PUSH1 0x0 REVERT JUMPDEST POP POP POP POP PUSH1 0x40 MLOAD RETURNDATASIZE PUSH1 0x1F NOT PUSH1 0x1F DUP3 ADD AND DUP3 ADD DUP1 PUSH1 0x40 MSTORE POP DUP2 ADD SWAP1 PUSH2 0x226 SWAP2 SWAP1 PUSH2 0x473 JUMP JUMPDEST POP JUMP JUMPDEST PUSH1 0x0 PUSH32 0x0 SWAP1 POP SWAP1 JUMP JUMPDEST PUSH1 0x0 PUSH32 0x0 SWAP1 POP SWAP1 JUMP JUMPDEST PUSH1 0x0 PUSH1 0x34 SLOAD SWAP1 POP SWAP1 JUMP JUMPDEST PUSH2 0x28B PUSH2 0x424 JUMP JUMPDEST TIMESTAMP LT ISZERO PUSH2 0x2CD JUMPI PUSH1 0x40 MLOAD PUSH32 0x8C379A000000000000000000000000000000000000000000000000000000000 DUP2 MSTORE PUSH1 0x4 ADD PUSH2 0x2C4 SWAP1 PUSH2 0x5C9 JUMP JUMPDEST PUSH1 0x40 MLOAD DUP1 SWAP2 SUB SWAP1 REVERT JUMPDEST PUSH1 0x0 PUSH1 0x36 PUSH1 0x35 SLOAD DUP2 SLOAD DUP2 LT PUSH2 0x2E5 JUMPI PUSH2 0x2E4 PUSH2 0x74C JUMP JUMPDEST JUMPDEST SWAP1 PUSH1 0x0 MSTORE PUSH1 0x20 PUSH1 0x0 KECCAK256 ADD SLOAD SWAP1 POP PUSH1 0x0 DUP2 GT PUSH2 0x335 JUMPI PUSH1 0x40 MLOAD PUSH32 0x8C379A000000000000000000000000000000000000000000000000000000000 DUP2 MSTORE PUSH1 0x4 ADD PUSH2 0x32C SWAP1 PUSH2 0x5A9 JUMP JUMPDEST PUSH1 0x40 MLOAD DUP1 SWAP2 SUB SWAP1 REVERT JUMPDEST PUSH2 0x33D PUSH2 0x436 JUMP JUMPDEST PUSH20 0xFFFFFFFFFFFFFFFFFFFFFFFFFFFFFFFFFFFFFFFF AND PUSH4 0xA9059CBB PUSH2 0x360 PUSH2 0x229 JUMP JUMPDEST DUP4 PUSH1 0x40 MLOAD DUP4 PUSH4 0xFFFFFFFF AND PUSH1 0xE0 SHL DUP2 MSTORE PUSH1 0x4 ADD PUSH2 0x37E SWAP3 SWAP2 SWAP1 PUSH2 0x565 JUMP JUMPDEST PUSH1 0x20 PUSH1 0x40 MLOAD DUP1 DUP4 SUB DUP2 PUSH1 0x0 DUP8 DUP1 EXTCODESIZE ISZERO DUP1 ISZERO PUSH2 0x398 JUMPI PUSH1 0x0 DUP1 REVERT JUMPDEST POP GAS CALL ISZERO DUP1 ISZERO PUSH2 0x3AC JUMPI RETURNDATASIZE PUSH1 0x0 DUP1 RETURNDATACOPY RETURNDATASIZE PUSH1 0x0 REVERT JUMPDEST POP POP POP POP PUSH1 0x40 MLOAD RETURNDATASIZE PUSH1 0x1F NOT PUSH1 0x1F DUP3 ADD AND DUP3 ADD DUP1 PUSH1 0x40 MSTORE POP DUP2 ADD SWAP1 PUSH2 0x3D0 SWAP2 SWAP1 PUSH2 0x473 JUMP JUMPDEST POP PUSH1 0x1 PUSH1 0x35 SLOAD PUSH2 0x3E0 SWAP2 SWAP1 PUSH2 0x615 JUMP JUMPDEST PUSH1 0x35 DUP2 SWAP1 SSTORE POP PUSH1 0x37 PUSH1 0x35 SLOAD DUP2 SLOAD DUP2 LT PUSH2 0x3FC JUMPI PUSH2 0x3FB PUSH2 0x74C JUMP JUMPDEST JUMPDEST SWAP1 PUSH1 0x0 MSTORE PUSH1 0x20 PUSH1 0x0 KECCAK256 ADD SLOAD PUSH1 0x33 DUP2 SWAP1 SSTORE POP DUP1 PUSH1 0x34 SLOAD PUSH2 0x41B SWAP2 SWAP1 PUSH2 0x66B JUMP JUMPDEST PUSH1 0x34 DUP2 SWAP1 SSTORE POP POP JUMP JUMPDEST PUSH1 0x0 PUSH1 0x33 SLOAD SWAP1 POP SWAP1 JUMP JUMPDEST PUSH1 0x0 ADDRESS SWAP1 POP SWAP1 JUMP JUMPDEST PUSH1 0x0 PUSH32 0x0 SWAP1 POP SWAP1 JUMP JUMPDEST PUSH1 0x0 DUP2 MLOAD SWAP1 POP PUSH2 0x46D DUP2 PUSH2 0x81E JUMP JUMPDEST SWAP3 SWAP2 POP POP JUMP JUMPDEST PUSH1 0x0 PUSH1 0x20 DUP3 DUP5 SUB SLT ISZERO PUSH2 0x489 JUMPI PUSH2 0x488 PUSH2 0x77B JUMP JUMPDEST JUMPDEST PUSH1 0x0 PUSH2 0x497 DUP5 DUP3 DUP6 ADD PUSH2 0x45E JUMP JUMPDEST SWAP2 POP POP SWAP3 SWAP2 POP POP JUMP JUMPDEST PUSH2 0x4A9 DUP2 PUSH2 0x69F JUMP JUMPDEST DUP3 MSTORE POP POP JUMP JUMPDEST PUSH2 0x4B8 DUP2 PUSH2 0x6E7 JUMP JUMPDEST DUP3 MSTORE POP POP JUMP JUMPDEST PUSH1 0x0 PUSH2 0x4CB PUSH1 0x28 DUP4 PUSH2 0x604 JUMP JUMPDEST SWAP2 POP PUSH2 0x4D6 DUP3 PUSH2 0x780 JUMP JUMPDEST PUSH1 0x40 DUP3 ADD SWAP1 POP SWAP2 SWAP1 POP JUMP JUMPDEST PUSH1 0x0 PUSH2 0x4EE PUSH1 0x37 DUP4 PUSH2 0x604 JUMP JUMPDEST SWAP2 POP PUSH2 0x4F9 DUP3 PUSH2 0x7CF JUMP JUMPDEST PUSH1 0x40 DUP3 ADD SWAP1 POP SWAP2 SWAP1 POP JUMP JUMPDEST PUSH2 0x50D DUP2 PUSH2 0x6DD JUMP JUMPDEST DUP3 MSTORE POP POP JUMP JUMPDEST PUSH1 0x0 PUSH1 0x20 DUP3 ADD SWAP1 POP PUSH2 0x528 PUSH1 0x0 DUP4 ADD DUP5 PUSH2 0x4A0 JUMP JUMPDEST SWAP3 SWAP2 POP POP JUMP JUMPDEST PUSH1 0x0 PUSH1 0x60 DUP3 ADD SWAP1 POP PUSH2 0x543 PUSH1 0x0 DUP4 ADD DUP7 PUSH2 0x4A0 JUMP JUMPDEST PUSH2 0x550 PUSH1 0x20 DUP4 ADD DUP6 PUSH2 0x4A0 JUMP JUMPDEST PUSH2 0x55D PUSH1 0x40 DUP4 ADD DUP5 PUSH2 0x504 JUMP JUMPDEST SWAP5 SWAP4 POP POP POP POP JUMP JUMPDEST PUSH1 0x0 PUSH1 0x40 DUP3 ADD SWAP1 POP PUSH2 0x57A PUSH1 0x0 DUP4 ADD DUP6 PUSH2 0x4A0 JUMP JUMPDEST PUSH2 0x587 PUSH1 0x20 DUP4 ADD DUP5 PUSH2 0x504 JUMP JUMPDEST SWAP4 SWAP3 POP POP POP JUMP JUMPDEST PUSH1 0x0 PUSH1 0x20 DUP3 ADD SWAP1 POP PUSH2 0x5A3 PUSH1 0x0 DUP4 ADD DUP5 PUSH2 0x4AF JUMP JUMPDEST SWAP3 SWAP2 POP POP JUMP JUMPDEST PUSH1 0x0 PUSH1 0x20 DUP3 ADD SWAP1 POP DUP2 DUP2 SUB PUSH1 0x0 DUP4 ADD MSTORE PUSH2 0x5C2 DUP2 PUSH2 0x4BE JUMP JUMPDEST SWAP1 POP SWAP2 SWAP1 POP JUMP JUMPDEST PUSH1 0x0 PUSH1 0x20 DUP3 ADD SWAP1 POP DUP2 DUP2 SUB PUSH1 0x0 DUP4 ADD MSTORE PUSH2 0x5E2 DUP2 PUSH2 0x4E1 JUMP JUMPDEST SWAP1 POP SWAP2 SWAP1 POP JUMP JUMPDEST PUSH1 0x0 PUSH1 0x20 DUP3 ADD SWAP1 POP PUSH2 0x5FE PUSH1 0x0 DUP4 ADD DUP5 PUSH2 0x504 JUMP JUMPDEST SWAP3 SWAP2 POP POP JUMP JUMPDEST PUSH1 0x0 DUP3 DUP3 MSTORE PUSH1 0x20 DUP3 ADD SWAP1 POP SWAP3 SWAP2 POP POP JUMP JUMPDEST PUSH1 0x0 PUSH2 0x620 DUP3 PUSH2 0x6DD JUMP JUMPDEST SWAP2 POP PUSH2 0x62B DUP4 PUSH2 0x6DD JUMP JUMPDEST SWAP3 POP DUP3 PUSH32 0xFFFFFFFFFFFFFFFFFFFFFFFFFFFFFFFFFFFFFFFFFFFFFFFFFFFFFFFFFFFFFFFF SUB DUP3 GT ISZERO PUSH2 0x660 JUMPI PUSH2 0x65F PUSH2 0x71D JUMP JUMPDEST JUMPDEST DUP3 DUP3 ADD SWAP1 POP SWAP3 SWAP2 POP POP JUMP JUMPDEST PUSH1 0x0 PUSH2 0x676 DUP3 PUSH2 0x6DD JUMP JUMPDEST SWAP2 POP PUSH2 0x681 DUP4 PUSH2 0x6DD JUMP JUMPDEST SWAP3 POP DUP3 DUP3 LT ISZERO PUSH2 0x694 JUMPI PUSH2 0x693 PUSH2 0x71D JUMP JUMPDEST JUMPDEST DUP3 DUP3 SUB SWAP1 POP SWAP3 SWAP2 POP POP JUMP JUMPDEST PUSH1 0x0 PUSH2 0x6AA DUP3 PUSH2 0x6BD JUMP JUMPDEST SWAP1 POP SWAP2 SWAP1 POP JUMP JUMPDEST PUSH1 0x0 DUP2 ISZERO ISZERO SWAP1 POP SWAP2 SWAP1 POP JUMP JUMPDEST PUSH1 0x0 PUSH20 0xFFFFFFFFFFFFFFFFFFFFFFFFFFFFFFFFFFFFFFFF DUP3 AND SWAP1 POP SWAP2 SWAP1 POP JUMP JUMPDEST PUSH1 0x0 DUP2 SWAP1 POP SWAP2 SWAP1 POP JUMP JUMPDEST PUSH1 0x0 PUSH2 0x6F2 DUP3 PUSH2 0x6F9 JUMP JUMPDEST SWAP1 POP SWAP2 SWAP1 POP JUMP JUMPDEST PUSH1 0x0 PUSH2 0x704 DUP3 PUSH2 0x70B JUMP JUMPDEST SWAP1 POP SWAP2 SWAP1 POP JUMP JUMPDEST PUSH1 0x0 PUSH2 0x716 DUP3 PUSH2 0x6BD JUMP JUMPDEST SWAP1 POP SWAP2 SWAP1 POP JUMP JUMPDEST PUSH32 0x4E487B7100000000000000000000000000000000000000000000000000000000 PUSH1 0x0 MSTORE PUSH1 0x11 PUSH1 0x4 MSTORE PUSH1 0x24 PUSH1 0x0 REVERT JUMPDEST PUSH32 0x4E487B7100000000000000000000000000000000000000000000000000000000 PUSH1 0x0 MSTORE PUSH1 0x32 PUSH1 0x4 MSTORE PUSH1 0x24 PUSH1 0x0 REVERT JUMPDEST PUSH1 0x0 DUP1 REVERT JUMPDEST PUSH32 0x5363686564756C6564546F6B656E4C6F636B3A206E6F20746F6B656E7320746F PUSH1 0x0 DUP3 ADD MSTORE PUSH32 0x2072656C65617365000000000000000000000000000000000000000000000000 PUSH1 0x20 DUP3 ADD MSTORE POP JUMP JUMPDEST PUSH32 0x5363686564756C6564546F6B656E4C6F636B3A2063757272656E742074696D65 PUSH1 0x0 DUP3 ADD MSTORE PUSH32 0x206973206265666F72652072656C656173652074696D65000000000000000000 PUSH1 0x20 DUP3 ADD MSTORE POP JUMP JUMPDEST PUSH2 0x827 DUP2 PUSH2 0x6B1 JUMP JUMPDEST DUP2 EQ PUSH2 0x832 JUMPI PUSH1 0x0 DUP1 REVERT JUMPDEST POP JUMP INVALID LOG2 PUSH5 0x6970667358 0x22 SLT KECCAK256 0xD5 MOD PUSH13 0xDE2CD80D0B3580C225D6B45DB0 SSTORE 0xF 0x4A XOR 0xD2 0xDD 0xB3 0xB5 MULMOD 0xD7 0xC3 DUP3 LOG3 PUSH10 0x5E264736F6C63430008 SMOD STOP CALLER "
		},
		"gasEstimates": {
			"creation": {
				"codeDepositCost": "431000",
				"executionCost": "infinite",
				"totalCost": "infinite"
			},
			"external": {
				"beneficiary()": "infinite",
				"contractAddress()": "429",
				"lockTokens()": "infinite",
				"lockedAmount()": "2504",
				"release()": "infinite",
				"releaseTime()": "2459",
				"sender()": "infinite",
				"token()": "infinite"
			}
		},
		"methodIdentifiers": {
			"beneficiary()": "38af3eed",
			"contractAddress()": "f6b4dfb4",
			"lockTokens()": "0a56293d",
			"lockedAmount()": "6ab28bc8",
			"release()": "86d1a69f",
			"releaseTime()": "b91d4001",
			"sender()": "67e404ce",
			"token()": "fc0c546a"
		}
	},
	"abi": [
		{
			"inputs": [
				{
					"internalType": "contract IBEP20",
					"name": "token_",
					"type": "address"
				},
				{
					"internalType": "address",
					"name": "sender_",
					"type": "address"
				},
				{
					"internalType": "address",
					"name": "beneficiary_",
					"type": "address"
				},
				{
					"internalType": "uint256",
					"name": "amount_",
					"type": "uint256"
				},
				{
					"internalType": "uint256[]",
					"name": "amountsList_",
					"type": "uint256[]"
				},
				{
					"internalType": "uint256[]",
					"name": "lockTimes_",
					"type": "uint256[]"
				}
			],
			"stateMutability": "nonpayable",
			"type": "constructor"
		},
		{
			"inputs": [],
			"name": "beneficiary",
			"outputs": [
				{
					"internalType": "address",
					"name": "",
					"type": "address"
				}
			],
			"stateMutability": "view",
			"type": "function"
		},
		{
			"inputs": [],
			"name": "contractAddress",
			"outputs": [
				{
					"internalType": "address",
					"name": "",
					"type": "address"
				}
			],
			"stateMutability": "view",
			"type": "function"
		},
		{
			"inputs": [],
			"name": "lockTokens",
			"outputs": [],
			"stateMutability": "nonpayable",
			"type": "function"
		},
		{
			"inputs": [],
			"name": "lockedAmount",
			"outputs": [
				{
					"internalType": "uint256",
					"name": "",
					"type": "uint256"
				}
			],
			"stateMutability": "view",
			"type": "function"
		},
		{
			"inputs": [],
			"name": "release",
			"outputs": [],
			"stateMutability": "nonpayable",
			"type": "function"
		},
		{
			"inputs": [],
			"name": "releaseTime",
			"outputs": [
				{
					"internalType": "uint256",
					"name": "",
					"type": "uint256"
				}
			],
			"stateMutability": "view",
			"type": "function"
		},
		{
			"inputs": [],
			"name": "sender",
			"outputs": [
				{
					"internalType": "address",
					"name": "",
					"type": "address"
				}
			],
			"stateMutability": "view",
			"type": "function"
		},
		{
			"inputs": [],
			"name": "token",
			"outputs": [
				{
					"internalType": "contract IBEP20",
					"name": "",
					"type": "address"
				}
			],
			"stateMutability": "view",
			"type": "function"
		}
	]
}