{
    "contractName": "GaussVault",
    "abi": [
        {
            "anonymous": false,
            "inputs": [
                {
                    "indexed": false,
                    "internalType": "address",
                    "name": "previousAdmin",
                    "type": "address"
                },
                {
                    "indexed": false,
                    "internalType": "address",
                    "name": "newAdmin",
                    "type": "address"
                }
            ],
            "name": "AdminChanged",
            "type": "event"
        },
        {
            "anonymous": false,
            "inputs": [
                {
                    "indexed": true,
                    "internalType": "address",
                    "name": "beacon",
                    "type": "address"
                }
            ],
            "name": "BeaconUpgraded",
            "type": "event"
        },
        {
            "anonymous": false,
            "inputs": [
                {
                    "indexed": true,
                    "internalType": "address",
                    "name": "previousOwner",
                    "type": "address"
                },
                {
                    "indexed": true,
                    "internalType": "address",
                    "name": "newOwner",
                    "type": "address"
                }
            ],
            "name": "OwnershipTransferred",
            "type": "event"
        },
        {
            "anonymous": false,
            "inputs": [
                {
                    "indexed": true,
                    "internalType": "address",
                    "name": "implementation",
                    "type": "address"
                }
            ],
            "name": "Upgraded",
            "type": "event"
        },
        {
            "anonymous": false,
            "inputs": [
                {
                    "indexed": false,
                    "internalType": "address",
                    "name": "beneficiary",
                    "type": "address"
                },
                {
                    "indexed": false,
                    "internalType": "address",
                    "name": "lockAddress",
                    "type": "address"
                },
                {
                    "indexed": false,
                    "internalType": "uint256",
                    "name": "initialAmount",
                    "type": "uint256"
                }
            ],
            "name": "VestingCreated",
            "type": "event"
        },
        {
            "inputs": [],
            "name": "allReleaseTimes",
            "outputs": [
                {
                    "internalType": "address[]",
                    "name": "",
                    "type": "address[]"
                },
                {
                    "internalType": "uint256[]",
                    "name": "",
                    "type": "uint256[]"
                }
            ],
            "stateMutability": "view",
            "type": "function"
        },
        {
            "inputs": [],
            "name": "beneficiaryVestingAddresses",
            "outputs": [
                {
                    "internalType": "address[]",
                    "name": "",
                    "type": "address[]"
                }
            ],
            "stateMutability": "view",
            "type": "function"
        },
        {
            "inputs": [
                {
                    "internalType": "address",
                    "name": "gaussGANGAddress",
                    "type": "address"
                }
            ],
            "name": "initialize",
            "outputs": [],
            "stateMutability": "nonpayable",
            "type": "function"
        },
        {
            "inputs": [],
            "name": "lockGaussVault",
            "outputs": [],
            "stateMutability": "nonpayable",
            "type": "function"
        },
        {
            "inputs": [],
            "name": "owner",
            "outputs": [
                {
                    "internalType": "address",
                    "name": "",
                    "type": "address"
                }
            ],
            "stateMutability": "view",
            "type": "function"
        },
        {
            "inputs": [],
            "name": "releaseAvailableTokens",
            "outputs": [],
            "stateMutability": "nonpayable",
            "type": "function"
        },
        {
            "inputs": [
                {
                    "internalType": "address",
                    "name": "sender",
                    "type": "address"
                },
                {
                    "internalType": "address",
                    "name": "beneficiary",
                    "type": "address"
                },
                {
                    "internalType": "uint256",
                    "name": "amount",
                    "type": "uint256"
                },
                {
                    "internalType": "uint256[]",
                    "name": "amountsList",
                    "type": "uint256[]"
                },
                {
                    "internalType": "uint256[]",
                    "name": "lockTimes",
                    "type": "uint256[]"
                }
            ],
            "name": "scheduledVesting",
            "outputs": [
                {
                    "internalType": "address",
                    "name": "",
                    "type": "address"
                }
            ],
            "stateMutability": "nonpayable",
            "type": "function"
        },
        {
            "inputs": [
                {
                    "internalType": "address",
                    "name": "newOwner",
                    "type": "address"
                }
            ],
            "name": "transferOwnership",
            "outputs": [],
            "stateMutability": "nonpayable",
            "type": "function"
        },
        {
            "inputs": [
                {
                    "internalType": "address",
                    "name": "newImplementation",
                    "type": "address"
                }
            ],
            "name": "upgradeTo",
            "outputs": [],
            "stateMutability": "nonpayable",
            "type": "function"
        },
        {
            "inputs": [
                {
                    "internalType": "address",
                    "name": "newImplementation",
                    "type": "address"
                },
                {
                    "internalType": "bytes",
                    "name": "data",
                    "type": "bytes"
                }
            ],
            "name": "upgradeToAndCall",
            "outputs": [],
            "stateMutability": "payable",
            "type": "function"
        },
        {
            "inputs": [
                {
                    "internalType": "address",
                    "name": "sender",
                    "type": "address"
                },
                {
                    "internalType": "address",
                    "name": "beneficiary",
                    "type": "address"
                },
                {
                    "internalType": "uint256",
                    "name": "amount",
                    "type": "uint256"
                },
                {
                    "internalType": "uint256",
                    "name": "releaseTime",
                    "type": "uint256"
                }
            ],
            "name": "vestTokens",
            "outputs": [
                {
                    "internalType": "address",
                    "name": "",
                    "type": "address"
                }
            ],
            "stateMutability": "nonpayable",
            "type": "function"
        },
        {
            "inputs": [],
            "name": "vestingContractAddresses",
            "outputs": [
                {
                    "internalType": "address[]",
                    "name": "",
                    "type": "address[]"
                }
            ],
            "stateMutability": "view",
            "type": "function"
        }
    ],
    "bytecode": "60a06040523060601b60805234801561001757600080fd5b5060805160601c6142a561004b600039600081816105c5015281816106080152818161069a01526106dd01526142a56000f3fe608060405260043610620000b55760003560e01c8063be92c1c8116200006c578063be92c1c814620001a6578063c4d66de814620001be578063e5e0939614620001e3578063e7408dcf14620001fb578063f2fde38b1462000223578063f82d5c35146200024857600080fd5b8063161dcaa414620000ba5780633659cfe614620000fc5780634f1ef28614620001235780638da5cb5b146200013a5780639af09749146200015a578063ae073cc7146200017f575b600080fd5b348015620000c757600080fd5b50620000df620000d936600462002f11565b62000260565b6040516001600160a01b0390911681526020015b60405180910390f35b3480156200010957600080fd5b50620001216200011b36600462002e34565b620005ba565b005b620001216200013436600462002f5c565b6200068f565b3480156200014757600080fd5b506033546001600160a01b0316620000df565b3480156200016757600080fd5b50620000df6200017936600462002e74565b62000755565b3480156200018c57600080fd5b506200019762000b27565b604051620000f3919062003107565b348015620001b357600080fd5b506200012162000d65565b348015620001cb57600080fd5b5062000121620001dd36600462002e34565b62000e14565b348015620001f057600080fd5b506200012162000ea5565b3480156200020857600080fd5b506200021362001150565b604051620000f39291906200311c565b3480156200023057600080fd5b50620001216200024236600462002e34565b62001555565b3480156200025557600080fd5b50620001976200158d565b6033546000906001600160a01b03163314620002995760405162461bcd60e51b81526004016200029090620032c7565b60405180910390fd5b6069546040516000916001600160a01b0316908790879087908790620002bf9062002d8a565b6001600160a01b03958616815293851660208501529390911660408301526060820152608081019190915260a001604051809103906000f0801580156200030a573d6000803e3d6000fd5b509050606960009054906101000a90046001600160a01b03166001600160a01b031663a9059cbb826001600160a01b031663f6b4dfb46040518163ffffffff1660e01b815260040160206040518083038186803b1580156200036b57600080fd5b505afa15801562000380573d6000803e3d6000fd5b505050506040513d601f19601f82011682018060405250810190620003a6919062002e54565b6040516001600160e01b031960e084901b1681526001600160a01b03909116600482015260248101879052604401602060405180830381600087803b158015620003ef57600080fd5b505af115801562000404573d6000803e3d6000fd5b505050506040513d601f19601f820116820180604052508101906200042a91906200300e565b50606680546001810182556000919091527f46501879b8ca8525e8c2fd519e2fbfcfa2ebea26501294aa02cbfcfb12e943540180546001600160a01b0319166001600160a01b03831690811790915560408051633dad37ed60e21b815290517fd5ad48d673f889adad7b73dab2d50040ef22dd8dec91b284bc5a8bc724f3ffb0928892909163f6b4dfb491600480820192602092909190829003018186803b158015620004d657600080fd5b505afa158015620004eb573d6000803e3d6000fd5b505050506040513d601f19601f8201168201806040525081019062000511919062002e54565b604080516001600160a01b039384168152929091166020830152810186905260600160405180910390a1806001600160a01b031663f6b4dfb46040518163ffffffff1660e01b815260040160206040518083038186803b1580156200057557600080fd5b505afa1580156200058a573d6000803e3d6000fd5b505050506040513d601f19601f82011682018060405250810190620005b0919062002e54565b9695505050505050565b306001600160a01b037f0000000000000000000000000000000000000000000000000000000000000000161415620006065760405162461bcd60e51b81526004016200029090620031e1565b7f00000000000000000000000000000000000000000000000000000000000000006001600160a01b03166200063a620017c4565b6001600160a01b031614620006635760405162461bcd60e51b815260040162000290906200322d565b6200066e81620017f2565b604080516000808252602082019092526200068c918391906200181f565b50565b306001600160a01b037f0000000000000000000000000000000000000000000000000000000000000000161415620006db5760405162461bcd60e51b81526004016200029090620031e1565b7f00000000000000000000000000000000000000000000000000000000000000006001600160a01b03166200070f620017c4565b6001600160a01b031614620007385760405162461bcd60e51b815260040162000290906200322d565b6200074382620017f2565b62000751828260016200181f565b5050565b6033546000906001600160a01b03163314620007855760405162461bcd60e51b81526004016200029090620032c7565b81518351146200081d5760405162461bcd60e51b815260206004820152605660248201527f7363686564756c656456657374696e6728293a20616d6f756e74734c6973742060448201527f616e64206c6f636b54696d657320646f206e6f7420636f6e7461696e74207468606482015275652073616d65206e756d626572206f66206974656d7360501b608482015260a40162000290565b6000606960009054906101000a90046001600160a01b03168787878787604051620008489062002d98565b62000859969594939291906200314e565b604051809103906000f08015801562000876573d6000803e3d6000fd5b509050606960009054906101000a90046001600160a01b03166001600160a01b031663a9059cbb826001600160a01b031663f6b4dfb46040518163ffffffff1660e01b815260040160206040518083038186803b158015620008d757600080fd5b505afa158015620008ec573d6000803e3d6000fd5b505050506040513d601f19601f8201168201806040525081019062000912919062002e54565b6040516001600160e01b031960e084901b1681526001600160a01b03909116600482015260248101889052604401602060405180830381600087803b1580156200095b57600080fd5b505af115801562000970573d6000803e3d6000fd5b505050506040513d601f19601f820116820180604052508101906200099691906200300e565b50606780546001810182556000919091527f9787eeb91fe3101235e4a76063c7023ecb40f923f97916639c598592fa30d6ae0180546001600160a01b0319166001600160a01b03831690811790915560408051633dad37ed60e21b815290517fd5ad48d673f889adad7b73dab2d50040ef22dd8dec91b284bc5a8bc724f3ffb0928992909163f6b4dfb491600480820192602092909190829003018186803b15801562000a4257600080fd5b505afa15801562000a57573d6000803e3d6000fd5b505050506040513d601f19601f8201168201806040525081019062000a7d919062002e54565b604080516001600160a01b039384168152929091166020830152810187905260600160405180910390a1806001600160a01b031663f6b4dfb46040518163ffffffff1660e01b815260040160206040518083038186803b15801562000ae157600080fd5b505afa15801562000af6573d6000803e3d6000fd5b505050506040513d601f19601f8201168201806040525081019062000b1c919062002e54565b979650505050505050565b60675460665460609160009162000b3f91906200332f565b90506000816001600160401b0381111562000b5e5762000b5e620034f1565b60405190808252806020026020018201604052801562000b88578160200160208202803683370190505b50905060005b8281101562000d5e5760665481101562000c78576066818154811062000bb85762000bb8620034db565b60009182526020918290200154604080516338af3eed60e01b815290516001600160a01b03909216926338af3eed92600480840193829003018186803b15801562000c0257600080fd5b505afa15801562000c17573d6000803e3d6000fd5b505050506040513d601f19601f8201168201806040525081019062000c3d919062002e54565b82828151811062000c525762000c52620034db565b60200260200101906001600160a01b031690816001600160a01b03168152505062000d49565b6067818154811062000c8e5762000c8e620034db565b60009182526020918290200154604080516338af3eed60e01b815290516001600160a01b03909216926338af3eed92600480840193829003018186803b15801562000cd857600080fd5b505afa15801562000ced573d6000803e3d6000fd5b505050506040513d601f19601f8201168201806040525081019062000d13919062002e54565b82828151811062000d285762000d28620034db565b60200260200101906001600160a01b031690816001600160a01b0316815250505b8062000d5581620034a7565b91505062000b8e565b5092915050565b6033546001600160a01b0316331462000d925760405162461bcd60e51b81526004016200029090620032c7565b606954600160a01b900460ff1662000e125762000dae6200197b565b62000db862001bac565b62000dc262001d17565b62000dcc62001f06565b62000dd66200207a565b62000de0620021cb565b62000dea6200233f565b62000df4620024b3565b62000dfe62002627565b6069805460ff60a01b1916600160a01b1790555b565b600054610100900460ff168062000e2e575060005460ff16155b62000e4d5760405162461bcd60e51b8152600401620002909062003279565b600054610100900460ff1615801562000e70576000805461ffff19166101011790555b62000e7a62002769565b62000e84620027ee565b62000e8f826200285e565b801562000751576000805461ff00191690555050565b6033546001600160a01b0316331462000ed25760405162461bcd60e51b81526004016200029090620032c7565b60675460665460009162000ee6916200332f565b905060005b81811015620007515760665481101562001020576066818154811062000f155762000f15620034db565b600091825260209182902001546040805163b91d400160e01b815290516001600160a01b039092169263b91d400192600480840193829003018186803b15801562000f5f57600080fd5b505afa15801562000f74573d6000803e3d6000fd5b505050506040513d601f19601f8201168201806040525081019062000f9a919062003032565b42106200101a576066818154811062000fb75762000fb7620034db565b6000918252602082200154604080516386d1a69f60e01b815290516001600160a01b03909216926386d1a69f9260048084019382900301818387803b1580156200100057600080fd5b505af115801562001015573d6000803e3d6000fd5b505050505b6200113b565b60678181548110620010365762001036620034db565b600091825260209182902001546040805163b91d400160e01b815290516001600160a01b039092169263b91d400192600480840193829003018186803b1580156200108057600080fd5b505afa15801562001095573d6000803e3d6000fd5b505050506040513d601f19601f82011682018060405250810190620010bb919062003032565b42106200113b5760678181548110620010d857620010d8620034db565b6000918252602082200154604080516386d1a69f60e01b815290516001600160a01b03909216926386d1a69f9260048084019382900301818387803b1580156200112157600080fd5b505af115801562001136573d6000803e3d6000fd5b505050505b806200114781620034a7565b91505062000eeb565b606754606654606091829160009162001169916200332f565b90506000816001600160401b03811115620011885762001188620034f1565b604051908082528060200260200182016040528015620011b2578160200160208202803683370190505b5090506000826001600160401b03811115620011d257620011d2620034f1565b604051908082528060200260200182016040528015620011fc578160200160208202803683370190505b50905060005b838110156200154a57606654811015620013a857606681815481106200122c576200122c620034db565b6000918252602091829020015460408051633dad37ed60e21b815290516001600160a01b039092169263f6b4dfb492600480840193829003018186803b1580156200127657600080fd5b505afa1580156200128b573d6000803e3d6000fd5b505050506040513d601f19601f82011682018060405250810190620012b1919062002e54565b838281518110620012c657620012c6620034db565b60200260200101906001600160a01b031690816001600160a01b03168152505060668181548110620012fc57620012fc620034db565b600091825260209182902001546040805163b91d400160e01b815290516001600160a01b039092169263b91d400192600480840193829003018186803b1580156200134657600080fd5b505afa1580156200135b573d6000803e3d6000fd5b505050506040513d601f19601f8201168201806040525081019062001381919062003032565b828281518110620013965762001396620034db565b60200260200101818152505062001535565b60678181548110620013be57620013be620034db565b6000918252602091829020015460408051633dad37ed60e21b815290516001600160a01b039092169263f6b4dfb492600480840193829003018186803b1580156200140857600080fd5b505afa1580156200141d573d6000803e3d6000fd5b505050506040513d601f19601f8201168201806040525081019062001443919062002e54565b838281518110620014585762001458620034db565b60200260200101906001600160a01b031690816001600160a01b031681525050606781815481106200148e576200148e620034db565b600091825260209182902001546040805163b91d400160e01b815290516001600160a01b039092169263b91d400192600480840193829003018186803b158015620014d857600080fd5b505afa158015620014ed573d6000803e3d6000fd5b505050506040513d601f19601f8201168201806040525081019062001513919062003032565b828281518110620015285762001528620034db565b6020026020010181815250505b806200154181620034a7565b91505062001202565b509094909350915050565b6033546001600160a01b03163314620015825760405162461bcd60e51b81526004016200029090620032c7565b6200068c8162002982565b606754606654606091600091620015a591906200332f565b90506000816001600160401b03811115620015c457620015c4620034f1565b604051908082528060200260200182016040528015620015ee578160200160208202803683370190505b50905060005b8281101562000d5e57606654811015620016de57606681815481106200161e576200161e620034db565b6000918252602091829020015460408051633dad37ed60e21b815290516001600160a01b039092169263f6b4dfb492600480840193829003018186803b1580156200166857600080fd5b505afa1580156200167d573d6000803e3d6000fd5b505050506040513d601f19601f82011682018060405250810190620016a3919062002e54565b828281518110620016b857620016b8620034db565b60200260200101906001600160a01b031690816001600160a01b031681525050620017af565b60678181548110620016f457620016f4620034db565b6000918252602091829020015460408051633dad37ed60e21b815290516001600160a01b039092169263f6b4dfb492600480840193829003018186803b1580156200173e57600080fd5b505afa15801562001753573d6000803e3d6000fd5b505050506040513d601f19601f8201168201806040525081019062001779919062002e54565b8282815181106200178e576200178e620034db565b60200260200101906001600160a01b031690816001600160a01b0316815250505b80620017bb81620034a7565b915050620015f4565b7f360894a13ba1a3210667c828492db98dca3e2076cc3735a920a3ca505d382bbc546001600160a01b031690565b6033546001600160a01b031633146200068c5760405162461bcd60e51b81526004016200029090620032c7565b60006200182b620017c4565b9050620018388462002a45565b600083511180620018465750815b156200185a5762001858848462002aec565b505b7f4910fdfa16fed3260ed0e7147f7cc6da11a60208b5b9406d12a635614ffd9143805460ff166200197457805460ff191660011781556040516001600160a01b0383166024820152620018dc90869060440160408051601f198184030181529190526020810180516001600160e01b0316631b2ce7f360e11b17905262002aec565b50805460ff19168155620018ef620017c4565b6001600160a01b0316826001600160a01b031614620019695760405162461bcd60e51b815260206004820152602f60248201527f45524331393637557067726164653a207570677261646520627265616b73206660448201526e75727468657220757067726164657360881b606482015260840162000290565b620019748562002be2565b5050505050565b606a54734249b05e707feea3fb034071c66e5a227c230c2f90600090620019a7906306b49d2062003452565b6040805160198082526103408201909252919250906000908260208201610320803683370190505090506000826001600160401b03811115620019ee57620019ee620034f1565b60405190808252806020026020018201604052801562001a18578160200160208202803683370190505b50905060005b8381101562001b06578062001a6757606a5462001a409063017d784062003452565b83828151811062001a555762001a55620034db565b60200260200101818152505062001af1565b6001811015801562001a7a575060068111155b1562001a9257606a5462001a4090621312d062003452565b6007811015801562001aa5575060178111155b1562001abd57606a5462001a40906243d11c62003452565b606a5462001acf906243d12462003452565b83828151811062001ae45762001ae4620034db565b6020026020010181815250505b8062001afd81620034a7565b91505062001a1e565b5060005b8381101562001b88578062001b4257600182828151811062001b305762001b30620034db565b60200260200101818152505062001b73565b62001b518162278d0062003452565b82828151811062001b665762001b66620034db565b6020026020010181815250505b8062001b7f81620034a7565b91505062001b0a565b5060685462001ba4906001600160a01b03168686858562000755565b505050505050565b606a547317ca40c901af4c31ed9f5d961b16ded9a47155059060009062001bd8906301312d0062003452565b60408051600280825260608201835292935060009183906020830190803683370190505090506000826001600160401b0381111562001c1b5762001c1b620034f1565b60405190808252806020026020018201604052801562001c45578160200160208202803683370190505b509050606a546298968062001c5b919062003452565b8260008151811062001c715762001c71620034db565b6020908102919091010152606a5462001c8e906298968062003452565b8260018151811062001ca45762001ca4620034db565b602002602001018181525050629e34008160008151811062001cca5762001cca620034db565b60200260200101818152505063013c68008160018151811062001cf15762001cf1620034db565b602090810291909101015260685462001ba4906001600160a01b03168686858562000755565b606a54737d74e237825eba9f4b026555f17ecacb2b0d78fe9060009062001d429062e4e1c062003452565b6040805160138082526102808201909252919250906000908260208201610260803683370190505090506000826001600160401b0381111562001d895762001d89620034f1565b60405190808252806020026020018201604052801562001db3578160200160208202803683370190505b50905060005b8381101562001e75578062001e0157606a5462001dda906210f44762003452565b83828151811062001def5762001def620034db565b60200260200101818152505062001e60565b6001811015801562001e14575060118111155b1562001e2c57606a5462001dda90620bc61562003452565b606a5462001e3e90620bc61462003452565b83828151811062001e535762001e53620034db565b6020026020010181815250505b8062001e6c81620034a7565b91505062001db9565b5060005b8381101562001b88578062001eb157600182828151811062001e9f5762001e9f620034db565b60200260200101818152505062001ef1565b62001ec08162278d0062003452565b62001ecf9062c5c1006200332f565b82828151811062001ee45762001ee4620034db565b6020026020010181815250505b8062001efd81620034a7565b91505062001e79565b606a54733e3049a80590baf63b6ac8d74f5cbb31584059bb9060009062001f319062632ea062003452565b6040805160198082526103408201909252919250906000908260208201610320803683370190505090506000826001600160401b0381111562001f785762001f78620034f1565b60405190808252806020026020018201604052801562001fa2578160200160208202803683370190505b50905060005b8381101562001ff857606a5462001fc3906203f7a062003452565b83828151811062001fd85762001fd8620034db565b60209081029190910101528062001fef81620034a7565b91505062001fa8565b5060005b8381101562001b88578062002034576001828281518110620020225762002022620034db565b60200260200101818152505062002065565b620020438162278d0062003452565b828281518110620020585762002058620034db565b6020026020010181815250505b806200207181620034a7565b91505062001ffc565b606a5473747dde9cb0b8b86ef1d221077055ee9ec4e70b8990600090620020a69063017d784062003452565b60408051600480825260a082019092529192509060009082602082016080803683370190505090506000826001600160401b03811115620020eb57620020eb620034f1565b60405190808252806020026020018201604052801562002115578160200160208202803683370190505b50905060005b838110156200216b57606a546200213690625f5e1062003452565b8382815181106200214b576200214b620034db565b6020908102919091010152806200216281620034a7565b9150506200211b565b5060005b8381101562001b8857620021878162c5c10062003452565b620021969062c5c1006200332f565b828281518110620021ab57620021ab620034db565b602090810291909101015280620021c281620034a7565b9150506200216f565b606a547346cee8f5f3e30af7b62374249907fb97563262f590600090620021f69062e4e1c062003452565b6040805160198082526103408201909252919250906000908260208201610320803683370190505090506000826001600160401b038111156200223d576200223d620034f1565b60405190808252806020026020018201604052801562002267578160200160208202803683370190505b50905060005b83811015620022bd57606a546200228890620927c062003452565b8382815181106200229d576200229d620034db565b602090810291909101015280620022b481620034a7565b9150506200226d565b5060005b8381101562001b885780620022f9576001828281518110620022e757620022e7620034db565b6020026020010181815250506200232a565b620023088162278d0062003452565b8282815181106200231d576200231d620034db565b6020026020010181815250505b806200233681620034a7565b915050620022c1565b606a5473f9f41bd5c7b6cf9a3c6e13846035005331ed940e906000906200236a9062e4e1c062003452565b6040805160198082526103408201909252919250906000908260208201610320803683370190505090506000826001600160401b03811115620023b157620023b1620034f1565b604051908082528060200260200182016040528015620023db578160200160208202803683370190505b50905060005b838110156200243157606a54620023fc90620927c062003452565b838281518110620024115762002411620034db565b6020908102919091010152806200242881620034a7565b915050620023e1565b5060005b8381101562001b8857806200246d5760018282815181106200245b576200245b620034db565b6020026020010181815250506200249e565b6200247c8162278d0062003452565b828281518110620024915762002491620034db565b6020026020010181815250505b80620024aa81620034a7565b91505062002435565b606a5473e3778db10a5e8b2bd1b68038f2cefa835aa46b4590600090620024de9062bebc2062003452565b6040805160198082526103408201909252919250906000908260208201610320803683370190505090506000826001600160401b03811115620025255762002525620034f1565b6040519080825280602002602001820160405280156200254f578160200160208202803683370190505b50905060005b83811015620025a557606a5462002570906207a12062003452565b838281518110620025855762002585620034db565b6020908102919091010152806200259c81620034a7565b91505062002555565b5060005b8381101562001b885780620025e1576001828281518110620025cf57620025cf620034db565b60200260200101818152505062002612565b620025f08162278d0062003452565b828281518110620026055762002605620034db565b6020026020010181815250505b806200261e81620034a7565b915050620025a9565b606a5473f02fd116eefb47e394721356b36d3350972cc0c79060009062002653906301b2e02062003452565b60408051600680825260e0820190925291925090600090826020820160c0803683370190505090506000826001600160401b03811115620026985762002698620034f1565b604051908082528060200260200182016040528015620026c2578160200160208202803683370190505b50905060005b838110156200271857606a54620026e39062487ab062003452565b838281518110620026f857620026f8620034db565b6020908102919091010152806200270f81620034a7565b915050620026c8565b5060005b8381101562001b88576200273481629e340062003452565b828281518110620027495762002749620034db565b6020908102919091010152806200276081620034a7565b9150506200271c565b600054610100900460ff168062002783575060005460ff16155b620027a25760405162461bcd60e51b8152600401620002909062003279565b600054610100900460ff16158015620027c5576000805461ffff19166101011790555b620027cf62002c24565b620027d962002c94565b80156200068c576000805461ff001916905550565b600054610100900460ff168062002808575060005460ff16155b620028275760405162461bcd60e51b8152600401620002909062003279565b600054610100900460ff161580156200284a576000805461ffff19166101011790555b6200285462002c24565b620027d962002c24565b600054610100900460ff168062002878575060005460ff16155b620028975760405162461bcd60e51b8152600401620002909062003279565b600054610100900460ff16158015620028ba576000805461ffff19166101011790555b606880546001600160a01b03191630179055606980546001600160a81b0319166001600160a01b0384169081179091556040805163313ce56760e01b8152905163313ce56791600480820192602092909190829003018186803b1580156200292157600080fd5b505afa15801562002936573d6000803e3d6000fd5b505050506040513d601f19601f820116820180604052508101906200295c91906200304c565b6200296990600a62003393565b606a55801562000751576000805461ff00191690555050565b6001600160a01b038116620029e95760405162461bcd60e51b815260206004820152602660248201527f4f776e61626c653a206e6577206f776e657220697320746865207a65726f206160448201526564647265737360d01b606482015260840162000290565b6033546040516001600160a01b038084169216907f8be0079c531659141344cd1fd0a4f28419497f9722a3daafe3b4186f6b6457e090600090a3603380546001600160a01b0319166001600160a01b0392909216919091179055565b803b62002aab5760405162461bcd60e51b815260206004820152602d60248201527f455243313936373a206e657720696d706c656d656e746174696f6e206973206e60448201526c1bdd08184818dbdb9d1c9858dd609a1b606482015260840162000290565b7f360894a13ba1a3210667c828492db98dca3e2076cc3735a920a3ca505d382bbc80546001600160a01b0319166001600160a01b0392909216919091179055565b6060823b62002b4d5760405162461bcd60e51b815260206004820152602660248201527f416464726573733a2064656c65676174652063616c6c20746f206e6f6e2d636f6044820152651b9d1c9858dd60d21b606482015260840162000290565b600080846001600160a01b03168460405162002b6a9190620030e9565b600060405180830381855af49150503d806000811462002ba7576040519150601f19603f3d011682016040523d82523d6000602084013e62002bac565b606091505b509150915062002bd78282604051806060016040528060278152602001620042496027913962002d45565b925050505b92915050565b62002bed8162002a45565b6040516001600160a01b038216907fbc7cd75a20ee27fd9adebab32041f755214dbc6bffa90cc0225b39da2e5c2d3b90600090a250565b600054610100900460ff168062002c3e575060005460ff16155b62002c5d5760405162461bcd60e51b8152600401620002909062003279565b600054610100900460ff16158015620027d9576000805461ffff191661010117905580156200068c576000805461ff001916905550565b600054610100900460ff168062002cae575060005460ff16155b62002ccd5760405162461bcd60e51b8152600401620002909062003279565b600054610100900460ff1615801562002cf0576000805461ffff19166101011790555b603380546001600160a01b031916339081179091556040516000907f8be0079c531659141344cd1fd0a4f28419497f9722a3daafe3b4186f6b6457e0908290a380156200068c576000805461ff001916905550565b6060831562002d5657508162002d83565b82511562002d675782518084602001fd5b8160405162461bcd60e51b8152600401620002909190620031ac565b9392505050565b610587806200351e83390190565b6107a48062003aa583390190565b600082601f83011262002db857600080fd5b813560206001600160401b0382111562002dd65762002dd6620034f1565b8160051b62002de7828201620032fc565b83815282810190868401838801850189101562002e0357600080fd5b600093505b8584101562002e2857803583526001939093019291840191840162002e08565b50979650505050505050565b60006020828403121562002e4757600080fd5b813562002d838162003507565b60006020828403121562002e6757600080fd5b815162002d838162003507565b600080600080600060a0868803121562002e8d57600080fd5b853562002e9a8162003507565b9450602086013562002eac8162003507565b93506040860135925060608601356001600160401b038082111562002ed057600080fd5b62002ede89838a0162002da6565b9350608088013591508082111562002ef557600080fd5b5062002f048882890162002da6565b9150509295509295909350565b6000806000806080858703121562002f2857600080fd5b843562002f358162003507565b9350602085013562002f478162003507565b93969395505050506040820135916060013590565b6000806040838503121562002f7057600080fd5b823562002f7d8162003507565b91506020838101356001600160401b038082111562002f9b57600080fd5b818601915086601f83011262002fb057600080fd5b81358181111562002fc55762002fc5620034f1565b62002fd9601f8201601f19168501620032fc565b9150808252878482850101111562002ff057600080fd5b80848401858401376000848284010152508093505050509250929050565b6000602082840312156200302157600080fd5b8151801515811462002d8357600080fd5b6000602082840312156200304557600080fd5b5051919050565b6000602082840312156200305f57600080fd5b815160ff8116811462002d8357600080fd5b600081518084526020808501945080840160005b83811015620030ac5781516001600160a01b03168752958201959082019060010162003085565b509495945050505050565b600081518084526020808501945080840160005b83811015620030ac57815187529582019590820190600101620030cb565b60008251620030fd81846020870162003474565b9190910192915050565b60208152600062002d83602083018462003071565b60408152600062003131604083018562003071565b8281036020840152620031458185620030b7565b95945050505050565b6001600160a01b0387811682528681166020830152851660408201526060810184905260c0608082018190526000906200318b90830185620030b7565b82810360a08401526200319f8185620030b7565b9998505050505050505050565b6020815260008251806020840152620031cd81604085016020870162003474565b601f01601f19169190910160400192915050565b6020808252602c908201527f46756e6374696f6e206d7573742062652063616c6c6564207468726f7567682060408201526b19195b1959d85d1958d85b1b60a21b606082015260800190565b6020808252602c908201527f46756e6374696f6e206d7573742062652063616c6c6564207468726f7567682060408201526b6163746976652070726f787960a01b606082015260800190565b6020808252602e908201527f496e697469616c697a61626c653a20636f6e747261637420697320616c72656160408201526d191e481a5b9a5d1a585b1a5e995960921b606082015260800190565b6020808252818101527f4f776e61626c653a2063616c6c6572206973206e6f7420746865206f776e6572604082015260600190565b604051601f8201601f191681016001600160401b0381118282101715620033275762003327620034f1565b604052919050565b60008219821115620033455762003345620034c5565b500190565b600181815b808511156200338b5781600019048211156200336f576200336f620034c5565b808516156200337d57918102915b93841c93908002906200334f565b509250929050565b600062002d8360ff841683600082620033af5750600162002bdc565b81620033be5750600062002bdc565b8160018114620033d75760028114620033e25762003402565b600191505062002bdc565b60ff841115620033f657620033f6620034c5565b50506001821b62002bdc565b5060208310610133831016604e8410600b841016171562003427575081810a62002bdc565b6200343383836200334a565b80600019048211156200344a576200344a620034c5565b029392505050565b60008160001904831182151516156200346f576200346f620034c5565b500290565b60005b838110156200349157818101518382015260200162003477565b83811115620034a1576000848401525b50505050565b6000600019821415620034be57620034be620034c5565b5060010190565b634e487b7160e01b600052601160045260246000fd5b634e487b7160e01b600052603260045260246000fd5b634e487b7160e01b600052604160045260246000fd5b6001600160a01b03811681146200068c57600080fdfe61010060405234801561001157600080fd5b506040516105873803806105878339810160408190526100309161006f565b6001600160601b0319606086811b821660805285811b821660a05284901b1660c052603382905561006181426100cd565b60e0525061010b9350505050565b600080600080600060a0868803121561008757600080fd5b8551610092816100f3565b60208701519095506100a3816100f3565b60408701519094506100b4816100f3565b6060870151608090970151959894975095949392505050565b600082198211156100ee57634e487b7160e01b600052601160045260246000fd5b500190565b6001600160a01b038116811461010857600080fd5b50565b60805160601c60a05160601c60c05160601c60e051610420610167600039600081816101050152610157015260008181608401526103000152600060c3015260008181610131015281816101e501526102d101526104206000f3fe608060405234801561001057600080fd5b506004361061007d5760003560e01c806386d1a69f1161005b57806386d1a69f146100f9578063b91d400114610103578063f6b4dfb414610129578063fc0c546a1461012f57600080fd5b806338af3eed1461008257806367e404ce146100c15780636ab28bc8146100e7575b600080fd5b7f00000000000000000000000000000000000000000000000000000000000000005b6040516001600160a01b0390911681526020015b60405180910390f35b7f00000000000000000000000000000000000000000000000000000000000000006100a4565b6033545b6040519081526020016100b8565b610101610155565b005b7f00000000000000000000000000000000000000000000000000000000000000006100eb565b306100a4565b7f00000000000000000000000000000000000000000000000000000000000000006100a4565b7f00000000000000000000000000000000000000000000000000000000000000004210156101e15760405162461bcd60e51b815260206004820152602e60248201527f546f6b656e4c6f636b3a2072656c656173652074696d65206973206265666f7260448201526d652063757272656e742074696d6560901b60648201526084015b60405180910390fd5b60007f00000000000000000000000000000000000000000000000000000000000000006040516370a0823160e01b81523060048201526001600160a01b0391909116906370a082319060240160206040518083038186803b15801561024557600080fd5b505afa158015610259573d6000803e3d6000fd5b505050506040513d601f19601f8201168201806040525081019061027d91906103d1565b9050600081116102cf5760405162461bcd60e51b815260206004820152601f60248201527f546f6b656e4c6f636b3a206e6f20746f6b656e7320746f2072656c656173650060448201526064016101d8565b7f00000000000000000000000000000000000000000000000000000000000000006001600160a01b031663a9059cbb7f00000000000000000000000000000000000000000000000000000000000000006040516001600160e01b031960e084901b1681526001600160a01b03909116600482015260248101849052604401602060405180830381600087803b15801561036757600080fd5b505af115801561037b573d6000803e3d6000fd5b505050506040513d601f19601f8201168201806040525081019061039f91906103a8565b50506000603355565b6000602082840312156103ba57600080fd5b815180151581146103ca57600080fd5b9392505050565b6000602082840312156103e357600080fd5b505191905056fea26469706673582212201cc19ce9b1bb70b9e4f4fe05f54cc4ba779b448013c7691b99465755111551d064736f6c6343000807003360e0604052600060355534801561001557600080fd5b506040516107a43803806107a4833981016040819052610034916101c1565b6001600160601b0319606087811b821660805286811b821660a05285901b1660c0526034839055815161006e9060369060208501906100c1565b5080516100829060379060208401906100c1565b50426038556037805460009061009a5761009a61028d565b90600052602060002001546038546100b29190610267565b603355506102d1945050505050565b8280548282559060005260206000209081019282156100fc579160200282015b828111156100fc5782518255916020019190600101906100e1565b5061010892915061010c565b5090565b5b80821115610108576000815560010161010d565b600082601f83011261013257600080fd5b815160206001600160401b038083111561014e5761014e6102a3565b8260051b604051601f19603f83011681018181108482111715610173576101736102a3565b6040528481528381019250868401828801850189101561019257600080fd5b600092505b858310156101b5578051845292840192600192909201918401610197565b50979650505050505050565b60008060008060008060c087890312156101da57600080fd5b86516101e5816102b9565b60208801519096506101f6816102b9565b6040880151909550610207816102b9565b6060880151608089015191955093506001600160401b038082111561022b57600080fd5b6102378a838b01610121565b935060a089015191508082111561024d57600080fd5b5061025a89828a01610121565b9150509295509295509295565b6000821982111561028857634e487b7160e01b600052601160045260246000fd5b500190565b634e487b7160e01b600052603260045260246000fd5b634e487b7160e01b600052604160045260246000fd5b6001600160a01b03811681146102ce57600080fd5b50565b60805160601c60a05160601c60c05160601c61048f61031560003960008181608401526102d30152600060c301526000818161011301526102a4015261048f6000f3fe608060405234801561001057600080fd5b506004361061007d5760003560e01c806386d1a69f1161005b57806386d1a69f146100f9578063b91d400114610103578063f6b4dfb41461010b578063fc0c546a1461011157600080fd5b806338af3eed1461008257806367e404ce146100c15780636ab28bc8146100e7575b600080fd5b7f00000000000000000000000000000000000000000000000000000000000000005b6040516001600160a01b0390911681526020015b60405180910390f35b7f00000000000000000000000000000000000000000000000000000000000000006100a4565b6034545b6040519081526020016100b8565b610101610137565b005b6033546100eb565b306100a4565b7f00000000000000000000000000000000000000000000000000000000000000006100a4565b6000603454116101a55760405162461bcd60e51b815260206004820152602e60248201527f5363686564756c6564546f6b656e4c6f636b3a206e6f20746f6b656e73206c6560448201526d199d081a5b8818dbdb9d1c9858dd60921b60648201526084015b60405180910390fd5b60335442101561021d5760405162461bcd60e51b815260206004820152603760248201527f5363686564756c6564546f6b656e4c6f636b3a2072656c656173652074696d6560448201527f206973206265666f72652063757272656e742074696d65000000000000000000606482015260840161019c565b600060366035548154811061023457610234610443565b90600052602060002001549050600081116102a25760405162461bcd60e51b815260206004820152602860248201527f5363686564756c6564546f6b656e4c6f636b3a206e6f20746f6b656e7320746f6044820152672072656c6561736560c01b606482015260840161019c565b7f00000000000000000000000000000000000000000000000000000000000000006001600160a01b031663a9059cbb7f00000000000000000000000000000000000000000000000000000000000000006040516001600160e01b031960e084901b1681526001600160a01b03909116600482015260248101849052604401602060405180830381600087803b15801561033a57600080fd5b505af115801561034e573d6000803e3d6000fd5b505050506040513d601f19601f8201168201806040525081019061037291906103d5565b506035546103819060016103fe565b603555603454610392908290610416565b60345560375460355410156103d2576037603554815481106103b6576103b6610443565b90600052602060002001546038546103ce91906103fe565b6033555b50565b6000602082840312156103e757600080fd5b815180151581146103f757600080fd5b9392505050565b600082198211156104115761041161042d565b500190565b6000828210156104285761042861042d565b500390565b634e487b7160e01b600052601160045260246000fd5b634e487b7160e01b600052603260045260246000fdfea2646970667358221220297cdcc0c922b86380da9395da13b00aec48397bfcc3bb091d4f2e2310d7f68464736f6c63430008070033416464726573733a206c6f772d6c6576656c2064656c65676174652063616c6c206661696c6564a2646970667358221220d4506c7de2af6f95415741a9a92d2ea588dbab168deb6f048cb129936484723f64736f6c63430008070033",
    "sourcePath": "d:/Documents/GitHub/Gauss-GANG-Smart-Contract/contracts/token/GaussVault.sol",
    "compiler": {
        "name": "solc",
        "version": "0.8.7+commit.e28d00a7"
    },
    "functionHashes": {
        "allReleaseTimes()": "e7408dcf",
        "beneficiaryVestingAddresses()": "ae073cc7",
        "initialize(address)": "c4d66de8",
        "lockGaussVault()": "be92c1c8",
        "owner()": "8da5cb5b",
        "releaseAvailableTokens()": "e5e09396",
        "scheduledVesting(address,address,uint256,uint256[],uint256[])": "9af09749",
        "transferOwnership(address)": "f2fde38b",
        "upgradeTo(address)": "3659cfe6",
        "upgradeToAndCall(address,bytes)": "4f1ef286",
        "vestTokens(address,address,uint256,uint256)": "161dcaa4",
        "vestingContractAddresses()": "f82d5c35"
    },
    "gasEstimates": {
        "creation": {
            "codeDepositCost": "3412200",
            "executionCost": "infinite",
            "totalCost": "infinite"
        },
        "external": {
            "allReleaseTimes()": "infinite",
            "beneficiaryVestingAddresses()": "infinite",
            "initialize(address)": "infinite",
            "lockGaussVault()": "infinite",
            "owner()": "2387",
            "releaseAvailableTokens()": "infinite",
            "scheduledVesting(address,address,uint256,uint256[],uint256[])": "infinite",
            "transferOwnership(address)": "infinite",
            "upgradeTo(address)": "infinite",
            "upgradeToAndCall(address,bytes)": "infinite",
            "vestTokens(address,address,uint256,uint256)": "infinite",
            "vestingContractAddresses()": "infinite"
        },
        "internal": {
            "__GaussVault_init_unchained(address)": "infinite",
            "_authorizeUpgrade(address)": "infinite",
            "_lockAdvisorTokens()": "infinite",
            "_lockCharitableFundTokens()": "infinite",
            "_lockCommunityTokens()": "infinite",
            "_lockCoreTeamTokens()": "infinite",
            "_lockLiquidityTokens()": "infinite",
            "_lockMarketingTokens()": "infinite",
            "_lockOpsDevTokens()": "infinite",
            "_lockReserveTokens()": "infinite",
            "_lockVestingIncentiveTokens()": "infinite"
        }
    }
}