{
    "contractName": "GaussGANG",
    "abi": [
        {
            "anonymous": false,
            "inputs": [
                {
                    "indexed": false,
                    "internalType": "address",
                    "name": "previousAdmin",
                    "type": "address"
                },
                {
                    "indexed": false,
                    "internalType": "address",
                    "name": "newAdmin",
                    "type": "address"
                }
            ],
            "name": "AdminChanged",
            "type": "event"
        },
        {
            "anonymous": false,
            "inputs": [
                {
                    "indexed": true,
                    "internalType": "address",
                    "name": "owner",
                    "type": "address"
                },
                {
                    "indexed": true,
                    "internalType": "address",
                    "name": "spender",
                    "type": "address"
                },
                {
                    "indexed": false,
                    "internalType": "uint256",
                    "name": "value",
                    "type": "uint256"
                }
            ],
            "name": "Approval",
            "type": "event"
        },
        {
            "anonymous": false,
            "inputs": [
                {
                    "indexed": true,
                    "internalType": "address",
                    "name": "beacon",
                    "type": "address"
                }
            ],
            "name": "BeaconUpgraded",
            "type": "event"
        },
        {
            "anonymous": false,
            "inputs": [
                {
                    "indexed": true,
                    "internalType": "address",
                    "name": "previousOwner",
                    "type": "address"
                },
                {
                    "indexed": true,
                    "internalType": "address",
                    "name": "newOwner",
                    "type": "address"
                }
            ],
            "name": "OwnershipTransferred",
            "type": "event"
        },
        {
            "anonymous": false,
            "inputs": [
                {
                    "indexed": false,
                    "internalType": "address",
                    "name": "account",
                    "type": "address"
                }
            ],
            "name": "Paused",
            "type": "event"
        },
        {
            "anonymous": false,
            "inputs": [
                {
                    "indexed": false,
                    "internalType": "uint256",
                    "name": "id",
                    "type": "uint256"
                }
            ],
            "name": "Snapshot",
            "type": "event"
        },
        {
            "anonymous": false,
            "inputs": [
                {
                    "indexed": true,
                    "internalType": "address",
                    "name": "from",
                    "type": "address"
                },
                {
                    "indexed": true,
                    "internalType": "address",
                    "name": "to",
                    "type": "address"
                },
                {
                    "indexed": false,
                    "internalType": "uint256",
                    "name": "value",
                    "type": "uint256"
                }
            ],
            "name": "Transfer",
            "type": "event"
        },
        {
            "anonymous": false,
            "inputs": [
                {
                    "indexed": false,
                    "internalType": "address",
                    "name": "account",
                    "type": "address"
                }
            ],
            "name": "Unpaused",
            "type": "event"
        },
        {
            "anonymous": false,
            "inputs": [
                {
                    "indexed": true,
                    "internalType": "address",
                    "name": "implementation",
                    "type": "address"
                }
            ],
            "name": "Upgraded",
            "type": "event"
        },
        {
            "inputs": [
                {
                    "internalType": "address",
                    "name": "",
                    "type": "address"
                }
            ],
            "name": "_balances",
            "outputs": [
                {
                    "internalType": "uint256",
                    "name": "",
                    "type": "uint256"
                }
            ],
            "stateMutability": "view",
            "type": "function"
        },
        {
            "inputs": [
                {
                    "internalType": "address",
                    "name": "owner",
                    "type": "address"
                },
                {
                    "internalType": "address",
                    "name": "spender",
                    "type": "address"
                }
            ],
            "name": "allowance",
            "outputs": [
                {
                    "internalType": "uint256",
                    "name": "",
                    "type": "uint256"
                }
            ],
            "stateMutability": "view",
            "type": "function"
        },
        {
            "inputs": [
                {
                    "internalType": "address",
                    "name": "spender",
                    "type": "address"
                },
                {
                    "internalType": "uint256",
                    "name": "amount",
                    "type": "uint256"
                }
            ],
            "name": "approve",
            "outputs": [
                {
                    "internalType": "bool",
                    "name": "",
                    "type": "bool"
                }
            ],
            "stateMutability": "nonpayable",
            "type": "function"
        },
        {
            "inputs": [
                {
                    "internalType": "address",
                    "name": "account",
                    "type": "address"
                }
            ],
            "name": "balanceOf",
            "outputs": [
                {
                    "internalType": "uint256",
                    "name": "",
                    "type": "uint256"
                }
            ],
            "stateMutability": "view",
            "type": "function"
        },
        {
            "inputs": [
                {
                    "internalType": "address",
                    "name": "account",
                    "type": "address"
                },
                {
                    "internalType": "uint256",
                    "name": "snapshotId",
                    "type": "uint256"
                }
            ],
            "name": "balanceOfAt",
            "outputs": [
                {
                    "internalType": "uint256",
                    "name": "",
                    "type": "uint256"
                }
            ],
            "stateMutability": "view",
            "type": "function"
        },
        {
            "inputs": [
                {
                    "internalType": "address",
                    "name": "newCharitableAddress",
                    "type": "address"
                }
            ],
            "name": "changeCharitableWallet",
            "outputs": [],
            "stateMutability": "nonpayable",
            "type": "function"
        },
        {
            "inputs": [
                {
                    "internalType": "address",
                    "name": "newGaussGangAddress",
                    "type": "address"
                }
            ],
            "name": "changeGaussGangWallet",
            "outputs": [],
            "stateMutability": "nonpayable",
            "type": "function"
        },
        {
            "inputs": [
                {
                    "internalType": "address",
                    "name": "newInternalDistributionWallet",
                    "type": "address"
                }
            ],
            "name": "changeInternalDistributionWallet",
            "outputs": [],
            "stateMutability": "nonpayable",
            "type": "function"
        },
        {
            "inputs": [
                {
                    "internalType": "address",
                    "name": "newLiquidityAddress",
                    "type": "address"
                }
            ],
            "name": "changeLiquidityWallet",
            "outputs": [],
            "stateMutability": "nonpayable",
            "type": "function"
        },
        {
            "inputs": [
                {
                    "internalType": "address",
                    "name": "newRedistributionAddress",
                    "type": "address"
                }
            ],
            "name": "changeRedistributionWallet",
            "outputs": [],
            "stateMutability": "nonpayable",
            "type": "function"
        },
        {
            "inputs": [
                {
                    "internalType": "uint256",
                    "name": "newRedistributionFee",
                    "type": "uint256"
                },
                {
                    "internalType": "uint256",
                    "name": "newCharitableFundFee",
                    "type": "uint256"
                },
                {
                    "internalType": "uint256",
                    "name": "newLiquidityFee",
                    "type": "uint256"
                },
                {
                    "internalType": "uint256",
                    "name": "newGGFee",
                    "type": "uint256"
                }
            ],
            "name": "changeTransactionFees",
            "outputs": [],
            "stateMutability": "nonpayable",
            "type": "function"
        },
        {
            "inputs": [],
            "name": "charitableFundFee",
            "outputs": [
                {
                    "internalType": "uint256",
                    "name": "",
                    "type": "uint256"
                }
            ],
            "stateMutability": "view",
            "type": "function"
        },
        {
            "inputs": [],
            "name": "charitableFundWallet",
            "outputs": [
                {
                    "internalType": "address",
                    "name": "",
                    "type": "address"
                }
            ],
            "stateMutability": "view",
            "type": "function"
        },
        {
            "inputs": [],
            "name": "decimals",
            "outputs": [
                {
                    "internalType": "uint8",
                    "name": "",
                    "type": "uint8"
                }
            ],
            "stateMutability": "view",
            "type": "function"
        },
        {
            "inputs": [
                {
                    "internalType": "address",
                    "name": "spender",
                    "type": "address"
                },
                {
                    "internalType": "uint256",
                    "name": "subtractedValue",
                    "type": "uint256"
                }
            ],
            "name": "decreaseAllowance",
            "outputs": [
                {
                    "internalType": "bool",
                    "name": "",
                    "type": "bool"
                }
            ],
            "stateMutability": "nonpayable",
            "type": "function"
        },
        {
            "inputs": [],
            "name": "ggFee",
            "outputs": [
                {
                    "internalType": "uint256",
                    "name": "",
                    "type": "uint256"
                }
            ],
            "stateMutability": "view",
            "type": "function"
        },
        {
            "inputs": [],
            "name": "ggWallet",
            "outputs": [
                {
                    "internalType": "address",
                    "name": "",
                    "type": "address"
                }
            ],
            "stateMutability": "view",
            "type": "function"
        },
        {
            "inputs": [
                {
                    "internalType": "address",
                    "name": "spender",
                    "type": "address"
                },
                {
                    "internalType": "uint256",
                    "name": "addedValue",
                    "type": "uint256"
                }
            ],
            "name": "increaseAllowance",
            "outputs": [
                {
                    "internalType": "bool",
                    "name": "",
                    "type": "bool"
                }
            ],
            "stateMutability": "nonpayable",
            "type": "function"
        },
        {
            "inputs": [],
            "name": "initialize",
            "outputs": [],
            "stateMutability": "nonpayable",
            "type": "function"
        },
        {
            "inputs": [],
            "name": "internalDistributionWallet",
            "outputs": [
                {
                    "internalType": "address",
                    "name": "",
                    "type": "address"
                }
            ],
            "stateMutability": "view",
            "type": "function"
        },
        {
            "inputs": [],
            "name": "liquidityFee",
            "outputs": [
                {
                    "internalType": "uint256",
                    "name": "",
                    "type": "uint256"
                }
            ],
            "stateMutability": "view",
            "type": "function"
        },
        {
            "inputs": [],
            "name": "liquidityWallet",
            "outputs": [
                {
                    "internalType": "address",
                    "name": "",
                    "type": "address"
                }
            ],
            "stateMutability": "view",
            "type": "function"
        },
        {
            "inputs": [],
            "name": "name",
            "outputs": [
                {
                    "internalType": "string",
                    "name": "",
                    "type": "string"
                }
            ],
            "stateMutability": "view",
            "type": "function"
        },
        {
            "inputs": [],
            "name": "owner",
            "outputs": [
                {
                    "internalType": "address",
                    "name": "",
                    "type": "address"
                }
            ],
            "stateMutability": "view",
            "type": "function"
        },
        {
            "inputs": [],
            "name": "pause",
            "outputs": [],
            "stateMutability": "nonpayable",
            "type": "function"
        },
        {
            "inputs": [],
            "name": "paused",
            "outputs": [
                {
                    "internalType": "bool",
                    "name": "",
                    "type": "bool"
                }
            ],
            "stateMutability": "view",
            "type": "function"
        },
        {
            "inputs": [],
            "name": "redistributionFee",
            "outputs": [
                {
                    "internalType": "uint256",
                    "name": "",
                    "type": "uint256"
                }
            ],
            "stateMutability": "view",
            "type": "function"
        },
        {
            "inputs": [],
            "name": "redistributionWallet",
            "outputs": [
                {
                    "internalType": "address",
                    "name": "",
                    "type": "address"
                }
            ],
            "stateMutability": "view",
            "type": "function"
        },
        {
            "inputs": [],
            "name": "snapshot",
            "outputs": [
                {
                    "internalType": "uint256",
                    "name": "",
                    "type": "uint256"
                }
            ],
            "stateMutability": "nonpayable",
            "type": "function"
        },
        {
            "inputs": [],
            "name": "symbol",
            "outputs": [
                {
                    "internalType": "string",
                    "name": "",
                    "type": "string"
                }
            ],
            "stateMutability": "view",
            "type": "function"
        },
        {
            "inputs": [],
            "name": "totalSupply",
            "outputs": [
                {
                    "internalType": "uint256",
                    "name": "",
                    "type": "uint256"
                }
            ],
            "stateMutability": "view",
            "type": "function"
        },
        {
            "inputs": [
                {
                    "internalType": "uint256",
                    "name": "snapshotId",
                    "type": "uint256"
                }
            ],
            "name": "totalSupplyAt",
            "outputs": [
                {
                    "internalType": "uint256",
                    "name": "",
                    "type": "uint256"
                }
            ],
            "stateMutability": "view",
            "type": "function"
        },
        {
            "inputs": [],
            "name": "totalTransactionFee",
            "outputs": [
                {
                    "internalType": "uint256",
                    "name": "",
                    "type": "uint256"
                }
            ],
            "stateMutability": "view",
            "type": "function"
        },
        {
            "inputs": [
                {
                    "internalType": "address",
                    "name": "recipient",
                    "type": "address"
                },
                {
                    "internalType": "uint256",
                    "name": "amount",
                    "type": "uint256"
                }
            ],
            "name": "transfer",
            "outputs": [
                {
                    "internalType": "bool",
                    "name": "",
                    "type": "bool"
                }
            ],
            "stateMutability": "nonpayable",
            "type": "function"
        },
        {
            "inputs": [
                {
                    "internalType": "address",
                    "name": "sender",
                    "type": "address"
                },
                {
                    "internalType": "address",
                    "name": "recipient",
                    "type": "address"
                },
                {
                    "internalType": "uint256",
                    "name": "amount",
                    "type": "uint256"
                }
            ],
            "name": "transferFrom",
            "outputs": [
                {
                    "internalType": "bool",
                    "name": "",
                    "type": "bool"
                }
            ],
            "stateMutability": "nonpayable",
            "type": "function"
        },
        {
            "inputs": [
                {
                    "internalType": "address",
                    "name": "newOwner",
                    "type": "address"
                }
            ],
            "name": "transferOwnership",
            "outputs": [],
            "stateMutability": "nonpayable",
            "type": "function"
        },
        {
            "inputs": [],
            "name": "unpause",
            "outputs": [],
            "stateMutability": "nonpayable",
            "type": "function"
        },
        {
            "inputs": [
                {
                    "internalType": "address",
                    "name": "newImplementation",
                    "type": "address"
                }
            ],
            "name": "upgradeTo",
            "outputs": [],
            "stateMutability": "nonpayable",
            "type": "function"
        },
        {
            "inputs": [
                {
                    "internalType": "address",
                    "name": "newImplementation",
                    "type": "address"
                },
                {
                    "internalType": "bytes",
                    "name": "data",
                    "type": "bytes"
                }
            ],
            "name": "upgradeToAndCall",
            "outputs": [],
            "stateMutability": "payable",
            "type": "function"
        }
    ],
    "bytecode": "608060405234801561001057600080fd5b50612a5e806100206000396000f3fe6080604052600436106102305760003560e01c8063726e78f81161012e57806398118cb4116100ab578063b8ffc30b1161006f578063b8ffc30b1461064d578063d46980161461066d578063dd0180851461068d578063dd62ed3e146106ad578063f2fde38b146106f357600080fd5b806398118cb4146105b7578063981b24d0146105cd578063a39af48f146105ed578063a457c2d71461060d578063a9059cbb1461062d57600080fd5b80638bfbf017116100f25780638bfbf017146105395780638da5cb5b1461054f578063928290b21461056d57806395d89b411461058d5780639711715a146105a257600080fd5b8063726e78f8146104ba5780637ba54f1f146104da5780637cef1918146104fa5780638129fc1c1461050f5780638456cb591461052457600080fd5b806339509351116101bc5780635c975abb116101805780635c975abb14610409578063638552c7146104215780636c25c857146104415780636ebcf6071461045757806370a082311461048457600080fd5b8063395093511461038b5780633f4ba83a146103ab5780634ee2cd7e146103c05780634f1ef286146103e057806359b12d08146103f357600080fd5b806318160ddd1161020357806318160ddd146102ea578063206433611461030957806323b872dd14610329578063313ce567146103495780633659cfe61461036b57600080fd5b806306fdde0314610235578063095ea7b3146102605780630d4a58491461029057806314256322146102c8575b600080fd5b34801561024157600080fd5b5061024a610713565b604051610257919061279e565b60405180910390f35b34801561026c57600080fd5b5061028061027b36600461270d565b6107a5565b6040519015158152602001610257565b34801561029c57600080fd5b5060d4546102b0906001600160a01b031681565b6040516001600160a01b039091168152602001610257565b3480156102d457600080fd5b506102e86102e33660046125c1565b6107bc565b005b3480156102f657600080fd5b50606b545b604051908152602001610257565b34801561031557600080fd5b506102e86103243660046125c1565b61083f565b34801561033557600080fd5b5061028061034436600461260f565b6108b9565b34801561035557600080fd5b50606a5460405160ff9091168152602001610257565b34801561037757600080fd5b506102e86103863660046125c1565b6109b1565b34801561039757600080fd5b506102806103a636600461270d565b6109d8565b3480156103b757600080fd5b506102e8610a14565b3480156103cc57600080fd5b506102fb6103db36600461270d565b610a48565b6102e86103ee36600461264b565b610aa1565b3480156103ff57600080fd5b506102fb60cd5481565b34801561041557600080fd5b5060335460ff16610280565b34801561042d57600080fd5b506102e861043c3660046125c1565b610aba565b34801561044d57600080fd5b506102fb60cc5481565b34801561046357600080fd5b506102fb6104723660046125c1565b60666020526000908152604090205481565b34801561049057600080fd5b506102fb61049f3660046125c1565b6001600160a01b031660009081526066602052604090205490565b3480156104c657600080fd5b5060d1546102b0906001600160a01b031681565b3480156104e657600080fd5b506102e86104f53660046125c1565b610b34565b34801561050657600080fd5b5060d0546102fb565b34801561051b57600080fd5b506102e8610bae565b34801561053057600080fd5b506102e8610c77565b34801561054557600080fd5b506102fb60cf5481565b34801561055b57600080fd5b506065546001600160a01b03166102b0565b34801561057957600080fd5b506102e86105883660046125c1565b610ca9565b34801561059957600080fd5b5061024a610d23565b3480156105ae57600080fd5b506102fb610d32565b3480156105c357600080fd5b506102fb60ce5481565b3480156105d957600080fd5b506102fb6105e8366004612737565b610d6f565b3480156105f957600080fd5b5060d2546102b0906001600160a01b031681565b34801561061957600080fd5b5061028061062836600461270d565b610d9a565b34801561063957600080fd5b5061028061064836600461270d565b610e5a565b34801561065957600080fd5b5060d5546102b0906001600160a01b031681565b34801561067957600080fd5b5060d3546102b0906001600160a01b031681565b34801561069957600080fd5b506102e86106a8366004612750565b610e90565b3480156106b957600080fd5b506102fb6106c83660046125dc565b6001600160a01b03918216600090815260676020908152604080832093909416825291909152205490565b3480156106ff57600080fd5b506102e861070e3660046125c1565b610f6c565b60606068805461072290612964565b80601f016020809104026020016040519081016040528092919081815260200182805461074e90612964565b801561079b5780601f106107705761010080835404028352916020019161079b565b820191906000526020600020905b81548152906001019060200180831161077e57829003601f168201915b5050505050905090565b60006107b2338484610f9f565b5060015b92915050565b6065546001600160a01b031633146107ef5760405162461bcd60e51b81526004016107e690612849565b60405180910390fd5b60d180546001600160a01b03908116600090815260cb6020526040808220805460ff1990811690915584546001600160a01b03191695909316948517909355928352912080549091166001179055565b6065546001600160a01b031633146108695760405162461bcd60e51b81526004016107e690612849565b60d280546001600160a01b03908116600090815260cb6020526040808220805460ff1990811690915584546001600160a01b03191695909316948517909355928352912080549091166001179055565b60006108c760335460ff1690565b156108e45760405162461bcd60e51b81526004016107e6906127d1565b6108ef8484846110c4565b6001600160a01b03841660009081526067602090815260408083203384529091529020548211156109735760405162461bcd60e51b815260206004820152602860248201527f42455032303a207472616e7366657220616d6f756e74206578636565647320616044820152676c6c6f77616e636560c01b60648201526084016107e6565b6001600160a01b0384166000908152606760209081526040808320338085529252909120546109a6918691859003610f9f565b5060015b9392505050565b6109ba81611287565b6109d5816040518060200160405280600081525060006112fa565b50565b3360008181526067602090815260408083206001600160a01b038716845290915281205490916107b2918590610a0f9086906128c4565b610f9f565b6065546001600160a01b03163314610a3e5760405162461bcd60e51b81526004016107e690612849565b610a46611482565b565b6001600160a01b038216600090815260996020526040812081908190610a6f908590611515565b9150915081610a96576001600160a01b038516600090815260666020526040902054610a98565b805b95945050505050565b610aaa82611287565b610ab6828260016112fa565b5050565b6065546001600160a01b03163314610ae45760405162461bcd60e51b81526004016107e690612849565b60d580546001600160a01b03908116600090815260cb6020526040808220805460ff1990811690915584546001600160a01b03191695909316948517909355928352912080549091166001179055565b6065546001600160a01b03163314610b5e5760405162461bcd60e51b81526004016107e690612849565b60d380546001600160a01b03908116600090815260cb6020526040808220805460ff1990811690915584546001600160a01b03191695909316948517909355928352912080549091166001179055565b600054610100900460ff1680610bc7575060005460ff16155b610be35760405162461bcd60e51b81526004016107e6906127fb565b600054610100900460ff16158015610c05576000805461ffff19166101011790555b610c5360405180604001604052806005815260200164476175737360d81b8152506040518060400160405280600481526020016347414e4760e01b81525060096703782dace9d9000061160c565b610c5b61169f565b610c63611709565b80156109d5576000805461ff001916905550565b6065546001600160a01b03163314610ca15760405162461bcd60e51b81526004016107e690612849565b610a466118d8565b6065546001600160a01b03163314610cd35760405162461bcd60e51b81526004016107e690612849565b60d480546001600160a01b03908116600090815260cb6020526040808220805460ff1990811690915584546001600160a01b03191695909316948517909355928352912080549091166001179055565b60606069805461072290612964565b6065546000906001600160a01b03163314610d5f5760405162461bcd60e51b81526004016107e690612849565b6000610d69611930565b91505090565b6000806000610d7f84609a611515565b9150915081610d9057606b54610d92565b805b949350505050565b3360009081526067602090815260408083206001600160a01b03861684529091528120548190610dcb90849061291d565b1015610e275760405162461bcd60e51b815260206004820152602560248201527f42455032303a2064656372656173656420616c6c6f77616e63652062656c6f77604482015264207a65726f60d81b60648201526084016107e6565b3360008181526067602090815260408083206001600160a01b03881684529091529020546107b291908590859003610f9f565b6000610e6860335460ff1690565b15610e855760405162461bcd60e51b81526004016107e6906127d1565b6107b23384846110c4565b6065546001600160a01b03163314610eba5760405162461bcd60e51b81526004016107e690612849565b60008183610ec886886128c4565b610ed291906128c4565b610edc91906128c4565b9050600c811115610f555760405162461bcd60e51b815260206004820152603860248201527f476175737347414e473a205472616e73616374696f6e2066656520656e74657260448201527f65642065786365656473206365696c696e67206f66203132000000000000000060648201526084016107e6565b60cc9490945560cd9290925560ce5560cf5560d055565b6065546001600160a01b03163314610f965760405162461bcd60e51b81526004016107e690612849565b6109d58161198a565b6001600160a01b0383166110015760405162461bcd60e51b8152602060048201526024808201527f42455032303a20617070726f76652066726f6d20746865207a65726f206164646044820152637265737360e01b60648201526084016107e6565b6001600160a01b0382166110625760405162461bcd60e51b815260206004820152602260248201527f42455032303a20617070726f766520746f20746865207a65726f206164647265604482015261737360f01b60648201526084016107e6565b6001600160a01b0383811660008181526067602090815260408083209487168084529482529182902085905590518481527f8c5be1e5ebec7d5bd14f71427d1e84f3dd0314c0f7b2291e5b200ac8c7c3b92591015b60405180910390a3505050565b60335460ff16156110e75760405162461bcd60e51b81526004016107e6906127d1565b6001600160a01b03831661114b5760405162461bcd60e51b815260206004820152602560248201527f42455032303a207472616e736665722066726f6d20746865207a65726f206164604482015264647265737360d81b60648201526084016107e6565b6001600160a01b0382166111ad5760405162461bcd60e51b815260206004820152602360248201527f42455032303a207472616e7366657220746f20746865207a65726f206164647260448201526265737360e81b60648201526084016107e6565b6111b8838383611a4b565b6111c28383611a56565b60011415611277576001600160a01b0383166000908152606660205260409020548111156112025760405162461bcd60e51b81526004016107e69061287e565b6001600160a01b0380841660009081526066602052604080822080548590039055918416815220546112359082906128c4565b6001600160a01b038084166000818152606660205260409081902093909355915190851690600080516020612a09833981519152906110b79085815260200190565b611282838383611aba565b505050565b60335460ff166112d05760405162461bcd60e51b815260206004820152601460248201527314185d5cd8589b194e881b9bdd081c185d5cd95960621b60448201526064016107e6565b6065546001600160a01b031633146109d55760405162461bcd60e51b81526004016107e690612849565b600061132d7f360894a13ba1a3210667c828492db98dca3e2076cc3735a920a3ca505d382bbc546001600160a01b031690565b905061133884611e26565b6000835111806113455750815b15611356576113548484611ecb565b505b7f4910fdfa16fed3260ed0e7147f7cc6da11a60208b5b9406d12a635614ffd9143805460ff1661147b57805460ff191660011781556040516001600160a01b03831660248201526113d590869060440160408051601f198184030181529190526020810180516001600160e01b0316631b2ce7f360e11b179052611ecb565b50805460ff191681557f360894a13ba1a3210667c828492db98dca3e2076cc3735a920a3ca505d382bbc546001600160a01b038381169116146114725760405162461bcd60e51b815260206004820152602f60248201527f45524331393637557067726164653a207570677261646520627265616b73206660448201526e75727468657220757067726164657360881b60648201526084016107e6565b61147b85611ef0565b5050505050565b60335460ff166114cb5760405162461bcd60e51b815260206004820152601460248201527314185d5cd8589b194e881b9bdd081c185d5cd95960621b60448201526064016107e6565b6033805460ff191690557f5db9ee0a495bf2e6ff9c91a7834c1ba4fdd244a5e8aa4e537bd38aeae4b073aa335b6040516001600160a01b03909116815260200160405180910390a1565b600080600084116115615760405162461bcd60e51b815260206004820152601660248201527504552433230536e617073686f743a20696420697320360541b60448201526064016107e6565b611569611f30565b8411156115b85760405162461bcd60e51b815260206004820152601d60248201527f4552433230536e617073686f743a206e6f6e6578697374656e7420696400000060448201526064016107e6565b60006115c48486611f40565b84549091508114156115dd576000809250925050611605565b60018460010182815481106115f4576115f46129b5565b906000526020600020015492509250505b9250929050565b600054610100900460ff1680611625575060005460ff16155b6116415760405162461bcd60e51b81526004016107e6906127fb565b600054610100900460ff16158015611663576000805461ffff19166101011790555b61166b61169f565b611673612003565b61167b61206a565b611687858585856120d1565b801561147b576000805461ff00191690555050505050565b600054610100900460ff16806116b8575060005460ff16155b6116d45760405162461bcd60e51b81526004016107e6906127fb565b600054610100900460ff16158015610c63576000805461ffff191661010117905580156109d5576000805461ff001916905550565b600054610100900460ff1680611722575060005460ff16155b61173e5760405162461bcd60e51b81526004016107e6906127fb565b600054610100900460ff16158015611760576000805461ffff19166101011790555b600360cc81905560cd81905560ce81905560cf55600c60d05560d180546001600160a01b0319908116739c34db8a1467c0f0f152c13db098d7e0ca0ce9181790915560d28054821673765696087d95a84cbfa6feee857570a6eae19a1417905560d380548216733f8c6910124f32aa5546a7103408fa995ab45f6517905560d48054821673206f10f88159590280d46f607af976f6d4d79ce317905560d5805490911673f532651735713e8671fe418124703ab662088c75179055600160cb60006118336065546001600160a01b031690565b6001600160a01b03908116825260208083019390935260409182016000908120805495151560ff1996871617905560d1548216815260cb90935281832080548516600190811790915560d25482168452828420805486168217905560d35482168452828420805486168217905560d45482168452828420805486168217905560d55490911683529120805490921617905580156109d5576000805461ff001916905550565b60335460ff16156118fb5760405162461bcd60e51b81526004016107e6906127d1565b6033805460ff191660011790557f62e78cea01bee320cd4e420270b5ea74000d11b0c9f74754ebdbfc544b05a2586114f83390565b6000611940609c80546001019055565b600061194a611f30565b90507f8030e83b04d87bef53480e26263266d6ca66863aa8506aca6f2559d18aa1cb678160405161197d91815260200190565b60405180910390a1919050565b6001600160a01b0381166119ef5760405162461bcd60e51b815260206004820152602660248201527f4f776e61626c653a206e6577206f776e657220697320746865207a65726f206160448201526564647265737360d01b60648201526084016107e6565b6065546040516001600160a01b038084169216907f8be0079c531659141344cd1fd0a4f28419497f9722a3daafe3b4186f6b6457e090600090a3606580546001600160a01b0319166001600160a01b0392909216919091179055565b6112828383836121ae565b6001600160a01b038216600090815260cb602052604081205460ff16151560011415611a84575060016107b6565b6001600160a01b038216600090815260cb602052604090205460ff16151560011415611ab2575060016107b6565b5060006107b6565b6000606460cc5483611acc91906128fe565b611ad691906128dc565b90506000606460cd5484611aea91906128fe565b611af491906128dc565b90506000606460ce5485611b0891906128fe565b611b1291906128dc565b90506000606460cf5486611b2691906128fe565b611b3091906128dc565b905060008183611b4086886128c4565b611b4a91906128c4565b611b5491906128c4565b611b5e908761291d565b6001600160a01b038916600090815260666020526040902054909150861115611b995760405162461bcd60e51b81526004016107e69061287e565b858110611bff5760405162461bcd60e51b815260206004820152602e60248201527f476175737347414e473a2066696e616c416d6f756e742065786365656473206f60448201526d1c9a59da5b985b08185b5bdd5b9d60921b60648201526084016107e6565b6001600160a01b0380891660009081526066602052604080822080548a9003905591891681522054611c329082906128c4565b6001600160a01b038089166000908152606660205260408082209390935560d15490911681522054611c659086906128c4565b60d1546001600160a01b039081166000908152606660205260408082209390935560d25490911681522054611c9b9085906128c4565b60d2546001600160a01b039081166000908152606660205260408082209390935560d35490911681522054611cd19084906128c4565b60d3546001600160a01b039081166000908152606660205260408082209390935560d45490911681522054611d079083906128c4565b60d4546001600160a01b03908116600090815260666020908152604091829020939093555183815289821692918b1691600080516020612a09833981519152910160405180910390a360d1546040518681526001600160a01b03918216918a1690600080516020612a098339815191529060200160405180910390a360d2546040518581526001600160a01b03918216918a1690600080516020612a098339815191529060200160405180910390a360d3546040518481526001600160a01b03918216918a1690600080516020612a098339815191529060200160405180910390a360d4546040518381526001600160a01b03918216918a1690600080516020612a098339815191529060200160405180910390a35050505050505050565b803b611e8a5760405162461bcd60e51b815260206004820152602d60248201527f455243313936373a206e657720696d706c656d656e746174696f6e206973206e60448201526c1bdd08184818dbdb9d1c9858dd609a1b60648201526084016107e6565b7f360894a13ba1a3210667c828492db98dca3e2076cc3735a920a3ca505d382bbc80546001600160a01b0319166001600160a01b0392909216919091179055565b60606109aa83836040518060600160405280602781526020016129e2602791396121f6565b611ef981611e26565b6040516001600160a01b038216907fbc7cd75a20ee27fd9adebab32041f755214dbc6bffa90cc0225b39da2e5c2d3b90600090a250565b6000611f3b609c5490565b905090565b8154600090611f51575060006107b6565b82546000905b80821015611fad576000611f6b83836122ca565b905084868281548110611f8057611f806129b5565b90600052602060002001541115611f9957809150611fa7565b611fa48160016128c4565b92505b50611f57565b600082118015611fe257508385611fc560018561291d565b81548110611fd557611fd56129b5565b9060005260206000200154145b15611ffb57611ff260018361291d565b925050506107b6565b5090506107b6565b600054610100900460ff168061201c575060005460ff16155b6120385760405162461bcd60e51b81526004016107e6906127fb565b600054610100900460ff1615801561205a576000805461ffff19166101011790555b61206261169f565b610c636122e5565b600054610100900460ff1680612083575060005460ff16155b61209f5760405162461bcd60e51b81526004016107e6906127fb565b600054610100900460ff161580156120c1576000805461ffff19166101011790555b6120c961169f565b610c63612390565b600054610100900460ff16806120ea575060005460ff16155b6121065760405162461bcd60e51b81526004016107e6906127fb565b600054610100900460ff16158015612128576000805461ffff19166101011790555b845161213b906068906020880190612511565b50835161214f906069906020870190612511565b50606a805460ff191660ff8516179055606b82905533600081815260666020908152604080832086905551858152600080516020612a09833981519152910160405180910390a3801561147b576000805461ff00191690555050505050565b6001600160a01b0383166121cd576121c582612405565b611282612438565b6001600160a01b0382166121e4576121c583612405565b6121ed83612405565b61128282612405565b6060833b6122555760405162461bcd60e51b815260206004820152602660248201527f416464726573733a2064656c65676174652063616c6c20746f206e6f6e2d636f6044820152651b9d1c9858dd60d21b60648201526084016107e6565b600080856001600160a01b0316856040516122709190612782565b600060405180830381855af49150503d80600081146122ab576040519150601f19603f3d011682016040523d82523d6000602084013e6122b0565b606091505b50915091506122c0828286612446565b9695505050505050565b60006122d960028484186128dc565b6109aa908484166128c4565b600054610100900460ff16806122fe575060005460ff16155b61231a5760405162461bcd60e51b81526004016107e6906127fb565b600054610100900460ff1615801561233c576000805461ffff19166101011790555b606580546001600160a01b031916339081179091556040516000907f8be0079c531659141344cd1fd0a4f28419497f9722a3daafe3b4186f6b6457e0908290a380156109d5576000805461ff001916905550565b600054610100900460ff16806123a9575060005460ff16155b6123c55760405162461bcd60e51b81526004016107e6906127fb565b600054610100900460ff161580156123e7576000805461ffff19166101011790555b6033805460ff1916905580156109d5576000805461ff001916905550565b6001600160a01b03811660009081526099602090815260408083206066909252909120546109d5919061247f565b61247f565b610a46609a612433606b5490565b606083156124555750816109aa565b8251156124655782518084602001fd5b8160405162461bcd60e51b81526004016107e6919061279e565b6000612489611f30565b905080612495846124c9565b1015611282578254600180820185556000858152602080822090930193909355938401805494850181558252902090910155565b80546000906124da57506000919050565b815482906124ea9060019061291d565b815481106124fa576124fa6129b5565b90600052602060002001549050919050565b919050565b82805461251d90612964565b90600052602060002090601f01602090048101928261253f5760008555612585565b82601f1061255857805160ff1916838001178555612585565b82800160010185558215612585579182015b8281111561258557825182559160200191906001019061256a565b50612591929150612595565b5090565b5b808211156125915760008155600101612596565b80356001600160a01b038116811461250c57600080fd5b6000602082840312156125d357600080fd5b6109aa826125aa565b600080604083850312156125ef57600080fd5b6125f8836125aa565b9150612606602084016125aa565b90509250929050565b60008060006060848603121561262457600080fd5b61262d846125aa565b925061263b602085016125aa565b9150604084013590509250925092565b6000806040838503121561265e57600080fd5b612667836125aa565b9150602083013567ffffffffffffffff8082111561268457600080fd5b818501915085601f83011261269857600080fd5b8135818111156126aa576126aa6129cb565b604051601f8201601f19908116603f011681019083821181831017156126d2576126d26129cb565b816040528281528860208487010111156126eb57600080fd5b8260208601602083013760006020848301015280955050505050509250929050565b6000806040838503121561272057600080fd5b612729836125aa565b946020939093013593505050565b60006020828403121561274957600080fd5b5035919050565b6000806000806080858703121561276657600080fd5b5050823594602084013594506040840135936060013592509050565b60008251612794818460208701612934565b9190910192915050565b60208152600082518060208401526127bd816040850160208701612934565b601f01601f19169190910160400192915050565b60208082526010908201526f14185d5cd8589b194e881c185d5cd95960821b604082015260600190565b6020808252602e908201527f496e697469616c697a61626c653a20636f6e747261637420697320616c72656160408201526d191e481a5b9a5d1a585b1a5e995960921b606082015260800190565b6020808252818101527f4f776e61626c653a2063616c6c6572206973206e6f7420746865206f776e6572604082015260600190565b60208082526026908201527f42455032303a207472616e7366657220616d6f756e7420657863656564732062604082015265616c616e636560d01b606082015260800190565b600082198211156128d7576128d761299f565b500190565b6000826128f957634e487b7160e01b600052601260045260246000fd5b500490565b60008160001904831182151516156129185761291861299f565b500290565b60008282101561292f5761292f61299f565b500390565b60005b8381101561294f578181015183820152602001612937565b8381111561295e576000848401525b50505050565b600181811c9082168061297857607f821691505b6020821081141561299957634e487b7160e01b600052602260045260246000fd5b50919050565b634e487b7160e01b600052601160045260246000fd5b634e487b7160e01b600052603260045260246000fd5b634e487b7160e01b600052604160045260246000fdfe416464726573733a206c6f772d6c6576656c2064656c65676174652063616c6c206661696c6564ddf252ad1be2c89b69c2b068fc378daa952ba7f163c4a11628f55a4df523b3efa2646970667358221220339bb96bdbd6a17e2f53d838cb98778433d6cd34607f58a8d0cdce7c9437607864736f6c63430008070033",
    "sourcePath": "d:/Documents/GitHub/Gauss-GANG-Smart-Contract/contracts/token/GaussGANG.sol",
    "compiler": {
        "name": "solc",
        "version": "0.8.7+commit.e28d00a7"
    },
    "functionHashes": {
        "_balances(address)": "6ebcf607",
        "allowance(address,address)": "dd62ed3e",
        "approve(address,uint256)": "095ea7b3",
        "balanceOf(address)": "70a08231",
        "balanceOfAt(address,uint256)": "4ee2cd7e",
        "changeCharitableWallet(address)": "20643361",
        "changeGaussGangWallet(address)": "928290b2",
        "changeInternalDistributionWallet(address)": "638552c7",
        "changeLiquidityWallet(address)": "7ba54f1f",
        "changeRedistributionWallet(address)": "14256322",
        "changeTransactionFees(uint256,uint256,uint256,uint256)": "dd018085",
        "charitableFundFee()": "59b12d08",
        "charitableFundWallet()": "a39af48f",
        "decimals()": "313ce567",
        "decreaseAllowance(address,uint256)": "a457c2d7",
        "ggFee()": "8bfbf017",
        "ggWallet()": "0d4a5849",
        "increaseAllowance(address,uint256)": "39509351",
        "initialize()": "8129fc1c",
        "internalDistributionWallet()": "b8ffc30b",
        "liquidityFee()": "98118cb4",
        "liquidityWallet()": "d4698016",
        "name()": "06fdde03",
        "owner()": "8da5cb5b",
        "pause()": "8456cb59",
        "paused()": "5c975abb",
        "redistributionFee()": "6c25c857",
        "redistributionWallet()": "726e78f8",
        "snapshot()": "9711715a",
        "symbol()": "95d89b41",
        "totalSupply()": "18160ddd",
        "totalSupplyAt(uint256)": "981b24d0",
        "totalTransactionFee()": "7cef1918",
        "transfer(address,uint256)": "a9059cbb",
        "transferFrom(address,address,uint256)": "23b872dd",
        "transferOwnership(address)": "f2fde38b",
        "unpause()": "3f4ba83a",
        "upgradeTo(address)": "3659cfe6",
        "upgradeToAndCall(address,bytes)": "4f1ef286"
    },
    "gasEstimates": {
        "creation": {
            "codeDepositCost": "2169200",
            "executionCost": "2309",
            "totalCost": "2171509"
        },
        "external": {
            "_balances(address)": "2630",
            "allowance(address,address)": "infinite",
            "approve(address,uint256)": "24667",
            "balanceOf(address)": "2670",
            "balanceOfAt(address,uint256)": "infinite",
            "changeCharitableWallet(address)": "77462",
            "changeGaussGangWallet(address)": "77483",
            "changeInternalDistributionWallet(address)": "77461",
            "changeLiquidityWallet(address)": "77462",
            "changeRedistributionWallet(address)": "77507",
            "changeTransactionFees(uint256,uint256,uint256,uint256)": "infinite",
            "charitableFundFee()": "2429",
            "charitableFundWallet()": "2426",
            "decimals()": "2401",
            "decreaseAllowance(address,uint256)": "29337",
            "ggFee()": "2340",
            "ggWallet()": "2428",
            "increaseAllowance(address,uint256)": "26982",
            "initialize()": "infinite",
            "internalDistributionWallet()": "2381",
            "liquidityFee()": "2340",
            "liquidityWallet()": "2403",
            "name()": "infinite",
            "owner()": "2398",
            "pause()": "29884",
            "paused()": "2349",
            "redistributionFee()": "2384",
            "redistributionWallet()": "2383",
            "snapshot()": "29982",
            "symbol()": "infinite",
            "totalSupply()": "2327",
            "totalSupplyAt(uint256)": "infinite",
            "totalTransactionFee()": "2382",
            "transfer(address,uint256)": "infinite",
            "transferFrom(address,address,uint256)": "infinite",
            "transferOwnership(address)": "30561",
            "unpause()": "29795",
            "upgradeTo(address)": "infinite",
            "upgradeToAndCall(address,bytes)": "infinite"
        },
        "internal": {
            "__GaussGANG_init_unchained()": "infinite",
            "_authorizeUpgrade(address)": "infinite",
            "_beforeTokenTransfer(address,address,uint256)": "infinite",
            "_checkIfExcluded(address,address)": "4492",
            "_transfer(address,address,uint256)": "infinite",
            "_transferWithFee(address,address,uint256)": "infinite"
        }
    }
}