{
    "contractName": "GaussCrowdsale",
    "abi": [
        {
            "inputs": [
                {
                    "internalType": "uint256",
                    "name": "_startTime",
                    "type": "uint256"
                },
                {
                    "internalType": "address",
                    "name": "_gaussAddress",
                    "type": "address"
                },
                {
                    "internalType": "address payable",
                    "name": "_crowdsaleWallet",
                    "type": "address"
                }
            ],
            "stateMutability": "nonpayable",
            "type": "constructor"
        },
        {
            "anonymous": false,
            "inputs": [
                {
                    "indexed": true,
                    "internalType": "address",
                    "name": "previousOwner",
                    "type": "address"
                },
                {
                    "indexed": true,
                    "internalType": "address",
                    "name": "newOwner",
                    "type": "address"
                }
            ],
            "name": "OwnershipTransferred",
            "type": "event"
        },
        {
            "anonymous": false,
            "inputs": [
                {
                    "indexed": true,
                    "internalType": "address",
                    "name": "purchaser",
                    "type": "address"
                },
                {
                    "indexed": true,
                    "internalType": "address",
                    "name": "beneficiary",
                    "type": "address"
                },
                {
                    "indexed": false,
                    "internalType": "uint256",
                    "name": "value",
                    "type": "uint256"
                },
                {
                    "indexed": false,
                    "internalType": "uint256",
                    "name": "amount",
                    "type": "uint256"
                }
            ],
            "name": "TokenPurchase",
            "type": "event"
        },
        {
            "inputs": [
                {
                    "internalType": "address",
                    "name": "_beneficiary",
                    "type": "address"
                }
            ],
            "name": "buyTokens",
            "outputs": [],
            "stateMutability": "payable",
            "type": "function"
        },
        {
            "inputs": [],
            "name": "closeRefundVault",
            "outputs": [],
            "stateMutability": "nonpayable",
            "type": "function"
        },
        {
            "inputs": [],
            "name": "crowdsaleWallet",
            "outputs": [
                {
                    "internalType": "address payable",
                    "name": "",
                    "type": "address"
                }
            ],
            "stateMutability": "view",
            "type": "function"
        },
        {
            "inputs": [],
            "name": "currentStage",
            "outputs": [
                {
                    "internalType": "uint256",
                    "name": "",
                    "type": "uint256"
                }
            ],
            "stateMutability": "view",
            "type": "function"
        },
        {
            "inputs": [],
            "name": "endTime",
            "outputs": [
                {
                    "internalType": "uint256",
                    "name": "",
                    "type": "uint256"
                }
            ],
            "stateMutability": "view",
            "type": "function"
        },
        {
            "inputs": [],
            "name": "finalizeCrowdsale",
            "outputs": [],
            "stateMutability": "nonpayable",
            "type": "function"
        },
        {
            "inputs": [],
            "name": "gaussSold",
            "outputs": [
                {
                    "internalType": "uint256",
                    "name": "",
                    "type": "uint256"
                }
            ],
            "stateMutability": "view",
            "type": "function"
        },
        {
            "inputs": [],
            "name": "issueRefunds",
            "outputs": [],
            "stateMutability": "nonpayable",
            "type": "function"
        },
        {
            "inputs": [],
            "name": "jagerRaised",
            "outputs": [
                {
                    "internalType": "uint256",
                    "name": "",
                    "type": "uint256"
                }
            ],
            "stateMutability": "view",
            "type": "function"
        },
        {
            "inputs": [],
            "name": "owner",
            "outputs": [
                {
                    "internalType": "address",
                    "name": "",
                    "type": "address"
                }
            ],
            "stateMutability": "view",
            "type": "function"
        },
        {
            "inputs": [],
            "name": "startTime",
            "outputs": [
                {
                    "internalType": "uint256",
                    "name": "",
                    "type": "uint256"
                }
            ],
            "stateMutability": "view",
            "type": "function"
        },
        {
            "inputs": [
                {
                    "internalType": "address",
                    "name": "newOwner",
                    "type": "address"
                }
            ],
            "name": "transferOwnership",
            "outputs": [],
            "stateMutability": "nonpayable",
            "type": "function"
        },
        {
            "inputs": [],
            "name": "withdrawTokens",
            "outputs": [],
            "stateMutability": "nonpayable",
            "type": "function"
        },
        {
            "stateMutability": "payable",
            "type": "receive"
        }
    ],
    "bytecode": "61028060405265062f3f95a000608090815265052773859e0060a05265046adbc27a0060c0526503dd87bd840060e05265036fa2591400610100526503179fcad000610120526502cfadf4fe00610140526502939bf56a0061016052650260da256600610180526502358baea2006101a05265020fd3bace006101c0526501eec3dec2006101e0526501d1a94a2000610200526501b7d12c8a00610220526501a088b5a2006102405265018bcfe5680061026052620000c390603790601062000656565b506040805161020081018252620186a081526203d09060208201526207a12091810191909152620b71b06060820152621312d06080820152621e848060a08201526229f63060c0820152623567e060e08201526240d990610100820152624c4b40610120820152625b8d80610140820152626acfc06101608201526289544061018082015262a7d8c06101a082015262c65d406101c082015262e4e1c06101e082015262000176906038906010620006b0565b503480156200018457600080fd5b506040516200235738038062002357833981016040819052620001a79162000730565b42831015620002235760405162461bcd60e51b815260206004820152603960248201527f476175737343726f776473616c653a20737461727454696d652063616e206e6f60448201527f74206265206265666f72652063757272656e742074696d652e0000000000000060648201526084015b60405180910390fd5b6001600160a01b038216620002a15760405162461bcd60e51b815260206004820152603560248201527f476175737343726f776473616c653a206761757373416464726573732063616e60448201527f206e6f74206265205a65726f20416464726573732e000000000000000000000060648201526084016200021a565b6001600160a01b0381166200031f5760405162461bcd60e51b815260206004820152603960248201527f476175737343726f776473616c653a2043726f776473616c652077616c6c657460448201527f2063616e206e6f74206265205a65726f20416464726573732e0000000000000060648201526084016200021a565b603854603754146200033057600080fd5b6200033a62000410565b603f8390556200034e8362278d0062000778565b6040908155603980546001600160a01b038085166001600160a01b03199283168117909355603580549187169190921617905590516200038e90620006f5565b6001600160a01b039091168152602001604051809103906000f080158015620003bb573d6000803e3d6000fd5b50603680546001600160a01b0319166001600160a01b03929092169190911790555050640cce416600603a55506402540be400603b556000603c819055603d819055603e556041805460ff191690556200079f565b600054610100900460ff16806200042a575060005460ff16155b6200047e5760405162461bcd60e51b815260206004820152602e60248201526000805160206200233783398151915260448201526d191e481a5b9a5d1a585b1a5e995960921b60648201526084016200021a565b600054610100900460ff16158015620004a1576000805461ffff19166101011790555b620004ab620004cb565b620004b562000570565b8015620004c8576000805461ff00191690555b50565b600054610100900460ff1680620004e5575060005460ff16155b620005395760405162461bcd60e51b815260206004820152602e60248201526000805160206200233783398151915260448201526d191e481a5b9a5d1a585b1a5e995960921b60648201526084016200021a565b600054610100900460ff16158015620004b5576000805461ffff19166101011790558015620004c8576000805461ff001916905550565b600054610100900460ff16806200058a575060005460ff16155b620005de5760405162461bcd60e51b815260206004820152602e60248201526000805160206200233783398151915260448201526d191e481a5b9a5d1a585b1a5e995960921b60648201526084016200021a565b600054610100900460ff1615801562000601576000805461ffff19166101011790555b603380546001600160a01b031916339081179091556040516000907f8be0079c531659141344cd1fd0a4f28419497f9722a3daafe3b4186f6b6457e0908290a38015620004c8576000805461ff001916905550565b8280548282559060005260206000209081019282156200069e579160200282015b828111156200069e578251829065ffffffffffff1690559160200191906001019062000677565b50620006ac92915062000703565b5090565b8280548282559060005260206000209081019282156200069e579160200282015b828111156200069e578251829062ffffff16905591602001919060010190620006d1565b610c0f806200172883390190565b5b80821115620006ac576000815560010162000704565b6001600160a01b0381168114620004c857600080fd5b6000806000606084860312156200074657600080fd5b8351925060208401516200075a816200071a565b60408501519092506200076d816200071a565b809150509250925092565b600082198211156200079a57634e487b7160e01b600052601160045260246000fd5b500190565b610f7980620007af6000396000f3fe6080604052600436106100c65760003560e01c80635bf5d54c1161007f5780638da5cb5b116100595780638da5cb5b146101d2578063ec8ac4d8146101f0578063ecbed54314610203578063f2fde38b1461021957600080fd5b80635bf5d54c1461019157806378e97925146101a75780638d8f2adb146101bd57600080fd5b80630bf318a3146100db5780633197cbb6146100f05780633537a5bd146101195780633bcce5f61461012f5780634ae0b8311461014457806356ff83c81461015957600080fd5b366100d6576100d433610239565b005b600080fd5b3480156100e757600080fd5b506100d461025c565b3480156100fc57600080fd5b5061010660405481565b6040519081526020015b60405180910390f35b34801561012557600080fd5b50610106603c5481565b34801561013b57600080fd5b506100d46103e8565b34801561015057600080fd5b506100d46104e0565b34801561016557600080fd5b50603954610179906001600160a01b031681565b6040516001600160a01b039091168152602001610110565b34801561019d57600080fd5b50610106603e5481565b3480156101b357600080fd5b50610106603f5481565b3480156101c957600080fd5b506100d461063a565b3480156101de57600080fd5b506033546001600160a01b0316610179565b6100d46101fe366004610e1e565b610239565b34801561020f57600080fd5b50610106603d5481565b34801561022557600080fd5b506100d4610234366004610e1e565b6107a0565b3461024482826107d3565b61024e8282610aac565b6102583334610b7d565b5050565b6033546001600160a01b0316331461028f5760405162461bcd60e51b815260040161028690610e4e565b60405180910390fd5b6035546040516370a0823160e01b81523060048201526000916001600160a01b0316906370a082319060240160206040518083038186803b1580156102d357600080fd5b505afa1580156102e7573d6000803e3d6000fd5b505050506040513d601f19601f8201168201806040525081019061030b9190610e83565b60355460395460405163a9059cbb60e01b81526001600160a01b03918216600482015260248101849052929350169063a9059cbb90604401602060405180830381600087803b15801561035d57600080fd5b505af1158015610371573d6000803e3d6000fd5b505050506040513d601f19601f820116820180604052508101906103959190610e9c565b506041805460ff19166001179055603a5447106103e5576039546040516001600160a01b03909116904780156108fc02916000818181858888f19350505050158015610258573d6000803e3d6000fd5b50565b6033546001600160a01b031633146104125760405162461bcd60e51b815260040161028690610e4e565b603a54603c5410156104765760405162461bcd60e51b815260206004820152602760248201527f43726f776473616c653a206d696e696d756d2073616c6520636170206e6f74206044820152661c995858da195960ca1b6064820152608401610286565b603660009054906101000a90046001600160a01b03166001600160a01b03166318976fa26040518163ffffffff1660e01b8152600401600060405180830381600087803b1580156104c657600080fd5b505af11580156104da573d6000803e3d6000fd5b50505050565b6033546001600160a01b0316331461050a5760405162461bcd60e51b815260040161028690610e4e565b6040544210156105825760405162461bcd60e51b815260206004820152603a60248201527f476175737343726f776473616c653a2063757272656e742074696d652069732060448201527f6265666f72652043726f776473616c6520656e642074696d652e0000000000006064820152608401610286565b603a54603c54106105ea5760405162461bcd60e51b815260206004820152602c60248201527f43726f776473616c653a206d696e696d756d2073616c6520636170206861732060448201526b1899595b881c995858da195960a21b6064820152608401610286565b603660009054906101000a90046001600160a01b03166001600160a01b0316634ae0b8316040518163ffffffff1660e01b8152600401600060405180830381600087803b1580156104c657600080fd5b60415460ff16151560011461069d5760405162461bcd60e51b8152602060048201526024808201527f43726f776473616c653a2073616c6520686173206e6f74206265656e20636c6f60448201526339b2b21760e11b6064820152608401610286565b33600090815260346020526040902054806107095760405162461bcd60e51b815260206004820152602660248201527f43726f776473616c653a2063616e206e6f742077697468647261776c2030206160448201526536b7bab73a1760d11b6064820152608401610286565b3360008181526034602052604080822091909155603554905163a9059cbb60e01b81526004810192909252602482018390526001600160a01b03169063a9059cbb90604401602060405180830381600087803b15801561076857600080fd5b505af115801561077c573d6000803e3d6000fd5b505050506040513d601f19601f820116820180604052508101906102589190610e9c565b6033546001600160a01b031633146107ca5760405162461bcd60e51b815260040161028690610e4e565b6103e581610cef565b603f5442101580156107e757506040544211155b61086a5760405162461bcd60e51b815260206004820152604860248201527f476175737343726f776473616c653a2063757272656e742074696d652069732060448201527f656974686572206265666f7265206f722061667465722043726f776473616c65606482015267103832b934b7b21760c11b608482015260a401610286565b60415460ff16156108c75760405162461bcd60e51b815260206004820152602160248201527f43726f776473616c653a2073616c65206973206e6f206c6f6e676572206f70656044820152603760f91b6064820152608401610286565b6001600160a01b03821661093a5760405162461bcd60e51b815260206004820152603460248201527f476175737343726f776473616c653a2062656e65666963696172792063616e206044820152733737ba103132902d32b9379020b2323932b9b99760611b6064820152608401610286565b806109a55760405162461bcd60e51b815260206004820152603560248201527f476175737343726f776473616c653a20616d6f756e74206f6620424e42206d7560448201527439ba1031329033b932b0ba32b9103a3430b710181760591b6064820152608401610286565b603b54811115610a115760405162461bcd60e51b815260206004820152603160248201527f43726f776473616c653a20616d6f756e74206f6620424e422073656e74206d7560448201527007374206c6f776572207468616e2031303607c1b6064820152608401610286565b603b546001600160a01b038316600090815260346020526040902054610a38908390610ed4565b11156102585760405162461bcd60e51b815260206004820152603d60248201527f43726f776473616c653a20616d6f756e74206f6620424e4220656e746572656460448201527f206578636565647320627579657273207075726368617365206361702e0000006064820152608401610286565b60006305f5e1006037603e5481548110610ac857610ac8610eec565b906000526020600020015483610ade9190610f02565b610ae89190610f21565b6001600160a01b038416600090815260346020526040902054909150610b0f908290610ed4565b6001600160a01b038416600090815260346020526040902055610b328183610db0565b60408051838152602081018390526001600160a01b0385169133917f623b3804fa71d67900d064613da8f94b9617215ee90799290593e1745087ad18910160405180910390a3505050565b603660009054906101000a90046001600160a01b03166001600160a01b0316630c3f6acf6040518163ffffffff1660e01b815260040160206040518083038186803b158015610bcb57600080fd5b505afa158015610bdf573d6000803e3d6000fd5b505050506040513d601f19601f82011682018060405250810190610c039190610e83565b60021415610c4a576039546040516001600160a01b039091169082156108fc029083906000818181858888f19350505050158015610c45573d6000803e3d6000fd5b505050565b6036546040516001600160a01b039091169082156108fc029083906000818181858888f19350505050158015610c84573d6000803e3d6000fd5b506036546040516311f9fbc960e21b81526001600160a01b03848116600483015260248201849052909116906347e7ef2490604401600060405180830381600087803b158015610cd357600080fd5b505af1158015610ce7573d6000803e3d6000fd5b505050505050565b6001600160a01b038116610d545760405162461bcd60e51b815260206004820152602660248201527f4f776e61626c653a206e6577206f776e657220697320746865207a65726f206160448201526564647265737360d01b6064820152608401610286565b6033546040516001600160a01b038084169216907f8be0079c531659141344cd1fd0a4f28419497f9722a3daafe3b4186f6b6457e090600090a3603380546001600160a01b0319166001600160a01b0392909216919091179055565b81603d54610dbe9190610ed4565b603d55603c54610dcf908290610ed4565b603c819055506038603e5481548110610dea57610dea610eec565b9060005260206000200154603d541061025857603854603e54101561025857603e54610e17906001610ed4565b603e555050565b600060208284031215610e3057600080fd5b81356001600160a01b0381168114610e4757600080fd5b9392505050565b6020808252818101527f4f776e61626c653a2063616c6c6572206973206e6f7420746865206f776e6572604082015260600190565b600060208284031215610e9557600080fd5b5051919050565b600060208284031215610eae57600080fd5b81518015158114610e4757600080fd5b634e487b7160e01b600052601160045260246000fd5b60008219821115610ee757610ee7610ebe565b500190565b634e487b7160e01b600052603260045260246000fd5b6000816000190483118215151615610f1c57610f1c610ebe565b500290565b600082610f3e57634e487b7160e01b600052601260045260246000fd5b50049056fea264697066735822122067f27fa3c306b1f2c0309efd1f12a53f358ea2da15ff997ef9363f71482379df64736f6c6343000809003360806040523480156200001157600080fd5b5060405162000c0f38038062000c0f83398101604081905262000034916200031e565b6001600160a01b0381166200009b5760405162461bcd60e51b815260206004820152602260248201527f526566756e645661756c743a20616464726573732063616e206e6f7420626520604482015261181760f11b60648201526084015b60405180910390fd5b620000a5620000d8565b603580546001600160a01b0319166001600160a01b03929092169190911790556033805460ff60a01b1916905562000350565b600054610100900460ff1680620000f2575060005460ff16155b620001465760405162461bcd60e51b815260206004820152602e602482015260008051602062000bef83398151915260448201526d191e481a5b9a5d1a585b1a5e995960921b606482015260840162000092565b600054610100900460ff1615801562000169576000805461ffff19166101011790555b6200017362000193565b6200017d62000238565b801562000190576000805461ff00191690555b50565b600054610100900460ff1680620001ad575060005460ff16155b620002015760405162461bcd60e51b815260206004820152602e602482015260008051602062000bef83398151915260448201526d191e481a5b9a5d1a585b1a5e995960921b606482015260840162000092565b600054610100900460ff161580156200017d576000805461ffff1916610101179055801562000190576000805461ff001916905550565b600054610100900460ff168062000252575060005460ff16155b620002a65760405162461bcd60e51b815260206004820152602e602482015260008051602062000bef83398151915260448201526d191e481a5b9a5d1a585b1a5e995960921b606482015260840162000092565b600054610100900460ff16158015620002c9576000805461ffff19166101011790555b603380546001600160a01b031916339081179091556040516000907f8be0079c531659141344cd1fd0a4f28419497f9722a3daafe3b4186f6b6457e0908290a3801562000190576000805461ff001916905550565b6000602082840312156200033157600080fd5b81516001600160a01b03811681146200034957600080fd5b9392505050565b61088f80620003606000396000f3fe608060405234801561001057600080fd5b50600436106100885760003560e01c806356ff83c81161005b57806356ff83c8146100cd5780638da5cb5b146100f8578063f2aa821814610109578063f2fde38b1461013b57600080fd5b80630c3f6acf1461008d57806318976fa2146100a857806347e7ef24146100b25780634ae0b831146100c5575b600080fd5b61009561014e565b6040519081526020015b60405180910390f35b6100b0610174565b005b6100b06100c036600461071e565b61025c565b6100b0610358565b6035546100e0906001600160a01b031681565b6040516001600160a01b03909116815260200161009f565b6033546001600160a01b03166100e0565b61011c61011736600461074a565b6104d0565b604080516001600160a01b03909316835260208301919091520161009f565b6100b0610149366004610763565b610508565b603354600090600160a01b900460ff16600281111561016f5761016f610787565b905090565b6033546001600160a01b031633146101a75760405162461bcd60e51b815260040161019e9061079d565b60405180910390fd5b6000603354600160a01b900460ff1660028111156101c7576101c7610787565b146101e45760405162461bcd60e51b815260040161019e906107d2565b6035546040516001600160a01b03909116904780156108fc02916000818181858888f1935050505015801561021d573d6000803e3d6000fd5b506033805460ff60a01b1916600160a11b1790556040517fe06452d00b2b58f14a1fa6d499ea982ff93ea827ae700ea9ba03f4daddc94bc190600090a1565b6033546001600160a01b031633146102865760405162461bcd60e51b815260040161019e9061079d565b6000603354600160a01b900460ff1660028111156102a6576102a6610787565b146102c35760405162461bcd60e51b815260040161019e906107d2565b604080518082019091526001600160a01b039283168152602081019182526034805460018101825560009190915290517f46bddb1178e94d7f2892ff5f366840eb658911794f2c3a44c450aa2c505186c1600290920291820180546001600160a01b0319169190941617909255517f46bddb1178e94d7f2892ff5f366840eb658911794f2c3a44c450aa2c505186c290910155565b6033546001600160a01b031633146103825760405162461bcd60e51b815260040161019e9061079d565b6000603354600160a01b900460ff1660028111156103a2576103a2610787565b146103bf5760405162461bcd60e51b815260040161019e906107d2565b6033805460ff60a01b1916600160a01b17905560005b6034548110156104a4576000603482815481106103f4576103f461081a565b906000526020600020906002020160010154116104695760405162461bcd60e51b815260206004820152602d60248201527f526566756e645661756c743a2062656e656669636961727920616d6f756e742060448201526c31b0b7103737ba10313290181760991b606482015260840161019e565b6104926034828154811061047f5761047f61081a565b906000526020600020906002020161053e565b8061049c81610830565b9150506103d5565b506040517f2e4e08eaac7e65c3f2172d02fc1cd29aeb8e1c85e7fd3372f1274c18077532ae90600090a1565b603481815481106104e057600080fd5b6000918252602090912060029091020180546001909101546001600160a01b03909116915082565b6033546001600160a01b031633146105325760405162461bcd60e51b815260040161019e9061079d565b61053b81610648565b50565b6001603354600160a01b900460ff16600281111561055e5761055e610787565b146105bf5760405162461bcd60e51b815260206004820152602b60248201527f526566756e645661756c743a205374617465206e6f742063757272656e746c7960448201526a102932b33ab73234b7339760a91b606482015260840161019e565b805460018201546040516001600160a01b039092169181156108fc0291906000818181858888f193505050501580156105fc573d6000803e3d6000fd5b5060006001820181905581546040519182526001600160a01b0316907fd7dee2702d63ad89917b6a4da9981c90c4d24f8c2bdfd64c604ecae57d8d06519060200160405180910390a250565b6001600160a01b0381166106ad5760405162461bcd60e51b815260206004820152602660248201527f4f776e61626c653a206e6577206f776e657220697320746865207a65726f206160448201526564647265737360d01b606482015260840161019e565b6033546040516001600160a01b038084169216907f8be0079c531659141344cd1fd0a4f28419497f9722a3daafe3b4186f6b6457e090600090a3603380546001600160a01b0319166001600160a01b0392909216919091179055565b6001600160a01b038116811461053b57600080fd5b6000806040838503121561073157600080fd5b823561073c81610709565b946020939093013593505050565b60006020828403121561075c57600080fd5b5035919050565b60006020828403121561077557600080fd5b813561078081610709565b9392505050565b634e487b7160e01b600052602160045260246000fd5b6020808252818101527f4f776e61626c653a2063616c6c6572206973206e6f7420746865206f776e6572604082015260600190565b60208082526028908201527f526566756e645661756c743a205374617465206e6f742063757272656e746c796040820152671030b1ba34bb329760c11b606082015260800190565b634e487b7160e01b600052603260045260246000fd5b600060001982141561085257634e487b7160e01b600052601160045260246000fd5b506001019056fea26469706673582212202fd8210e548e58cf4f02c37a2339ff9e1c26fb7221db68eebb0013827564864264736f6c63430008090033496e697469616c697a61626c653a20636f6e747261637420697320616c726561496e697469616c697a61626c653a20636f6e747261637420697320616c726561",
    "sourcePath": "d:/Documents/GitHub/Gauss-GANG-Smart-Contract/flattenedContracts/GaussCrowdsale.sol",
    "compiler": {
        "name": "solc",
        "version": "0.8.9+commit.e5eed63a"
    },
    "functionHashes": {
        "buyTokens(address)": "ec8ac4d8",
        "closeRefundVault()": "3bcce5f6",
        "crowdsaleWallet()": "56ff83c8",
        "currentStage()": "5bf5d54c",
        "endTime()": "3197cbb6",
        "finalizeCrowdsale()": "0bf318a3",
        "gaussSold()": "ecbed543",
        "issueRefunds()": "4ae0b831",
        "jagerRaised()": "3537a5bd",
        "owner()": "8da5cb5b",
        "startTime()": "78e97925",
        "transferOwnership(address)": "f2fde38b",
        "withdrawTokens()": "8d8f2adb"
    },
    "gasEstimates": {
        "creation": {
            "codeDepositCost": "792200",
            "executionCost": "infinite",
            "totalCost": "infinite"
        },
        "external": {
            "buyTokens(address)": "infinite",
            "closeRefundVault()": "infinite",
            "crowdsaleWallet()": "2448",
            "currentStage()": "2307",
            "endTime()": "2307",
            "finalizeCrowdsale()": "infinite",
            "gaussSold()": "2350",
            "issueRefunds()": "infinite",
            "jagerRaised()": "2329",
            "owner()": "2353",
            "startTime()": "2329",
            "transferOwnership(address)": "30482",
            "withdrawTokens()": "infinite"
        },
        "internal": {
            "_processPurchase(address,uint256)": "infinite",
            "_transferBNB(address payable,uint256)": "infinite",
            "_updatePurchasingState(uint256,uint256)": "infinite",
            "_validatePurchase(address,uint256)": "infinite"
        }
    }
}