{
    "contractName": "GaussVault",
    "abi": [
        {
            "anonymous": false,
            "inputs": [
                {
                    "indexed": false,
                    "internalType": "address",
                    "name": "previousAdmin",
                    "type": "address"
                },
                {
                    "indexed": false,
                    "internalType": "address",
                    "name": "newAdmin",
                    "type": "address"
                }
            ],
            "name": "AdminChanged",
            "type": "event"
        },
        {
            "anonymous": false,
            "inputs": [
                {
                    "indexed": true,
                    "internalType": "address",
                    "name": "beacon",
                    "type": "address"
                }
            ],
            "name": "BeaconUpgraded",
            "type": "event"
        },
        {
            "anonymous": false,
            "inputs": [
                {
                    "indexed": true,
                    "internalType": "address",
                    "name": "previousOwner",
                    "type": "address"
                },
                {
                    "indexed": true,
                    "internalType": "address",
                    "name": "newOwner",
                    "type": "address"
                }
            ],
            "name": "OwnershipTransferred",
            "type": "event"
        },
        {
            "anonymous": false,
            "inputs": [
                {
                    "indexed": true,
                    "internalType": "address",
                    "name": "implementation",
                    "type": "address"
                }
            ],
            "name": "Upgraded",
            "type": "event"
        },
        {
            "anonymous": false,
            "inputs": [
                {
                    "indexed": false,
                    "internalType": "address",
                    "name": "beneficiary",
                    "type": "address"
                },
                {
                    "indexed": false,
                    "internalType": "address",
                    "name": "lockAddress",
                    "type": "address"
                },
                {
                    "indexed": false,
                    "internalType": "uint256",
                    "name": "initialAmount",
                    "type": "uint256"
                }
            ],
            "name": "VestingCreated",
            "type": "event"
        },
        {
            "inputs": [],
            "name": "beneficiaryVestingAddresses",
            "outputs": [
                {
                    "internalType": "address[]",
                    "name": "",
                    "type": "address[]"
                }
            ],
            "stateMutability": "view",
            "type": "function"
        },
        {
            "inputs": [
                {
                    "internalType": "address",
                    "name": "gaussGANGAddress",
                    "type": "address"
                }
            ],
            "name": "initialize",
            "outputs": [],
            "stateMutability": "nonpayable",
            "type": "function"
        },
        {
            "inputs": [],
            "name": "lockGaussVault",
            "outputs": [],
            "stateMutability": "nonpayable",
            "type": "function"
        },
        {
            "inputs": [],
            "name": "owner",
            "outputs": [
                {
                    "internalType": "address",
                    "name": "",
                    "type": "address"
                }
            ],
            "stateMutability": "view",
            "type": "function"
        },
        {
            "inputs": [],
            "name": "releaseAvailableTokens",
            "outputs": [],
            "stateMutability": "nonpayable",
            "type": "function"
        },
        {
            "inputs": [
                {
                    "internalType": "address",
                    "name": "sender",
                    "type": "address"
                },
                {
                    "internalType": "address",
                    "name": "beneficiary",
                    "type": "address"
                },
                {
                    "internalType": "uint256",
                    "name": "amount",
                    "type": "uint256"
                },
                {
                    "internalType": "uint256[]",
                    "name": "amountsList",
                    "type": "uint256[]"
                },
                {
                    "internalType": "uint256[]",
                    "name": "lockTimes",
                    "type": "uint256[]"
                }
            ],
            "name": "scheduledVesting",
            "outputs": [
                {
                    "internalType": "address",
                    "name": "",
                    "type": "address"
                }
            ],
            "stateMutability": "nonpayable",
            "type": "function"
        },
        {
            "inputs": [],
            "name": "showReleaseTimes",
            "outputs": [
                {
                    "internalType": "address[]",
                    "name": "",
                    "type": "address[]"
                },
                {
                    "internalType": "uint256[]",
                    "name": "",
                    "type": "uint256[]"
                }
            ],
            "stateMutability": "view",
            "type": "function"
        },
        {
            "inputs": [
                {
                    "internalType": "address",
                    "name": "newOwner",
                    "type": "address"
                }
            ],
            "name": "transferOwnership",
            "outputs": [],
            "stateMutability": "nonpayable",
            "type": "function"
        },
        {
            "inputs": [
                {
                    "internalType": "address",
                    "name": "newImplementation",
                    "type": "address"
                }
            ],
            "name": "upgradeTo",
            "outputs": [],
            "stateMutability": "nonpayable",
            "type": "function"
        },
        {
            "inputs": [
                {
                    "internalType": "address",
                    "name": "newImplementation",
                    "type": "address"
                },
                {
                    "internalType": "bytes",
                    "name": "data",
                    "type": "bytes"
                }
            ],
            "name": "upgradeToAndCall",
            "outputs": [],
            "stateMutability": "payable",
            "type": "function"
        },
        {
            "inputs": [
                {
                    "internalType": "address",
                    "name": "sender",
                    "type": "address"
                },
                {
                    "internalType": "address",
                    "name": "beneficiary",
                    "type": "address"
                },
                {
                    "internalType": "uint256",
                    "name": "amount",
                    "type": "uint256"
                },
                {
                    "internalType": "uint256",
                    "name": "releaseTime",
                    "type": "uint256"
                }
            ],
            "name": "vestTokens",
            "outputs": [
                {
                    "internalType": "address",
                    "name": "",
                    "type": "address"
                }
            ],
            "stateMutability": "nonpayable",
            "type": "function"
        },
        {
            "inputs": [],
            "name": "vestingContractAddresses",
            "outputs": [
                {
                    "internalType": "address[]",
                    "name": "",
                    "type": "address[]"
                }
            ],
            "stateMutability": "view",
            "type": "function"
        }
    ],
    "bytecode": "60a06040523060805234801561001457600080fd5b50608051614275610045600039600081816109cf01528181610a1201528181610aa40152610ae701526142756000f3fe608060405260043610620000b55760003560e01c8063ae073cc7116200006c578063ae073cc714620001ac578063be92c1c814620001d3578063c4d66de814620001eb578063e5e093961462000210578063f2fde38b1462000228578063f82d5c35146200024d57600080fd5b806310d05f8e14620000ba578063161dcaa414620000eb5780633659cfe614620001295780634f1ef28614620001505780638da5cb5b14620001675780639af097491462000187575b600080fd5b348015620000c757600080fd5b50620000d262000265565b604051620000e292919062002e23565b60405180910390f35b348015620000f857600080fd5b50620001106200010a36600462002e6b565b6200066a565b6040516001600160a01b039091168152602001620000e2565b3480156200013657600080fd5b506200014e6200014836600462002eb6565b620009c4565b005b6200014e6200016136600462002f1f565b62000a99565b3480156200017457600080fd5b506033546001600160a01b031662000110565b3480156200019457600080fd5b5062000110620001a63660046200304e565b62000b5f565b348015620001b957600080fd5b50620001c462000f31565b604051620000e29190620030eb565b348015620001e057600080fd5b506200014e6200116f565b348015620001f857600080fd5b506200014e6200020a36600462002eb6565b6200121e565b3480156200021d57600080fd5b506200014e620012af565b3480156200023557600080fd5b506200014e6200024736600462002eb6565b6200155a565b3480156200025a57600080fd5b50620001c462001592565b60675460665460609182916000916200027e9162003116565b90506000816001600160401b038111156200029d576200029d62002ed6565b604051908082528060200260200182016040528015620002c7578160200160208202803683370190505b5090506000826001600160401b03811115620002e757620002e762002ed6565b60405190808252806020026020018201604052801562000311578160200160208202803683370190505b50905060005b838110156200065f57606654811015620004bd576066818154811062000341576200034162003131565b6000918252602091829020015460408051633dad37ed60e21b815290516001600160a01b039092169263f6b4dfb492600480840193829003018186803b1580156200038b57600080fd5b505afa158015620003a0573d6000803e3d6000fd5b505050506040513d601f19601f82011682018060405250810190620003c6919062003147565b838281518110620003db57620003db62003131565b60200260200101906001600160a01b031690816001600160a01b0316815250506066818154811062000411576200041162003131565b600091825260209182902001546040805163b91d400160e01b815290516001600160a01b039092169263b91d400192600480840193829003018186803b1580156200045b57600080fd5b505afa15801562000470573d6000803e3d6000fd5b505050506040513d601f19601f8201168201806040525081019062000496919062003167565b828281518110620004ab57620004ab62003131565b6020026020010181815250506200064a565b60678181548110620004d357620004d362003131565b6000918252602091829020015460408051633dad37ed60e21b815290516001600160a01b039092169263f6b4dfb492600480840193829003018186803b1580156200051d57600080fd5b505afa15801562000532573d6000803e3d6000fd5b505050506040513d601f19601f8201168201806040525081019062000558919062003147565b8382815181106200056d576200056d62003131565b60200260200101906001600160a01b031690816001600160a01b03168152505060678181548110620005a357620005a362003131565b600091825260209182902001546040805163b91d400160e01b815290516001600160a01b039092169263b91d400192600480840193829003018186803b158015620005ed57600080fd5b505afa15801562000602573d6000803e3d6000fd5b505050506040513d601f19601f8201168201806040525081019062000628919062003167565b8282815181106200063d576200063d62003131565b6020026020010181815250505b80620006568162003181565b91505062000317565b509094909350915050565b6033546000906001600160a01b03163314620006a35760405162461bcd60e51b81526004016200069a906200319f565b60405180910390fd5b6069546040516000916001600160a01b0316908790879087908790620006c99062002d8f565b6001600160a01b03958616815293851660208501529390911660408301526060820152608081019190915260a001604051809103906000f08015801562000714573d6000803e3d6000fd5b509050606960009054906101000a90046001600160a01b03166001600160a01b031663a9059cbb826001600160a01b031663f6b4dfb46040518163ffffffff1660e01b815260040160206040518083038186803b1580156200077557600080fd5b505afa1580156200078a573d6000803e3d6000fd5b505050506040513d601f19601f82011682018060405250810190620007b0919062003147565b6040516001600160e01b031960e084901b1681526001600160a01b03909116600482015260248101879052604401602060405180830381600087803b158015620007f957600080fd5b505af11580156200080e573d6000803e3d6000fd5b505050506040513d601f19601f82011682018060405250810190620008349190620031d4565b50606680546001810182556000919091527f46501879b8ca8525e8c2fd519e2fbfcfa2ebea26501294aa02cbfcfb12e943540180546001600160a01b0319166001600160a01b03831690811790915560408051633dad37ed60e21b815290517fd5ad48d673f889adad7b73dab2d50040ef22dd8dec91b284bc5a8bc724f3ffb0928892909163f6b4dfb491600480820192602092909190829003018186803b158015620008e057600080fd5b505afa158015620008f5573d6000803e3d6000fd5b505050506040513d601f19601f820116820180604052508101906200091b919062003147565b604080516001600160a01b039384168152929091166020830152810186905260600160405180910390a1806001600160a01b031663f6b4dfb46040518163ffffffff1660e01b815260040160206040518083038186803b1580156200097f57600080fd5b505afa15801562000994573d6000803e3d6000fd5b505050506040513d601f19601f82011682018060405250810190620009ba919062003147565b9695505050505050565b306001600160a01b037f000000000000000000000000000000000000000000000000000000000000000016141562000a105760405162461bcd60e51b81526004016200069a90620031f8565b7f00000000000000000000000000000000000000000000000000000000000000006001600160a01b031662000a44620017c9565b6001600160a01b03161462000a6d5760405162461bcd60e51b81526004016200069a9062003244565b62000a7881620017f7565b6040805160008082526020820190925262000a969183919062001824565b50565b306001600160a01b037f000000000000000000000000000000000000000000000000000000000000000016141562000ae55760405162461bcd60e51b81526004016200069a90620031f8565b7f00000000000000000000000000000000000000000000000000000000000000006001600160a01b031662000b19620017c9565b6001600160a01b03161462000b425760405162461bcd60e51b81526004016200069a9062003244565b62000b4d82620017f7565b62000b5b8282600162001824565b5050565b6033546000906001600160a01b0316331462000b8f5760405162461bcd60e51b81526004016200069a906200319f565b815183511462000c275760405162461bcd60e51b815260206004820152605660248201527f7363686564756c656456657374696e6728293a20616d6f756e74734c6973742060448201527f616e64206c6f636b54696d657320646f206e6f7420636f6e7461696e74207468606482015275652073616d65206e756d626572206f66206974656d7360501b608482015260a4016200069a565b6000606960009054906101000a90046001600160a01b0316878787878760405162000c529062002d9d565b62000c639695949392919062003290565b604051809103906000f08015801562000c80573d6000803e3d6000fd5b509050606960009054906101000a90046001600160a01b03166001600160a01b031663a9059cbb826001600160a01b031663f6b4dfb46040518163ffffffff1660e01b815260040160206040518083038186803b15801562000ce157600080fd5b505afa15801562000cf6573d6000803e3d6000fd5b505050506040513d601f19601f8201168201806040525081019062000d1c919062003147565b6040516001600160e01b031960e084901b1681526001600160a01b03909116600482015260248101889052604401602060405180830381600087803b15801562000d6557600080fd5b505af115801562000d7a573d6000803e3d6000fd5b505050506040513d601f19601f8201168201806040525081019062000da09190620031d4565b50606780546001810182556000919091527f9787eeb91fe3101235e4a76063c7023ecb40f923f97916639c598592fa30d6ae0180546001600160a01b0319166001600160a01b03831690811790915560408051633dad37ed60e21b815290517fd5ad48d673f889adad7b73dab2d50040ef22dd8dec91b284bc5a8bc724f3ffb0928992909163f6b4dfb491600480820192602092909190829003018186803b15801562000e4c57600080fd5b505afa15801562000e61573d6000803e3d6000fd5b505050506040513d601f19601f8201168201806040525081019062000e87919062003147565b604080516001600160a01b039384168152929091166020830152810187905260600160405180910390a1806001600160a01b031663f6b4dfb46040518163ffffffff1660e01b815260040160206040518083038186803b15801562000eeb57600080fd5b505afa15801562000f00573d6000803e3d6000fd5b505050506040513d601f19601f8201168201806040525081019062000f26919062003147565b979650505050505050565b60675460665460609160009162000f49919062003116565b90506000816001600160401b0381111562000f685762000f6862002ed6565b60405190808252806020026020018201604052801562000f92578160200160208202803683370190505b50905060005b82811015620011685760665481101562001082576066818154811062000fc25762000fc262003131565b60009182526020918290200154604080516338af3eed60e01b815290516001600160a01b03909216926338af3eed92600480840193829003018186803b1580156200100c57600080fd5b505afa15801562001021573d6000803e3d6000fd5b505050506040513d601f19601f8201168201806040525081019062001047919062003147565b8282815181106200105c576200105c62003131565b60200260200101906001600160a01b031690816001600160a01b03168152505062001153565b6067818154811062001098576200109862003131565b60009182526020918290200154604080516338af3eed60e01b815290516001600160a01b03909216926338af3eed92600480840193829003018186803b158015620010e257600080fd5b505afa158015620010f7573d6000803e3d6000fd5b505050506040513d601f19601f820116820180604052508101906200111d919062003147565b82828151811062001132576200113262003131565b60200260200101906001600160a01b031690816001600160a01b0316815250505b806200115f8162003181565b91505062000f98565b5092915050565b6033546001600160a01b031633146200119c5760405162461bcd60e51b81526004016200069a906200319f565b606954600160a01b900460ff166200121c57620011b862001980565b620011c262001bb1565b620011cc62001d1c565b620011d662001f0b565b620011e06200207f565b620011ea620021d0565b620011f462002344565b620011fe620024b8565b620012086200262c565b6069805460ff60a01b1916600160a01b1790555b565b600054610100900460ff168062001238575060005460ff16155b620012575760405162461bcd60e51b81526004016200069a90620032ee565b600054610100900460ff161580156200127a576000805461ffff19166101011790555b620012846200276e565b6200128e620027f3565b620012998262002863565b801562000b5b576000805461ff00191690555050565b6033546001600160a01b03163314620012dc5760405162461bcd60e51b81526004016200069a906200319f565b606754606654600091620012f09162003116565b905060005b8181101562000b5b576066548110156200142a57606681815481106200131f576200131f62003131565b600091825260209182902001546040805163b91d400160e01b815290516001600160a01b039092169263b91d400192600480840193829003018186803b1580156200136957600080fd5b505afa1580156200137e573d6000803e3d6000fd5b505050506040513d601f19601f82011682018060405250810190620013a4919062003167565b4210620014245760668181548110620013c157620013c162003131565b6000918252602082200154604080516386d1a69f60e01b815290516001600160a01b03909216926386d1a69f9260048084019382900301818387803b1580156200140a57600080fd5b505af11580156200141f573d6000803e3d6000fd5b505050505b62001545565b6067818154811062001440576200144062003131565b600091825260209182902001546040805163b91d400160e01b815290516001600160a01b039092169263b91d400192600480840193829003018186803b1580156200148a57600080fd5b505afa1580156200149f573d6000803e3d6000fd5b505050506040513d601f19601f82011682018060405250810190620014c5919062003167565b4210620015455760678181548110620014e257620014e262003131565b6000918252602082200154604080516386d1a69f60e01b815290516001600160a01b03909216926386d1a69f9260048084019382900301818387803b1580156200152b57600080fd5b505af115801562001540573d6000803e3d6000fd5b505050505b80620015518162003181565b915050620012f5565b6033546001600160a01b03163314620015875760405162461bcd60e51b81526004016200069a906200319f565b62000a968162002987565b606754606654606091600091620015aa919062003116565b90506000816001600160401b03811115620015c957620015c962002ed6565b604051908082528060200260200182016040528015620015f3578160200160208202803683370190505b50905060005b828110156200116857606654811015620016e3576066818154811062001623576200162362003131565b6000918252602091829020015460408051633dad37ed60e21b815290516001600160a01b039092169263f6b4dfb492600480840193829003018186803b1580156200166d57600080fd5b505afa15801562001682573d6000803e3d6000fd5b505050506040513d601f19601f82011682018060405250810190620016a8919062003147565b828281518110620016bd57620016bd62003131565b60200260200101906001600160a01b031690816001600160a01b031681525050620017b4565b60678181548110620016f957620016f962003131565b6000918252602091829020015460408051633dad37ed60e21b815290516001600160a01b039092169263f6b4dfb492600480840193829003018186803b1580156200174357600080fd5b505afa15801562001758573d6000803e3d6000fd5b505050506040513d601f19601f820116820180604052508101906200177e919062003147565b82828151811062001793576200179362003131565b60200260200101906001600160a01b031690816001600160a01b0316815250505b80620017c08162003181565b915050620015f9565b7f360894a13ba1a3210667c828492db98dca3e2076cc3735a920a3ca505d382bbc546001600160a01b031690565b6033546001600160a01b0316331462000a965760405162461bcd60e51b81526004016200069a906200319f565b600062001830620017c9565b90506200183d8462002a4a565b6000835111806200184b5750815b156200185f576200185d848462002af1565b505b7f4910fdfa16fed3260ed0e7147f7cc6da11a60208b5b9406d12a635614ffd9143805460ff166200197957805460ff191660011781556040516001600160a01b0383166024820152620018e190869060440160408051601f198184030181529190526020810180516001600160e01b0316631b2ce7f360e11b17905262002af1565b50805460ff19168155620018f4620017c9565b6001600160a01b0316826001600160a01b0316146200196e5760405162461bcd60e51b815260206004820152602f60248201527f45524331393637557067726164653a207570677261646520627265616b73206660448201526e75727468657220757067726164657360881b60648201526084016200069a565b620019798562002be7565b5050505050565b606a54734249b05e707feea3fb034071c66e5a227c230c2f90600090620019ac906306b49d206200333c565b6040805160198082526103408201909252919250906000908260208201610320803683370190505090506000826001600160401b03811115620019f357620019f362002ed6565b60405190808252806020026020018201604052801562001a1d578160200160208202803683370190505b50905060005b8381101562001b0b578062001a6c57606a5462001a459063017d78406200333c565b83828151811062001a5a5762001a5a62003131565b60200260200101818152505062001af6565b6001811015801562001a7f575060068111155b1562001a9757606a5462001a4590621312d06200333c565b6007811015801562001aaa575060178111155b1562001ac257606a5462001a45906243d11c6200333c565b606a5462001ad4906243d1246200333c565b83828151811062001ae95762001ae962003131565b6020026020010181815250505b8062001b028162003181565b91505062001a23565b5060005b8381101562001b8d578062001b4757600182828151811062001b355762001b3562003131565b60200260200101818152505062001b78565b62001b568162278d006200333c565b82828151811062001b6b5762001b6b62003131565b6020026020010181815250505b8062001b848162003181565b91505062001b0f565b5060685462001ba9906001600160a01b03168686858562000b5f565b505050505050565b606a547317ca40c901af4c31ed9f5d961b16ded9a47155059060009062001bdd906301312d006200333c565b60408051600280825260608201835292935060009183906020830190803683370190505090506000826001600160401b0381111562001c205762001c2062002ed6565b60405190808252806020026020018201604052801562001c4a578160200160208202803683370190505b509050606a546298968062001c6091906200333c565b8260008151811062001c765762001c7662003131565b6020908102919091010152606a5462001c9390629896806200333c565b8260018151811062001ca95762001ca962003131565b602002602001018181525050629e34008160008151811062001ccf5762001ccf62003131565b60200260200101818152505063013c68008160018151811062001cf65762001cf662003131565b602090810291909101015260685462001ba9906001600160a01b03168686858562000b5f565b606a54737d74e237825eba9f4b026555f17ecacb2b0d78fe9060009062001d479062e4e1c06200333c565b6040805160138082526102808201909252919250906000908260208201610260803683370190505090506000826001600160401b0381111562001d8e5762001d8e62002ed6565b60405190808252806020026020018201604052801562001db8578160200160208202803683370190505b50905060005b8381101562001e7a578062001e0657606a5462001ddf906210f4476200333c565b83828151811062001df45762001df462003131565b60200260200101818152505062001e65565b6001811015801562001e19575060118111155b1562001e3157606a5462001ddf90620bc6156200333c565b606a5462001e4390620bc6146200333c565b83828151811062001e585762001e5862003131565b6020026020010181815250505b8062001e718162003181565b91505062001dbe565b5060005b8381101562001b8d578062001eb657600182828151811062001ea45762001ea462003131565b60200260200101818152505062001ef6565b62001ec58162278d006200333c565b62001ed49062c5c10062003116565b82828151811062001ee95762001ee962003131565b6020026020010181815250505b8062001f028162003181565b91505062001e7e565b606a54733e3049a80590baf63b6ac8d74f5cbb31584059bb9060009062001f369062632ea06200333c565b6040805160198082526103408201909252919250906000908260208201610320803683370190505090506000826001600160401b0381111562001f7d5762001f7d62002ed6565b60405190808252806020026020018201604052801562001fa7578160200160208202803683370190505b50905060005b8381101562001ffd57606a5462001fc8906203f7a06200333c565b83828151811062001fdd5762001fdd62003131565b60209081029190910101528062001ff48162003181565b91505062001fad565b5060005b8381101562001b8d57806200203957600182828151811062002027576200202762003131565b6020026020010181815250506200206a565b620020488162278d006200333c565b8282815181106200205d576200205d62003131565b6020026020010181815250505b80620020768162003181565b91505062002001565b606a5473747dde9cb0b8b86ef1d221077055ee9ec4e70b8990600090620020ab9063017d78406200333c565b60408051600480825260a082019092529192509060009082602082016080803683370190505090506000826001600160401b03811115620020f057620020f062002ed6565b6040519080825280602002602001820160405280156200211a578160200160208202803683370190505b50905060005b838110156200217057606a546200213b90625f5e106200333c565b83828151811062002150576200215062003131565b602090810291909101015280620021678162003181565b91505062002120565b5060005b8381101562001b8d576200218c8162c5c1006200333c565b6200219b9062c5c10062003116565b828281518110620021b057620021b062003131565b602090810291909101015280620021c78162003181565b91505062002174565b606a547346cee8f5f3e30af7b62374249907fb97563262f590600090620021fb9062e4e1c06200333c565b6040805160198082526103408201909252919250906000908260208201610320803683370190505090506000826001600160401b0381111562002242576200224262002ed6565b6040519080825280602002602001820160405280156200226c578160200160208202803683370190505b50905060005b83811015620022c257606a546200228d90620927c06200333c565b838281518110620022a257620022a262003131565b602090810291909101015280620022b98162003181565b91505062002272565b5060005b8381101562001b8d5780620022fe576001828281518110620022ec57620022ec62003131565b6020026020010181815250506200232f565b6200230d8162278d006200333c565b82828151811062002322576200232262003131565b6020026020010181815250505b806200233b8162003181565b915050620022c6565b606a5473f9f41bd5c7b6cf9a3c6e13846035005331ed940e906000906200236f9062e4e1c06200333c565b6040805160198082526103408201909252919250906000908260208201610320803683370190505090506000826001600160401b03811115620023b657620023b662002ed6565b604051908082528060200260200182016040528015620023e0578160200160208202803683370190505b50905060005b838110156200243657606a546200240190620927c06200333c565b83828151811062002416576200241662003131565b6020908102919091010152806200242d8162003181565b915050620023e6565b5060005b8381101562001b8d57806200247257600182828151811062002460576200246062003131565b602002602001018181525050620024a3565b620024818162278d006200333c565b82828151811062002496576200249662003131565b6020026020010181815250505b80620024af8162003181565b9150506200243a565b606a5473e3778db10a5e8b2bd1b68038f2cefa835aa46b4590600090620024e39062bebc206200333c565b6040805160198082526103408201909252919250906000908260208201610320803683370190505090506000826001600160401b038111156200252a576200252a62002ed6565b60405190808252806020026020018201604052801562002554578160200160208202803683370190505b50905060005b83811015620025aa57606a5462002575906207a1206200333c565b8382815181106200258a576200258a62003131565b602090810291909101015280620025a18162003181565b9150506200255a565b5060005b8381101562001b8d5780620025e6576001828281518110620025d457620025d462003131565b60200260200101818152505062002617565b620025f58162278d006200333c565b8282815181106200260a576200260a62003131565b6020026020010181815250505b80620026238162003181565b915050620025ae565b606a5473f02fd116eefb47e394721356b36d3350972cc0c79060009062002658906301b2e0206200333c565b60408051600680825260e0820190925291925090600090826020820160c0803683370190505090506000826001600160401b038111156200269d576200269d62002ed6565b604051908082528060200260200182016040528015620026c7578160200160208202803683370190505b50905060005b838110156200271d57606a54620026e89062487ab06200333c565b838281518110620026fd57620026fd62003131565b602090810291909101015280620027148162003181565b915050620026cd565b5060005b8381101562001b8d576200273981629e34006200333c565b8282815181106200274e576200274e62003131565b602090810291909101015280620027658162003181565b91505062002721565b600054610100900460ff168062002788575060005460ff16155b620027a75760405162461bcd60e51b81526004016200069a90620032ee565b600054610100900460ff16158015620027ca576000805461ffff19166101011790555b620027d462002c29565b620027de62002c99565b801562000a96576000805461ff001916905550565b600054610100900460ff16806200280d575060005460ff16155b6200282c5760405162461bcd60e51b81526004016200069a90620032ee565b600054610100900460ff161580156200284f576000805461ffff19166101011790555b6200285962002c29565b620027de62002c29565b600054610100900460ff16806200287d575060005460ff16155b6200289c5760405162461bcd60e51b81526004016200069a90620032ee565b600054610100900460ff16158015620028bf576000805461ffff19166101011790555b606880546001600160a01b03191630179055606980546001600160a81b0319166001600160a01b0384169081179091556040805163313ce56760e01b8152905163313ce56791600480820192602092909190829003018186803b1580156200292657600080fd5b505afa1580156200293b573d6000803e3d6000fd5b505050506040513d601f19601f820116820180604052508101906200296191906200335e565b6200296e90600a62003480565b606a55801562000b5b576000805461ff00191690555050565b6001600160a01b038116620029ee5760405162461bcd60e51b815260206004820152602660248201527f4f776e61626c653a206e6577206f776e657220697320746865207a65726f206160448201526564647265737360d01b60648201526084016200069a565b6033546040516001600160a01b038084169216907f8be0079c531659141344cd1fd0a4f28419497f9722a3daafe3b4186f6b6457e090600090a3603380546001600160a01b0319166001600160a01b0392909216919091179055565b803b62002ab05760405162461bcd60e51b815260206004820152602d60248201527f455243313936373a206e657720696d706c656d656e746174696f6e206973206e60448201526c1bdd08184818dbdb9d1c9858dd609a1b60648201526084016200069a565b7f360894a13ba1a3210667c828492db98dca3e2076cc3735a920a3ca505d382bbc80546001600160a01b0319166001600160a01b0392909216919091179055565b6060823b62002b525760405162461bcd60e51b815260206004820152602660248201527f416464726573733a2064656c65676174652063616c6c20746f206e6f6e2d636f6044820152651b9d1c9858dd60d21b60648201526084016200069a565b600080846001600160a01b03168460405162002b6f9190620034c4565b600060405180830381855af49150503d806000811462002bac576040519150601f19603f3d011682016040523d82523d6000602084013e62002bb1565b606091505b509150915062002bdc8282604051806060016040528060278152602001620042196027913962002d4a565b925050505b92915050565b62002bf28162002a4a565b6040516001600160a01b038216907fbc7cd75a20ee27fd9adebab32041f755214dbc6bffa90cc0225b39da2e5c2d3b90600090a250565b600054610100900460ff168062002c43575060005460ff16155b62002c625760405162461bcd60e51b81526004016200069a90620032ee565b600054610100900460ff16158015620027de576000805461ffff1916610101179055801562000a96576000805461ff001916905550565b600054610100900460ff168062002cb3575060005460ff16155b62002cd25760405162461bcd60e51b81526004016200069a90620032ee565b600054610100900460ff1615801562002cf5576000805461ffff19166101011790555b603380546001600160a01b031916339081179091556040516000907f8be0079c531659141344cd1fd0a4f28419497f9722a3daafe3b4186f6b6457e0908290a3801562000a96576000805461ff001916905550565b6060831562002d5b57508162002d88565b82511562002d6c5782518084602001fd5b8160405162461bcd60e51b81526004016200069a9190620034e2565b9392505050565b610575806200351883390190565b61078c8062003a8d83390190565b600081518084526020808501945080840160005b8381101562002de65781516001600160a01b03168752958201959082019060010162002dbf565b509495945050505050565b600081518084526020808501945080840160005b8381101562002de65781518752958201959082019060010162002e05565b60408152600062002e38604083018562002dab565b828103602084015262002e4c818562002df1565b95945050505050565b6001600160a01b038116811462000a9657600080fd5b6000806000806080858703121562002e8257600080fd5b843562002e8f8162002e55565b9350602085013562002ea18162002e55565b93969395505050506040820135916060013590565b60006020828403121562002ec957600080fd5b813562002d888162002e55565b634e487b7160e01b600052604160045260246000fd5b604051601f8201601f191681016001600160401b038111828210171562002f175762002f1762002ed6565b604052919050565b6000806040838503121562002f3357600080fd5b823562002f408162002e55565b91506020838101356001600160401b038082111562002f5e57600080fd5b818601915086601f83011262002f7357600080fd5b81358181111562002f885762002f8862002ed6565b62002f9c601f8201601f1916850162002eec565b9150808252878482850101111562002fb357600080fd5b80848401858401376000848284010152508093505050509250929050565b600082601f83011262002fe357600080fd5b813560206001600160401b0382111562003001576200300162002ed6565b8160051b6200301282820162002eec565b92835284810182019282810190878511156200302d57600080fd5b83870192505b8483101562000f265782358252918301919083019062003033565b600080600080600060a086880312156200306757600080fd5b8535620030748162002e55565b94506020860135620030868162002e55565b93506040860135925060608601356001600160401b0380821115620030aa57600080fd5b620030b889838a0162002fd1565b93506080880135915080821115620030cf57600080fd5b50620030de8882890162002fd1565b9150509295509295909350565b60208152600062002d88602083018462002dab565b634e487b7160e01b600052601160045260246000fd5b600082198211156200312c576200312c62003100565b500190565b634e487b7160e01b600052603260045260246000fd5b6000602082840312156200315a57600080fd5b815162002d888162002e55565b6000602082840312156200317a57600080fd5b5051919050565b600060001982141562003198576200319862003100565b5060010190565b6020808252818101527f4f776e61626c653a2063616c6c6572206973206e6f7420746865206f776e6572604082015260600190565b600060208284031215620031e757600080fd5b8151801515811462002d8857600080fd5b6020808252602c908201527f46756e6374696f6e206d7573742062652063616c6c6564207468726f7567682060408201526b19195b1959d85d1958d85b1b60a21b606082015260800190565b6020808252602c908201527f46756e6374696f6e206d7573742062652063616c6c6564207468726f7567682060408201526b6163746976652070726f787960a01b606082015260800190565b6001600160a01b0387811682528681166020830152851660408201526060810184905260c060808201819052600090620032cd9083018562002df1565b82810360a0840152620032e1818562002df1565b9998505050505050505050565b6020808252602e908201527f496e697469616c697a61626c653a20636f6e747261637420697320616c72656160408201526d191e481a5b9a5d1a585b1a5e995960921b606082015260800190565b600081600019048311821515161562003359576200335962003100565b500290565b6000602082840312156200337157600080fd5b815160ff8116811462002d8857600080fd5b600181815b80851115620033c4578160001904821115620033a857620033a862003100565b80851615620033b657918102915b93841c939080029062003388565b509250929050565b600082620033dd5750600162002be1565b81620033ec5750600062002be1565b8160018114620034055760028114620034105762003430565b600191505062002be1565b60ff84111562003424576200342462003100565b50506001821b62002be1565b5060208310610133831016604e8410600b841016171562003455575081810a62002be1565b62003461838362003383565b806000190482111562003478576200347862003100565b029392505050565b600062002d8860ff841683620033cc565b60005b83811015620034ae57818101518382015260200162003494565b83811115620034be576000848401525b50505050565b60008251620034d881846020870162003491565b9190910192915050565b60208152600082518060208401526200350381604085016020870162003491565b601f01601f1916919091016040019291505056fe61010060405234801561001157600080fd5b506040516105753803806105758339810160408190526100309161007e565b6001600160a01b0380861660805284811660a052831660c052603382905561005881426100dc565b60e052506101029350505050565b6001600160a01b038116811461007b57600080fd5b50565b600080600080600060a0868803121561009657600080fd5b85516100a181610066565b60208701519095506100b281610066565b60408701519094506100c381610066565b6060870151608090970151959894975095949392505050565b600082198211156100fd57634e487b7160e01b600052601160045260246000fd5b500190565b60805160a05160c05160e051610420610155600039600081816101050152610157015260008181608401526103000152600060c3015260008181610131015281816101e501526102d101526104206000f3fe608060405234801561001057600080fd5b506004361061007d5760003560e01c806386d1a69f1161005b57806386d1a69f146100f9578063b91d400114610103578063f6b4dfb414610129578063fc0c546a1461012f57600080fd5b806338af3eed1461008257806367e404ce146100c15780636ab28bc8146100e7575b600080fd5b7f00000000000000000000000000000000000000000000000000000000000000005b6040516001600160a01b0390911681526020015b60405180910390f35b7f00000000000000000000000000000000000000000000000000000000000000006100a4565b6033545b6040519081526020016100b8565b610101610155565b005b7f00000000000000000000000000000000000000000000000000000000000000006100eb565b306100a4565b7f00000000000000000000000000000000000000000000000000000000000000006100a4565b7f00000000000000000000000000000000000000000000000000000000000000004210156101e15760405162461bcd60e51b815260206004820152602e60248201527f546f6b656e4c6f636b3a2072656c656173652074696d65206973206265666f7260448201526d652063757272656e742074696d6560901b60648201526084015b60405180910390fd5b60007f00000000000000000000000000000000000000000000000000000000000000006040516370a0823160e01b81523060048201526001600160a01b0391909116906370a082319060240160206040518083038186803b15801561024557600080fd5b505afa158015610259573d6000803e3d6000fd5b505050506040513d601f19601f8201168201806040525081019061027d91906103a8565b9050600081116102cf5760405162461bcd60e51b815260206004820152601f60248201527f546f6b656e4c6f636b3a206e6f20746f6b656e7320746f2072656c656173650060448201526064016101d8565b7f00000000000000000000000000000000000000000000000000000000000000006001600160a01b031663a9059cbb7f00000000000000000000000000000000000000000000000000000000000000006040516001600160e01b031960e084901b1681526001600160a01b03909116600482015260248101849052604401602060405180830381600087803b15801561036757600080fd5b505af115801561037b573d6000803e3d6000fd5b505050506040513d601f19601f8201168201806040525081019061039f91906103c1565b50506000603355565b6000602082840312156103ba57600080fd5b5051919050565b6000602082840312156103d357600080fd5b815180151581146103e357600080fd5b939250505056fea2646970667358221220bceeb4626e3cb74a195c5e657469440f663a35fac7950e2e41604747753f9b1964736f6c6343000809003360e0604052600060355534801561001557600080fd5b5060405161078c38038061078c833981016040819052610034916101e0565b6001600160a01b0380871660805285811660a052841660c052603483905581516100659060369060208501906100b8565b5080516100799060379060208401906100b8565b50426038556037805460009061009157610091610286565b90600052602060002001546038546100a9919061029c565b603355506102c2945050505050565b8280548282559060005260206000209081019282156100f3579160200282015b828111156100f35782518255916020019190600101906100d8565b506100ff929150610103565b5090565b5b808211156100ff5760008155600101610104565b6001600160a01b038116811461012d57600080fd5b50565b634e487b7160e01b600052604160045260246000fd5b600082601f83011261015757600080fd5b815160206001600160401b038083111561017357610173610130565b8260051b604051601f19603f8301168101818110848211171561019857610198610130565b6040529384528581018301938381019250878511156101b657600080fd5b83870191505b848210156101d5578151835291830191908301906101bc565b979650505050505050565b60008060008060008060c087890312156101f957600080fd5b865161020481610118565b602088015190965061021581610118565b604088015190955061022681610118565b6060880151608089015191955093506001600160401b038082111561024a57600080fd5b6102568a838b01610146565b935060a089015191508082111561026c57600080fd5b5061027989828a01610146565b9150509295509295509295565b634e487b7160e01b600052603260045260246000fd5b600082198211156102bd57634e487b7160e01b600052601160045260246000fd5b500190565b60805160a05160c05161048f6102fd60003960008181608401526102d30152600060c301526000818161011301526102a4015261048f6000f3fe608060405234801561001057600080fd5b506004361061007d5760003560e01c806386d1a69f1161005b57806386d1a69f146100f9578063b91d400114610103578063f6b4dfb41461010b578063fc0c546a1461011157600080fd5b806338af3eed1461008257806367e404ce146100c15780636ab28bc8146100e7575b600080fd5b7f00000000000000000000000000000000000000000000000000000000000000005b6040516001600160a01b0390911681526020015b60405180910390f35b7f00000000000000000000000000000000000000000000000000000000000000006100a4565b6034545b6040519081526020016100b8565b610101610137565b005b6033546100eb565b306100a4565b7f00000000000000000000000000000000000000000000000000000000000000006100a4565b6000603454116101a55760405162461bcd60e51b815260206004820152602e60248201527f5363686564756c6564546f6b656e4c6f636b3a206e6f20746f6b656e73206c6560448201526d199d081a5b8818dbdb9d1c9858dd60921b60648201526084015b60405180910390fd5b60335442101561021d5760405162461bcd60e51b815260206004820152603760248201527f5363686564756c6564546f6b656e4c6f636b3a2072656c656173652074696d6560448201527f206973206265666f72652063757272656e742074696d65000000000000000000606482015260840161019c565b6000603660355481548110610234576102346103d5565b90600052602060002001549050600081116102a25760405162461bcd60e51b815260206004820152602860248201527f5363686564756c6564546f6b656e4c6f636b3a206e6f20746f6b656e7320746f6044820152672072656c6561736560c01b606482015260840161019c565b7f00000000000000000000000000000000000000000000000000000000000000006001600160a01b031663a9059cbb7f00000000000000000000000000000000000000000000000000000000000000006040516001600160e01b031960e084901b1681526001600160a01b03909116600482015260248101849052604401602060405180830381600087803b15801561033a57600080fd5b505af115801561034e573d6000803e3d6000fd5b505050506040513d601f19601f8201168201806040525081019061037291906103eb565b5060355461038190600161042a565b603555603454610392908290610442565b60345560375460355410156103d2576037603554815481106103b6576103b66103d5565b90600052602060002001546038546103ce919061042a565b6033555b50565b634e487b7160e01b600052603260045260246000fd5b6000602082840312156103fd57600080fd5b8151801515811461040d57600080fd5b9392505050565b634e487b7160e01b600052601160045260246000fd5b6000821982111561043d5761043d610414565b500190565b60008282101561045457610454610414565b50039056fea26469706673582212204bc7c322c167d2849e17e4268e9b289fef4a0d199ba2f721a9c87b0277af220864736f6c63430008090033416464726573733a206c6f772d6c6576656c2064656c65676174652063616c6c206661696c6564a26469706673582212201cd76ac6b3017abf3675daec8b0979e7e4985f754b61764677e56ff9731bd05a64736f6c63430008090033",
    "sourcePath": "d:/Documents/GitHub/Gauss-GANG-Smart-Contract/flattenedContracts/GaussVault.sol",
    "compiler": {
        "name": "solc",
        "version": "0.8.9+commit.e5eed63a"
    },
    "functionHashes": {
        "beneficiaryVestingAddresses()": "ae073cc7",
        "initialize(address)": "c4d66de8",
        "lockGaussVault()": "be92c1c8",
        "owner()": "8da5cb5b",
        "releaseAvailableTokens()": "e5e09396",
        "scheduledVesting(address,address,uint256,uint256[],uint256[])": "9af09749",
        "showReleaseTimes()": "10d05f8e",
        "transferOwnership(address)": "f2fde38b",
        "upgradeTo(address)": "3659cfe6",
        "upgradeToAndCall(address,bytes)": "4f1ef286",
        "vestTokens(address,address,uint256,uint256)": "161dcaa4",
        "vestingContractAddresses()": "f82d5c35"
    },
    "gasEstimates": {
        "creation": {
            "codeDepositCost": "3402600",
            "executionCost": "infinite",
            "totalCost": "infinite"
        },
        "external": {
            "beneficiaryVestingAddresses()": "infinite",
            "initialize(address)": "infinite",
            "lockGaussVault()": "infinite",
            "owner()": "2420",
            "releaseAvailableTokens()": "infinite",
            "scheduledVesting(address,address,uint256,uint256[],uint256[])": "infinite",
            "showReleaseTimes()": "infinite",
            "transferOwnership(address)": "infinite",
            "upgradeTo(address)": "infinite",
            "upgradeToAndCall(address,bytes)": "infinite",
            "vestTokens(address,address,uint256,uint256)": "infinite",
            "vestingContractAddresses()": "infinite"
        },
        "internal": {
            "__GaussVault_init_unchained(address)": "infinite",
            "_authorizeUpgrade(address)": "infinite",
            "_lockAdvisorTokens()": "infinite",
            "_lockCharitableFundTokens()": "infinite",
            "_lockCommunityTokens()": "infinite",
            "_lockCoreTeamTokens()": "infinite",
            "_lockLiquidityTokens()": "infinite",
            "_lockMarketingTokens()": "infinite",
            "_lockOpsDevTokens()": "infinite",
            "_lockReserveTokens()": "infinite",
            "_lockVestingIncentiveTokens()": "infinite"
        }
    }
}