{
    "contractName": "GaussCrowdsale",
    "abi": [
        {
            "inputs": [
                {
                    "internalType": "uint256",
                    "name": "_startTime",
                    "type": "uint256"
                },
                {
                    "internalType": "address",
                    "name": "_gaussAddress",
                    "type": "address"
                },
                {
                    "internalType": "address payable",
                    "name": "_crowdsaleWallet",
                    "type": "address"
                }
            ],
            "stateMutability": "payable",
            "type": "constructor"
        },
        {
            "anonymous": false,
            "inputs": [
                {
                    "indexed": true,
                    "internalType": "address",
                    "name": "previousOwner",
                    "type": "address"
                },
                {
                    "indexed": true,
                    "internalType": "address",
                    "name": "newOwner",
                    "type": "address"
                }
            ],
            "name": "OwnershipTransferred",
            "type": "event"
        },
        {
            "anonymous": false,
            "inputs": [
                {
                    "indexed": true,
                    "internalType": "address",
                    "name": "purchaser",
                    "type": "address"
                },
                {
                    "indexed": true,
                    "internalType": "address",
                    "name": "beneficiary",
                    "type": "address"
                },
                {
                    "indexed": false,
                    "internalType": "uint256",
                    "name": "value",
                    "type": "uint256"
                },
                {
                    "indexed": false,
                    "internalType": "uint256",
                    "name": "amount",
                    "type": "uint256"
                }
            ],
            "name": "TokenPurchase",
            "type": "event"
        },
        {
            "inputs": [],
            "name": "allowWithdrawals",
            "outputs": [],
            "stateMutability": "nonpayable",
            "type": "function"
        },
        {
            "inputs": [
                {
                    "internalType": "address payable",
                    "name": "_beneficiary",
                    "type": "address"
                }
            ],
            "name": "buyTokens",
            "outputs": [],
            "stateMutability": "payable",
            "type": "function"
        },
        {
            "inputs": [],
            "name": "closeCrowdsale",
            "outputs": [],
            "stateMutability": "nonpayable",
            "type": "function"
        },
        {
            "inputs": [],
            "name": "crowdsaleWallet",
            "outputs": [
                {
                    "internalType": "address payable",
                    "name": "",
                    "type": "address"
                }
            ],
            "stateMutability": "view",
            "type": "function"
        },
        {
            "inputs": [],
            "name": "currentStage",
            "outputs": [
                {
                    "internalType": "uint256",
                    "name": "",
                    "type": "uint256"
                }
            ],
            "stateMutability": "view",
            "type": "function"
        },
        {
            "inputs": [],
            "name": "endTime",
            "outputs": [
                {
                    "internalType": "uint256",
                    "name": "",
                    "type": "uint256"
                }
            ],
            "stateMutability": "view",
            "type": "function"
        },
        {
            "inputs": [],
            "name": "finalizeCrowdsale",
            "outputs": [],
            "stateMutability": "nonpayable",
            "type": "function"
        },
        {
            "inputs": [],
            "name": "gaussSold",
            "outputs": [
                {
                    "internalType": "uint256",
                    "name": "",
                    "type": "uint256"
                }
            ],
            "stateMutability": "view",
            "type": "function"
        },
        {
            "inputs": [],
            "name": "getReceipts",
            "outputs": [
                {
                    "internalType": "address[]",
                    "name": "",
                    "type": "address[]"
                },
                {
                    "internalType": "uint256[]",
                    "name": "",
                    "type": "uint256[]"
                },
                {
                    "internalType": "uint256[]",
                    "name": "",
                    "type": "uint256[]"
                }
            ],
            "stateMutability": "view",
            "type": "function"
        },
        {
            "inputs": [],
            "name": "jagerRaised",
            "outputs": [
                {
                    "internalType": "uint256",
                    "name": "",
                    "type": "uint256"
                }
            ],
            "stateMutability": "view",
            "type": "function"
        },
        {
            "inputs": [],
            "name": "owner",
            "outputs": [
                {
                    "internalType": "address",
                    "name": "",
                    "type": "address"
                }
            ],
            "stateMutability": "view",
            "type": "function"
        },
        {
            "inputs": [],
            "name": "releaseTokens",
            "outputs": [],
            "stateMutability": "nonpayable",
            "type": "function"
        },
        {
            "inputs": [],
            "name": "startTime",
            "outputs": [
                {
                    "internalType": "uint256",
                    "name": "",
                    "type": "uint256"
                }
            ],
            "stateMutability": "view",
            "type": "function"
        },
        {
            "inputs": [
                {
                    "internalType": "address",
                    "name": "newOwner",
                    "type": "address"
                }
            ],
            "name": "transferOwnership",
            "outputs": [],
            "stateMutability": "nonpayable",
            "type": "function"
        },
        {
            "inputs": [
                {
                    "internalType": "address payable[]",
                    "name": "wallets",
                    "type": "address[]"
                },
                {
                    "internalType": "uint256[]",
                    "name": "tokenAmounts",
                    "type": "uint256[]"
                }
            ],
            "name": "updateBalances",
            "outputs": [],
            "stateMutability": "nonpayable",
            "type": "function"
        },
        {
            "inputs": [],
            "name": "withdrawTokens",
            "outputs": [],
            "stateMutability": "nonpayable",
            "type": "function"
        },
        {
            "stateMutability": "payable",
            "type": "receive"
        }
    ],
    "bytecode": "61028060405265062f3f95a000608090815265052773859e0060a05265046adbc27a0060c0526503dd87bd840060e05265036fa2591400610100526503179fcad000610120526502cfadf4fe00610140526502939bf56a0061016052650260da256600610180526502358baea2006101a05265020fd3bace006101c0526501eec3dec2006101e0526501d1a94a2000610200526501b7d12c8a00610220526501a088b5a2006102405265018bcfe5680061026052620000c390603790601062000624565b506040805161020081018252655af3107a4000815265e35fa931a00060208201526601c6bf52634000918101919091526602aa1efb94e0006060820152660470de4df82000608082015266071afd498d000060a08201526609c51c4521e00060c0820152660c6f3b40b6c00060e0820152660f195a3c4ba0006101008201526611c37937e08000610120820152661550f7dca700006101408201526618de76816d8000610160820152661ff973cafa800061018082015266271471148780006101a0820152662e2f6e5e1480006101c082015266354a6ba7a180006101e0820152620001b49060389060106200067e565b5060405162001f1d38038062001f1d833981016040819052620001d791620006f4565b42831015620002535760405162461bcd60e51b815260206004820152603960248201527f476175737343726f776473616c653a20737461727454696d652063616e206e6f60448201527f74206265206265666f72652063757272656e742074696d652e0000000000000060648201526084015b60405180910390fd5b6001600160a01b038216620002d15760405162461bcd60e51b815260206004820152603560248201527f476175737343726f776473616c653a206761757373416464726573732063616e60448201527f206e6f74206265205a65726f20416464726573732e000000000000000000000060648201526084016200024a565b6001600160a01b0381166200034f5760405162461bcd60e51b815260206004820152603960248201527f476175737343726f776473616c653a2043726f776473616c652077616c6c657460448201527f2063616e206e6f74206265205a65726f20416464726573732e0000000000000060648201526084016200024a565b603854603754146200036057600080fd5b6200036a620003de565b603e8390556200037e8362375f006200073c565b603f55603980546001600160a01b039283166001600160a01b031991821617909155603680549390921692169190911790555068056bc75e2d63100000603a556000603b819055603c819055603d556040805461ffff1916905562000763565b600054610100900460ff1680620003f8575060005460ff16155b6200044c5760405162461bcd60e51b815260206004820152602e602482015260008051602062001efd83398151915260448201526d191e481a5b9a5d1a585b1a5e995960921b60648201526084016200024a565b600054610100900460ff161580156200046f576000805461ffff19166101011790555b6200047962000499565b620004836200053e565b801562000496576000805461ff00191690555b50565b600054610100900460ff1680620004b3575060005460ff16155b620005075760405162461bcd60e51b815260206004820152602e602482015260008051602062001efd83398151915260448201526d191e481a5b9a5d1a585b1a5e995960921b60648201526084016200024a565b600054610100900460ff1615801562000483576000805461ffff1916610101179055801562000496576000805461ff001916905550565b600054610100900460ff168062000558575060005460ff16155b620005ac5760405162461bcd60e51b815260206004820152602e602482015260008051602062001efd83398151915260448201526d191e481a5b9a5d1a585b1a5e995960921b60648201526084016200024a565b600054610100900460ff16158015620005cf576000805461ffff19166101011790555b603380546001600160a01b031916339081179091556040516000907f8be0079c531659141344cd1fd0a4f28419497f9722a3daafe3b4186f6b6457e0908290a3801562000496576000805461ff001916905550565b8280548282559060005260206000209081019282156200066c579160200282015b828111156200066c578251829065ffffffffffff1690559160200191906001019062000645565b506200067a929150620006c7565b5090565b8280548282559060005260206000209081019282156200066c579160200282015b828111156200066c578251829066ffffffffffffff169055916020019190600101906200069f565b5b808211156200067a5760008155600101620006c8565b6001600160a01b03811681146200049657600080fd5b6000806000606084860312156200070a57600080fd5b8351925060208401516200071e81620006de565b60408501519092506200073181620006de565b809150509250925092565b600082198211156200075e57634e487b7160e01b600052601160045260246000fd5b500190565b61178a80620007736000396000f3fe6080604052600436106100f75760003560e01c806385f0f0981161008a578063a96f866811610059578063a96f86681461027a578063ec8ac4d81461028f578063ecbed543146102a2578063f2fde38b146102b857600080fd5b806385f0f0981461021d5780638d8f2adb146102325780638da5cb5b14610247578063983c0a011461026557600080fd5b806356ff83c8116100c657806356ff83c8146101955780635bf5d54c146101cd57806378597522146101e357806378e979251461020757600080fd5b80630bf318a3146101215780633197cbb6146101365780633537a5bd1461015f578063413589431461017557600080fd5b3661011c576033546001600160a01b031633141561011157005b61011a336102d8565b005b600080fd5b34801561012d57600080fd5b5061011a6102f1565b34801561014257600080fd5b5061014c603f5481565b6040519081526020015b60405180910390f35b34801561016b57600080fd5b5061014c603b5481565b34801561018157600080fd5b5061011a610190366004611454565b610470565b3480156101a157600080fd5b506039546101b5906001600160a01b031681565b6040516001600160a01b039091168152602001610156565b3480156101d957600080fd5b5061014c603d5481565b3480156101ef57600080fd5b506101f86105f2565b60405161015693929190611551565b34801561021357600080fd5b5061014c603e5481565b34801561022957600080fd5b5061011a610885565b34801561023e57600080fd5b5061011a6108c0565b34801561025357600080fd5b506033546001600160a01b03166101b5565b34801561027157600080fd5b5061011a610af0565b34801561028657600080fd5b5061011a610b29565b61011a61029d3660046115c6565b6102d8565b3480156102ae57600080fd5b5061014c603c5481565b3480156102c457600080fd5b5061011a6102d33660046115c6565b610ce9565b346102e38282610d1c565b6102ed8282610fe6565b5050565b6033546001600160a01b031633146103245760405162461bcd60e51b815260040161031b906115ea565b60405180910390fd5b6036546040516370a0823160e01b81523060048201526000916001600160a01b0316906370a082319060240160206040518083038186803b15801561036857600080fd5b505afa15801561037c573d6000803e3d6000fd5b505050506040513d601f19601f820116820180604052508101906103a0919061161f565b60365460395460405163a9059cbb60e01b81526001600160a01b03918216600482015260248101849052929350169063a9059cbb90604401602060405180830381600087803b1580156103f257600080fd5b505af1158015610406573d6000803e3d6000fd5b505050506040513d601f19601f8201168201806040525081019061042a9190611638565b506039546040516001600160a01b03909116904780156108fc02916000818181858888f19350505050158015610464573d6000803e3d6000fd5b5061046d610af0565b50565b6033546001600160a01b0316331461049a5760405162461bcd60e51b815260040161031b906115ea565b60405460ff1615156001146104c15760405162461bcd60e51b815260040161031b9061165a565b80518251146104cf57600080fd5b60005b825181101561058a5760405180604001604052808483815181106104f8576104f861169e565b60200260200101516001600160a01b031681526020018383815181106105205761052061169e565b60200260200101518152506035828154811061053e5761053e61169e565b600091825260209182902083516002929092020180546001600160a01b0319166001600160a01b0390921691909117815591015160019091015580610582816116ca565b9150506104d2565b5060005b6035548110156105ed57825181106105db5760358054806105b1576105b16116e5565b60008281526020812060026000199093019283020180546001600160a01b03191681556001015590555b806105e5816116ca565b91505061058e565b505050565b603354606090819081906001600160a01b031633146106235760405162461bcd60e51b815260040161031b906115ea565b60006035805480602002602001604051908101604052809291908181526020016000905b8282101561068f576000848152602090819020604080518082019091526002850290910180546001600160a01b03168252600190810154828401529083529092019101610647565b5050505090506000815167ffffffffffffffff8111156106b1576106b1611369565b6040519080825280602002602001820160405280156106da578160200160208202803683370190505b5090506000825167ffffffffffffffff8111156106f9576106f9611369565b604051908082528060200260200182016040528015610722578160200160208202803683370190505b5090506000835167ffffffffffffffff81111561074157610741611369565b60405190808252806020026020018201604052801561076a578160200160208202803683370190505b50905060005b84518110156108775784818151811061078b5761078b61169e565b6020026020010151600001518482815181106107a9576107a961169e565b60200260200101906001600160a01b031690816001600160a01b031681525050603460008683815181106107df576107df61169e565b6020026020010151600001516001600160a01b03166001600160a01b031681526020019081526020016000205483828151811061081e5761081e61169e565b60200260200101818152505084818151811061083c5761083c61169e565b60200260200101516020015182828151811061085a5761085a61169e565b60209081029190910101528061086f816116ca565b915050610770565b509195509350915050909192565b6033546001600160a01b031633146108af5760405162461bcd60e51b815260040161031b906115ea565b6040805461ff001916610100179055565b60405460ff1615156001146108e75760405162461bcd60e51b815260040161031b9061165a565b60405460ff61010090910416151560011461095d5760405162461bcd60e51b815260206004820152603060248201527f43726f776473616c653a207769746864726177616c732068617665206e6f742060448201526f3132b2b71030baba3437b934bd32b21760811b606482015260840161031b565b6000805b6035548110156102ed57336001600160a01b0316603582815481106109885761098861169e565b60009182526020909120600290910201546001600160a01b03161415610ade57603581815481106109bb576109bb61169e565b906000526020600020906002020160010154915060008211610a2e5760405162461bcd60e51b815260206004820152602660248201527f43726f776473616c653a2063616e206e6f742077697468647261776c2030206160448201526536b7bab73a1760d11b606482015260840161031b565b60365460405163a9059cbb60e01b8152336004820152602481018490526001600160a01b039091169063a9059cbb90604401602060405180830381600087803b158015610a7a57600080fd5b505af1158015610a8e573d6000803e3d6000fd5b505050506040513d601f19601f82011682018060405250810190610ab29190611638565b50600060358281548110610ac857610ac861169e565b9060005260206000209060020201600101819055505b80610ae8816116ca565b915050610961565b6033546001600160a01b03163314610b1a5760405162461bcd60e51b815260040161031b906115ea565b6040805460ff19166001179055565b6033546001600160a01b03163314610b535760405162461bcd60e51b815260040161031b906115ea565b60405460ff161515600114610b7a5760405162461bcd60e51b815260040161031b9061165a565b60006035805480602002602001604051908101604052809291908181526020016000905b82821015610be6576000848152602090819020604080518082019091526002850290910180546001600160a01b03168252600190810154828401529083529092019101610b9e565b50505050905060005b81518110156102ed5760365482516001600160a01b039091169063a9059cbb90849084908110610c2157610c2161169e565b602002602001015160000151848481518110610c3f57610c3f61169e565b6020026020010151602001516040518363ffffffff1660e01b8152600401610c7c9291906001600160a01b03929092168252602082015260400190565b602060405180830381600087803b158015610c9657600080fd5b505af1158015610caa573d6000803e3d6000fd5b505050506040513d601f19601f82011682018060405250810190610cce9190611638565b610cd757600080fd5b80610ce1816116ca565b915050610bef565b6033546001600160a01b03163314610d135760405162461bcd60e51b815260040161031b906115ea565b61046d81611226565b603e544210158015610d305750603f544211155b610dae5760405162461bcd60e51b815260206004820152604360248201527f43726f776473616c653a2063757272656e742074696d6520697320656974686560448201527f72206265666f7265206f722061667465722043726f776473616c65207065726960648201526237b21760e91b608482015260a40161031b565b60405460ff1615610e0b5760405162461bcd60e51b815260206004820152602160248201527f43726f776473616c653a2073616c65206973206e6f206c6f6e676572206f70656044820152603760f91b606482015260840161031b565b6001600160a01b038216610e795760405162461bcd60e51b815260206004820152602f60248201527f43726f776473616c653a2062656e65666963696172792063616e206e6f74206260448201526e32902d32b9379020b2323932b9b99760891b606482015260840161031b565b80610edf5760405162461bcd60e51b815260206004820152603060248201527f43726f776473616c653a20616d6f756e74206f6620424e42206d75737420626560448201526f1033b932b0ba32b9103a3430b710181760811b606482015260840161031b565b603a54811115610f4b5760405162461bcd60e51b815260206004820152603160248201527f43726f776473616c653a20616d6f756e74206f6620424e422073656e74206d7560448201527007374206c6f776572207468616e2031303607c1b606482015260840161031b565b603a546001600160a01b038316600090815260346020526040902054610f729083906116fb565b11156102ed5760405162461bcd60e51b815260206004820152603d60248201527f43726f776473616c653a20616d6f756e74206f6620424e4220656e746572656460448201527f206578636565647320627579657273207075726368617365206361702e000000606482015260840161031b565b6000670de0b6b3a76400006037603d54815481106110065761100661169e565b90600052602060002001548361101c9190611713565b6110269190611732565b90506038600f8154811061103c5761103c61169e565b906000526020600020015481603c5461105591906116fb565b11156110e15760405162461bcd60e51b815260206004820152604f60248201527f43726f776473616c653a20746f6b656e20616d6f756e742063616e206e6f742060448201527f6265206d6f7265207468617420746f74616c20616d6f756e7420616c6c6f746560648201526e32103a379021b937bbb239b0b6329760891b608482015260a40161031b565b6040805180820182526001600160a01b03858116808352602080840186815260358054600181018255600091825295517fcfa4bec1d3298408bb5afcfcd9c430549c5b31f8aa5c5848151c0a55f473c34d600290970296870180546001600160a01b0319169190961617909455517fcfa4bec1d3298408bb5afcfcd9c430549c5b31f8aa5c5848151c0a55f473c34e909401939093558152603490915290812080548492906111919084906116fb565b90915550506039546040516001600160a01b039091169083156108fc029084906000818181858888f193505050501580156111d0573d6000803e3d6000fd5b506111db81836112e7565b60408051838152602081018390526001600160a01b0385169133917f623b3804fa71d67900d064613da8f94b9617215ee90799290593e1745087ad18910160405180910390a3505050565b6001600160a01b03811661128b5760405162461bcd60e51b815260206004820152602660248201527f4f776e61626c653a206e6577206f776e657220697320746865207a65726f206160448201526564647265737360d01b606482015260840161031b565b6033546040516001600160a01b038084169216907f8be0079c531659141344cd1fd0a4f28419497f9722a3daafe3b4186f6b6457e090600090a3603380546001600160a01b0319166001600160a01b0392909216919091179055565b81603c60008282546112f991906116fb565b9250508190555080603b600082825461131291906116fb565b925050819055506038603d548154811061132e5761132e61169e565b9060005260206000200154603c54106102ed57603854603d5410156102ed576001603d600082825461136091906116fb565b90915550505050565b634e487b7160e01b600052604160045260246000fd5b604051601f8201601f1916810167ffffffffffffffff811182821017156113a8576113a8611369565b604052919050565b600067ffffffffffffffff8211156113ca576113ca611369565b5060051b60200190565b6001600160a01b038116811461046d57600080fd5b600082601f8301126113fa57600080fd5b8135602061140f61140a836113b0565b61137f565b82815260059290921b8401810191818101908684111561142e57600080fd5b8286015b848110156114495780358352918301918301611432565b509695505050505050565b6000806040838503121561146757600080fd5b823567ffffffffffffffff8082111561147f57600080fd5b818501915085601f83011261149357600080fd5b813560206114a361140a836113b0565b82815260059290921b840181019181810190898411156114c257600080fd5b948201945b838610156114e95785356114da816113d4565b825294820194908201906114c7565b965050860135925050808211156114ff57600080fd5b5061150c858286016113e9565b9150509250929050565b600081518084526020808501945080840160005b838110156115465781518752958201959082019060010161152a565b509495945050505050565b606080825284519082018190526000906020906080840190828801845b828110156115935781516001600160a01b03168452928401929084019060010161156e565b505050838103828501526115a78187611516565b91505082810360408401526115bc8185611516565b9695505050505050565b6000602082840312156115d857600080fd5b81356115e3816113d4565b9392505050565b6020808252818101527f4f776e61626c653a2063616c6c6572206973206e6f7420746865206f776e6572604082015260600190565b60006020828403121561163157600080fd5b5051919050565b60006020828403121561164a57600080fd5b815180151581146115e357600080fd5b60208082526024908201527f43726f776473616c653a2073616c6520686173206e6f74206265656e20636c6f60408201526339b2b21760e11b606082015260800190565b634e487b7160e01b600052603260045260246000fd5b634e487b7160e01b600052601160045260246000fd5b60006000198214156116de576116de6116b4565b5060010190565b634e487b7160e01b600052603160045260246000fd5b6000821982111561170e5761170e6116b4565b500190565b600081600019048311821515161561172d5761172d6116b4565b500290565b60008261174f57634e487b7160e01b600052601260045260246000fd5b50049056fea2646970667358221220ed8c5f9df4773a60ae6b95b6ebf3de5802798c47ebb5878bc3163622df405c3b64736f6c63430008090033496e697469616c697a61626c653a20636f6e747261637420697320616c726561",
    "sourcePath": "d:/Documents/GitHub/Gauss-GANG-Smart-Contract/flattenedContracts/GaussCrowdsale_flattened.sol",
    "compiler": {
        "name": "solc",
        "version": "0.8.9+commit.e5eed63a"
    },
    "functionHashes": {
        "allowWithdrawals()": "85f0f098",
        "buyTokens(address)": "ec8ac4d8",
        "closeCrowdsale()": "983c0a01",
        "crowdsaleWallet()": "56ff83c8",
        "currentStage()": "5bf5d54c",
        "endTime()": "3197cbb6",
        "finalizeCrowdsale()": "0bf318a3",
        "gaussSold()": "ecbed543",
        "getReceipts()": "78597522",
        "jagerRaised()": "3537a5bd",
        "owner()": "8da5cb5b",
        "releaseTokens()": "a96f8668",
        "startTime()": "78e97925",
        "transferOwnership(address)": "f2fde38b",
        "updateBalances(address[],uint256[])": "41358943",
        "withdrawTokens()": "8d8f2adb"
    },
    "gasEstimates": {
        "creation": {
            "codeDepositCost": "1205200",
            "executionCost": "infinite",
            "totalCost": "infinite"
        },
        "external": {
            "allowWithdrawals()": "26531",
            "buyTokens(address)": "infinite",
            "closeCrowdsale()": "26597",
            "crowdsaleWallet()": "2360",
            "currentStage()": "2329",
            "endTime()": "2330",
            "finalizeCrowdsale()": "infinite",
            "gaussSold()": "2350",
            "getReceipts()": "infinite",
            "jagerRaised()": "2352",
            "owner()": "2398",
            "releaseTokens()": "infinite",
            "startTime()": "2373",
            "transferOwnership(address)": "infinite",
            "updateBalances(address[],uint256[])": "infinite",
            "withdrawTokens()": "infinite"
        },
        "internal": {
            "_processPurchase(address payable,uint256)": "infinite",
            "_updatePurchasingState(uint256,uint256)": "infinite",
            "_validatePurchase(address,uint256)": "infinite"
        }
    }
}