{
    "contractName": "GaussVault",
    "abi": [
        {
            "anonymous": false,
            "inputs": [
                {
                    "indexed": false,
                    "internalType": "address",
                    "name": "previousAdmin",
                    "type": "address"
                },
                {
                    "indexed": false,
                    "internalType": "address",
                    "name": "newAdmin",
                    "type": "address"
                }
            ],
            "name": "AdminChanged",
            "type": "event"
        },
        {
            "anonymous": false,
            "inputs": [
                {
                    "indexed": true,
                    "internalType": "address",
                    "name": "beacon",
                    "type": "address"
                }
            ],
            "name": "BeaconUpgraded",
            "type": "event"
        },
        {
            "anonymous": false,
            "inputs": [
                {
                    "indexed": true,
                    "internalType": "address",
                    "name": "previousOwner",
                    "type": "address"
                },
                {
                    "indexed": true,
                    "internalType": "address",
                    "name": "newOwner",
                    "type": "address"
                }
            ],
            "name": "OwnershipTransferred",
            "type": "event"
        },
        {
            "anonymous": false,
            "inputs": [
                {
                    "indexed": true,
                    "internalType": "address",
                    "name": "implementation",
                    "type": "address"
                }
            ],
            "name": "Upgraded",
            "type": "event"
        },
        {
            "anonymous": false,
            "inputs": [
                {
                    "indexed": false,
                    "internalType": "address",
                    "name": "beneficiary",
                    "type": "address"
                },
                {
                    "indexed": false,
                    "internalType": "address",
                    "name": "lockAddress",
                    "type": "address"
                },
                {
                    "indexed": false,
                    "internalType": "uint256",
                    "name": "initialAmount",
                    "type": "uint256"
                }
            ],
            "name": "VestingCreated",
            "type": "event"
        },
        {
            "inputs": [],
            "name": "beneficiaryVestingAddresses",
            "outputs": [
                {
                    "internalType": "address[]",
                    "name": "",
                    "type": "address[]"
                }
            ],
            "stateMutability": "view",
            "type": "function"
        },
        {
            "inputs": [
                {
                    "internalType": "address",
                    "name": "gaussGANGAddress",
                    "type": "address"
                }
            ],
            "name": "initialize",
            "outputs": [],
            "stateMutability": "nonpayable",
            "type": "function"
        },
        {
            "inputs": [],
            "name": "lockGaussVault",
            "outputs": [],
            "stateMutability": "nonpayable",
            "type": "function"
        },
        {
            "inputs": [],
            "name": "owner",
            "outputs": [
                {
                    "internalType": "address",
                    "name": "",
                    "type": "address"
                }
            ],
            "stateMutability": "view",
            "type": "function"
        },
        {
            "inputs": [],
            "name": "releaseAvailableTokens",
            "outputs": [],
            "stateMutability": "nonpayable",
            "type": "function"
        },
        {
            "inputs": [
                {
                    "internalType": "address",
                    "name": "sender",
                    "type": "address"
                },
                {
                    "internalType": "address",
                    "name": "beneficiary",
                    "type": "address"
                },
                {
                    "internalType": "uint256",
                    "name": "amount",
                    "type": "uint256"
                },
                {
                    "internalType": "uint256[]",
                    "name": "amountsList",
                    "type": "uint256[]"
                },
                {
                    "internalType": "uint256[]",
                    "name": "lockTimes",
                    "type": "uint256[]"
                }
            ],
            "name": "scheduledVesting",
            "outputs": [
                {
                    "internalType": "address",
                    "name": "",
                    "type": "address"
                }
            ],
            "stateMutability": "nonpayable",
            "type": "function"
        },
        {
            "inputs": [
                {
                    "internalType": "address",
                    "name": "newOwner",
                    "type": "address"
                }
            ],
            "name": "transferOwnership",
            "outputs": [],
            "stateMutability": "nonpayable",
            "type": "function"
        },
        {
            "inputs": [
                {
                    "internalType": "address",
                    "name": "newImplementation",
                    "type": "address"
                }
            ],
            "name": "upgradeTo",
            "outputs": [],
            "stateMutability": "nonpayable",
            "type": "function"
        },
        {
            "inputs": [
                {
                    "internalType": "address",
                    "name": "newImplementation",
                    "type": "address"
                },
                {
                    "internalType": "bytes",
                    "name": "data",
                    "type": "bytes"
                }
            ],
            "name": "upgradeToAndCall",
            "outputs": [],
            "stateMutability": "payable",
            "type": "function"
        },
        {
            "inputs": [
                {
                    "internalType": "address",
                    "name": "sender",
                    "type": "address"
                },
                {
                    "internalType": "address",
                    "name": "beneficiary",
                    "type": "address"
                },
                {
                    "internalType": "uint256",
                    "name": "amount",
                    "type": "uint256"
                },
                {
                    "internalType": "uint256",
                    "name": "releaseTime",
                    "type": "uint256"
                }
            ],
            "name": "vestTokens",
            "outputs": [
                {
                    "internalType": "address",
                    "name": "",
                    "type": "address"
                }
            ],
            "stateMutability": "nonpayable",
            "type": "function"
        },
        {
            "inputs": [],
            "name": "vestingContractAddresses",
            "outputs": [
                {
                    "internalType": "address[]",
                    "name": "",
                    "type": "address[]"
                }
            ],
            "stateMutability": "view",
            "type": "function"
        }
    ],
    "bytecode": "60a06040523060601b60805234801561001757600080fd5b5060805160601c613e5c61004b60003960008181610591015281816105d40152818161066601526106a90152613e5c6000f3fe608060405260043610620000a95760003560e01c8063ae073cc7116200006c578063ae073cc71462000173578063be92c1c8146200019a578063c4d66de814620001b2578063e5e0939614620001d7578063f2fde38b14620001ef578063f82d5c35146200021457600080fd5b8063161dcaa414620000ae5780633659cfe614620000f05780634f1ef28614620001175780638da5cb5b146200012e5780639af09749146200014e575b600080fd5b348015620000bb57600080fd5b50620000d3620000cd36600462002afb565b6200022c565b6040516001600160a01b0390911681526020015b60405180910390f35b348015620000fd57600080fd5b50620001156200010f36600462002a1e565b62000586565b005b620001156200012836600462002b46565b6200065b565b3480156200013b57600080fd5b506033546001600160a01b0316620000d3565b3480156200015b57600080fd5b50620000d36200016d36600462002a5e565b62000721565b3480156200018057600080fd5b506200018b62000af3565b604051620000e7919062002cb6565b348015620001a757600080fd5b506200011562000d31565b348015620001bf57600080fd5b5062000115620001d136600462002a1e565b62000de0565b348015620001e457600080fd5b506200011562000e71565b348015620001fc57600080fd5b50620001156200020e36600462002a1e565b6200111c565b3480156200022157600080fd5b506200018b62001154565b6033546000906001600160a01b03163314620002655760405162461bcd60e51b81526004016200025c9062002e7e565b60405180910390fd5b6069546040516000916001600160a01b03169087908790879087906200028b9062002974565b6001600160a01b03958616815293851660208501529390911660408301526060820152608081019190915260a001604051809103906000f080158015620002d6573d6000803e3d6000fd5b509050606960009054906101000a90046001600160a01b03166001600160a01b031663a9059cbb826001600160a01b031663f6b4dfb46040518163ffffffff1660e01b815260040160206040518083038186803b1580156200033757600080fd5b505afa1580156200034c573d6000803e3d6000fd5b505050506040513d601f19601f8201168201806040525081019062000372919062002a3e565b6040516001600160e01b031960e084901b1681526001600160a01b03909116600482015260248101879052604401602060405180830381600087803b158015620003bb57600080fd5b505af1158015620003d0573d6000803e3d6000fd5b505050506040513d601f19601f82011682018060405250810190620003f6919062002bf8565b50606680546001810182556000919091527f46501879b8ca8525e8c2fd519e2fbfcfa2ebea26501294aa02cbfcfb12e943540180546001600160a01b0319166001600160a01b03831690811790915560408051633dad37ed60e21b815290517fd5ad48d673f889adad7b73dab2d50040ef22dd8dec91b284bc5a8bc724f3ffb0928892909163f6b4dfb491600480820192602092909190829003018186803b158015620004a257600080fd5b505afa158015620004b7573d6000803e3d6000fd5b505050506040513d601f19601f82011682018060405250810190620004dd919062002a3e565b604080516001600160a01b039384168152929091166020830152810186905260600160405180910390a1806001600160a01b031663f6b4dfb46040518163ffffffff1660e01b815260040160206040518083038186803b1580156200054157600080fd5b505afa15801562000556573d6000803e3d6000fd5b505050506040513d601f19601f820116820180604052508101906200057c919062002a3e565b9695505050505050565b306001600160a01b037f0000000000000000000000000000000000000000000000000000000000000000161415620005d25760405162461bcd60e51b81526004016200025c9062002d98565b7f00000000000000000000000000000000000000000000000000000000000000006001600160a01b0316620006066200138b565b6001600160a01b0316146200062f5760405162461bcd60e51b81526004016200025c9062002de4565b6200063a81620013b9565b604080516000808252602082019092526200065891839190620013e6565b50565b306001600160a01b037f0000000000000000000000000000000000000000000000000000000000000000161415620006a75760405162461bcd60e51b81526004016200025c9062002d98565b7f00000000000000000000000000000000000000000000000000000000000000006001600160a01b0316620006db6200138b565b6001600160a01b031614620007045760405162461bcd60e51b81526004016200025c9062002de4565b6200070f82620013b9565b6200071d82826001620013e6565b5050565b6033546000906001600160a01b03163314620007515760405162461bcd60e51b81526004016200025c9062002e7e565b8151835114620007e95760405162461bcd60e51b815260206004820152605660248201527f7363686564756c656456657374696e6728293a20616d6f756e74734c6973742060448201527f616e64206c6f636b54696d657320646f206e6f7420636f6e7461696e74207468606482015275652073616d65206e756d626572206f66206974656d7360501b608482015260a4016200025c565b6000606960009054906101000a90046001600160a01b03168787878787604051620008149062002982565b620008259695949392919062002d05565b604051809103906000f08015801562000842573d6000803e3d6000fd5b509050606960009054906101000a90046001600160a01b03166001600160a01b031663a9059cbb826001600160a01b031663f6b4dfb46040518163ffffffff1660e01b815260040160206040518083038186803b158015620008a357600080fd5b505afa158015620008b8573d6000803e3d6000fd5b505050506040513d601f19601f82011682018060405250810190620008de919062002a3e565b6040516001600160e01b031960e084901b1681526001600160a01b03909116600482015260248101889052604401602060405180830381600087803b1580156200092757600080fd5b505af11580156200093c573d6000803e3d6000fd5b505050506040513d601f19601f8201168201806040525081019062000962919062002bf8565b50606780546001810182556000919091527f9787eeb91fe3101235e4a76063c7023ecb40f923f97916639c598592fa30d6ae0180546001600160a01b0319166001600160a01b03831690811790915560408051633dad37ed60e21b815290517fd5ad48d673f889adad7b73dab2d50040ef22dd8dec91b284bc5a8bc724f3ffb0928992909163f6b4dfb491600480820192602092909190829003018186803b15801562000a0e57600080fd5b505afa15801562000a23573d6000803e3d6000fd5b505050506040513d601f19601f8201168201806040525081019062000a49919062002a3e565b604080516001600160a01b039384168152929091166020830152810187905260600160405180910390a1806001600160a01b031663f6b4dfb46040518163ffffffff1660e01b815260040160206040518083038186803b15801562000aad57600080fd5b505afa15801562000ac2573d6000803e3d6000fd5b505050506040513d601f19601f8201168201806040525081019062000ae8919062002a3e565b979650505050505050565b60675460665460609160009162000b0b919062002ee6565b90506000816001600160401b0381111562000b2a5762000b2a620030a8565b60405190808252806020026020018201604052801562000b54578160200160208202803683370190505b50905060005b8281101562000d2a5760665481101562000c44576066818154811062000b845762000b8462003092565b60009182526020918290200154604080516338af3eed60e01b815290516001600160a01b03909216926338af3eed92600480840193829003018186803b15801562000bce57600080fd5b505afa15801562000be3573d6000803e3d6000fd5b505050506040513d601f19601f8201168201806040525081019062000c09919062002a3e565b82828151811062000c1e5762000c1e62003092565b60200260200101906001600160a01b031690816001600160a01b03168152505062000d15565b6067818154811062000c5a5762000c5a62003092565b60009182526020918290200154604080516338af3eed60e01b815290516001600160a01b03909216926338af3eed92600480840193829003018186803b15801562000ca457600080fd5b505afa15801562000cb9573d6000803e3d6000fd5b505050506040513d601f19601f8201168201806040525081019062000cdf919062002a3e565b82828151811062000cf45762000cf462003092565b60200260200101906001600160a01b031690816001600160a01b0316815250505b8062000d21816200305e565b91505062000b5a565b5092915050565b6033546001600160a01b0316331462000d5e5760405162461bcd60e51b81526004016200025c9062002e7e565b606954600160a01b900460ff1662000dde5762000d7a62001542565b62000d8462001773565b62000d8e620018de565b62000d9862001acd565b62000da262001c64565b62000dac62001db5565b62000db662001f29565b62000dc06200209d565b62000dca62002211565b6069805460ff60a01b1916600160a01b1790555b565b600054610100900460ff168062000dfa575060005460ff16155b62000e195760405162461bcd60e51b81526004016200025c9062002e30565b600054610100900460ff1615801562000e3c576000805461ffff19166101011790555b62000e4662002353565b62000e50620023d8565b62000e5b8262002448565b80156200071d576000805461ff00191690555050565b6033546001600160a01b0316331462000e9e5760405162461bcd60e51b81526004016200025c9062002e7e565b60675460665460009162000eb29162002ee6565b905060005b818110156200071d5760665481101562000fec576066818154811062000ee15762000ee162003092565b600091825260209182902001546040805163b91d400160e01b815290516001600160a01b039092169263b91d400192600480840193829003018186803b15801562000f2b57600080fd5b505afa15801562000f40573d6000803e3d6000fd5b505050506040513d601f19601f8201168201806040525081019062000f66919062002c1c565b421062000fe6576066818154811062000f835762000f8362003092565b6000918252602082200154604080516386d1a69f60e01b815290516001600160a01b03909216926386d1a69f9260048084019382900301818387803b15801562000fcc57600080fd5b505af115801562000fe1573d6000803e3d6000fd5b505050505b62001107565b6067818154811062001002576200100262003092565b600091825260209182902001546040805163b91d400160e01b815290516001600160a01b039092169263b91d400192600480840193829003018186803b1580156200104c57600080fd5b505afa15801562001061573d6000803e3d6000fd5b505050506040513d601f19601f8201168201806040525081019062001087919062002c1c565b4210620011075760678181548110620010a457620010a462003092565b6000918252602082200154604080516386d1a69f60e01b815290516001600160a01b03909216926386d1a69f9260048084019382900301818387803b158015620010ed57600080fd5b505af115801562001102573d6000803e3d6000fd5b505050505b8062001113816200305e565b91505062000eb7565b6033546001600160a01b03163314620011495760405162461bcd60e51b81526004016200025c9062002e7e565b62000658816200256c565b6067546066546060916000916200116c919062002ee6565b90506000816001600160401b038111156200118b576200118b620030a8565b604051908082528060200260200182016040528015620011b5578160200160208202803683370190505b50905060005b8281101562000d2a57606654811015620012a55760668181548110620011e557620011e562003092565b6000918252602091829020015460408051633dad37ed60e21b815290516001600160a01b039092169263f6b4dfb492600480840193829003018186803b1580156200122f57600080fd5b505afa15801562001244573d6000803e3d6000fd5b505050506040513d601f19601f820116820180604052508101906200126a919062002a3e565b8282815181106200127f576200127f62003092565b60200260200101906001600160a01b031690816001600160a01b03168152505062001376565b60678181548110620012bb57620012bb62003092565b6000918252602091829020015460408051633dad37ed60e21b815290516001600160a01b039092169263f6b4dfb492600480840193829003018186803b1580156200130557600080fd5b505afa1580156200131a573d6000803e3d6000fd5b505050506040513d601f19601f8201168201806040525081019062001340919062002a3e565b82828151811062001355576200135562003092565b60200260200101906001600160a01b031690816001600160a01b0316815250505b8062001382816200305e565b915050620011bb565b7f360894a13ba1a3210667c828492db98dca3e2076cc3735a920a3ca505d382bbc546001600160a01b031690565b6033546001600160a01b03163314620006585760405162461bcd60e51b81526004016200025c9062002e7e565b6000620013f26200138b565b9050620013ff846200262f565b6000835111806200140d5750815b1562001421576200141f8484620026d6565b505b7f4910fdfa16fed3260ed0e7147f7cc6da11a60208b5b9406d12a635614ffd9143805460ff166200153b57805460ff191660011781556040516001600160a01b0383166024820152620014a390869060440160408051601f198184030181529190526020810180516001600160e01b0316631b2ce7f360e11b179052620026d6565b50805460ff19168155620014b66200138b565b6001600160a01b0316826001600160a01b031614620015305760405162461bcd60e51b815260206004820152602f60248201527f45524331393637557067726164653a207570677261646520627265616b73206660448201526e75727468657220757067726164657360881b60648201526084016200025c565b6200153b85620027cc565b5050505050565b606a54734249b05e707feea3fb034071c66e5a227c230c2f906000906200156e906306b49d2062003009565b6040805160198082526103408201909252919250906000908260208201610320803683370190505090506000826001600160401b03811115620015b557620015b5620030a8565b604051908082528060200260200182016040528015620015df578160200160208202803683370190505b50905060005b83811015620016cd57806200162e57606a54620016079063017d784062003009565b8382815181106200161c576200161c62003092565b602002602001018181525050620016b8565b6001811015801562001641575060068111155b156200165957606a546200160790621312d062003009565b600781101580156200166c575060178111155b156200168457606a5462001607906243d11c62003009565b606a5462001696906243d12462003009565b838281518110620016ab57620016ab62003092565b6020026020010181815250505b80620016c4816200305e565b915050620015e5565b5060005b838110156200174f578062001709576001828281518110620016f757620016f762003092565b6020026020010181815250506200173a565b620017188162278d0062003009565b8282815181106200172d576200172d62003092565b6020026020010181815250505b8062001746816200305e565b915050620016d1565b506068546200176b906001600160a01b03168686858562000721565b505050505050565b606a547317ca40c901af4c31ed9f5d961b16ded9a4715505906000906200179f906301312d0062003009565b60408051600280825260608201835292935060009183906020830190803683370190505090506000826001600160401b03811115620017e257620017e2620030a8565b6040519080825280602002602001820160405280156200180c578160200160208202803683370190505b509050606a546298968062001822919062003009565b8260008151811062001838576200183862003092565b6020908102919091010152606a5462001855906298968062003009565b826001815181106200186b576200186b62003092565b602002602001018181525050629e34008160008151811062001891576200189162003092565b60200260200101818152505063013c680081600181518110620018b857620018b862003092565b60209081029190910101526068546200176b906001600160a01b03168686858562000721565b606a54737d74e237825eba9f4b026555f17ecacb2b0d78fe90600090620019099062e4e1c062003009565b6040805160138082526102808201909252919250906000908260208201610260803683370190505090506000826001600160401b03811115620019505762001950620030a8565b6040519080825280602002602001820160405280156200197a578160200160208202803683370190505b50905060005b8381101562001a3c5780620019c857606a54620019a1906210f44762003009565b838281518110620019b657620019b662003092565b60200260200101818152505062001a27565b60018110158015620019db575060118111155b15620019f357606a54620019a190620bc61562003009565b606a5462001a0590620bc61462003009565b83828151811062001a1a5762001a1a62003092565b6020026020010181815250505b8062001a33816200305e565b91505062001980565b5060005b838110156200174f578062001a7857600182828151811062001a665762001a6662003092565b60200260200101818152505062001ab8565b62001a878162278d0062003009565b62001a969062c5c10062002ee6565b82828151811062001aab5762001aab62003092565b6020026020010181815250505b8062001ac4816200305e565b91505062001a40565b606a54733e3049a80590baf63b6ac8d74f5cbb31584059bb9060009062001af89062632ea062003009565b6040805160188082526103208201909252919250906000908260208201610300803683370190505090506000826001600160401b0381111562001b3f5762001b3f620030a8565b60405190808252806020026020018201604052801562001b69578160200160208202803683370190505b50905060005b8381101562001c0457601281101562001bbb57606a5462001b94906204f58862003009565b83828151811062001ba95762001ba962003092565b60200260200101818152505062001bef565b606a5462001bcd9062027ac462003009565b83828151811062001be25762001be262003092565b6020026020010181815250505b8062001bfb816200305e565b91505062001b6f565b5060005b838110156200174f5762001c208162278d0062003009565b62001c2f9062278d0062002ee6565b82828151811062001c445762001c4462003092565b60209081029190910101528062001c5b816200305e565b91505062001c08565b606a5473747dde9cb0b8b86ef1d221077055ee9ec4e70b899060009062001c909063017d784062003009565b60408051600480825260a082019092529192509060009082602082016080803683370190505090506000826001600160401b0381111562001cd55762001cd5620030a8565b60405190808252806020026020018201604052801562001cff578160200160208202803683370190505b50905060005b8381101562001d5557606a5462001d2090625f5e1062003009565b83828151811062001d355762001d3562003092565b60209081029190910101528062001d4c816200305e565b91505062001d05565b5060005b838110156200174f5762001d718162c5c10062003009565b62001d809062c5c10062002ee6565b82828151811062001d955762001d9562003092565b60209081029190910101528062001dac816200305e565b91505062001d59565b606a547346cee8f5f3e30af7b62374249907fb97563262f59060009062001de09062e4e1c062003009565b6040805160198082526103408201909252919250906000908260208201610320803683370190505090506000826001600160401b0381111562001e275762001e27620030a8565b60405190808252806020026020018201604052801562001e51578160200160208202803683370190505b50905060005b8381101562001ea757606a5462001e7290620927c062003009565b83828151811062001e875762001e8762003092565b60209081029190910101528062001e9e816200305e565b91505062001e57565b5060005b838110156200174f578062001ee357600182828151811062001ed15762001ed162003092565b60200260200101818152505062001f14565b62001ef28162278d0062003009565b82828151811062001f075762001f0762003092565b6020026020010181815250505b8062001f20816200305e565b91505062001eab565b606a5473f9f41bd5c7b6cf9a3c6e13846035005331ed940e9060009062001f549062e4e1c062003009565b6040805160198082526103408201909252919250906000908260208201610320803683370190505090506000826001600160401b0381111562001f9b5762001f9b620030a8565b60405190808252806020026020018201604052801562001fc5578160200160208202803683370190505b50905060005b838110156200201b57606a5462001fe690620927c062003009565b83828151811062001ffb5762001ffb62003092565b60209081029190910101528062002012816200305e565b91505062001fcb565b5060005b838110156200174f57806200205757600182828151811062002045576200204562003092565b60200260200101818152505062002088565b620020668162278d0062003009565b8282815181106200207b576200207b62003092565b6020026020010181815250505b8062002094816200305e565b9150506200201f565b606a5473e3778db10a5e8b2bd1b68038f2cefa835aa46b4590600090620020c89062bebc2062003009565b6040805160198082526103408201909252919250906000908260208201610320803683370190505090506000826001600160401b038111156200210f576200210f620030a8565b60405190808252806020026020018201604052801562002139578160200160208202803683370190505b50905060005b838110156200218f57606a546200215a906207a12062003009565b8382815181106200216f576200216f62003092565b60209081029190910101528062002186816200305e565b9150506200213f565b5060005b838110156200174f5780620021cb576001828281518110620021b957620021b962003092565b602002602001018181525050620021fc565b620021da8162278d0062003009565b828281518110620021ef57620021ef62003092565b6020026020010181815250505b8062002208816200305e565b91505062002193565b606a5473f02fd116eefb47e394721356b36d3350972cc0c7906000906200223d906301b2e02062003009565b60408051600680825260e0820190925291925090600090826020820160c0803683370190505090506000826001600160401b03811115620022825762002282620030a8565b604051908082528060200260200182016040528015620022ac578160200160208202803683370190505b50905060005b838110156200230257606a54620022cd9062487ab062003009565b838281518110620022e257620022e262003092565b602090810291909101015280620022f9816200305e565b915050620022b2565b5060005b838110156200174f576200231e81629e340062003009565b82828151811062002333576200233362003092565b6020908102919091010152806200234a816200305e565b91505062002306565b600054610100900460ff16806200236d575060005460ff16155b6200238c5760405162461bcd60e51b81526004016200025c9062002e30565b600054610100900460ff16158015620023af576000805461ffff19166101011790555b620023b96200280e565b620023c36200287e565b801562000658576000805461ff001916905550565b600054610100900460ff1680620023f2575060005460ff16155b620024115760405162461bcd60e51b81526004016200025c9062002e30565b600054610100900460ff1615801562002434576000805461ffff19166101011790555b6200243e6200280e565b620023c36200280e565b600054610100900460ff168062002462575060005460ff16155b620024815760405162461bcd60e51b81526004016200025c9062002e30565b600054610100900460ff16158015620024a4576000805461ffff19166101011790555b606880546001600160a01b03191630179055606980546001600160a81b0319166001600160a01b0384169081179091556040805163313ce56760e01b8152905163313ce56791600480820192602092909190829003018186803b1580156200250b57600080fd5b505afa15801562002520573d6000803e3d6000fd5b505050506040513d601f19601f8201168201806040525081019062002546919062002c36565b6200255390600a62002f4a565b606a5580156200071d576000805461ff00191690555050565b6001600160a01b038116620025d35760405162461bcd60e51b815260206004820152602660248201527f4f776e61626c653a206e6577206f776e657220697320746865207a65726f206160448201526564647265737360d01b60648201526084016200025c565b6033546040516001600160a01b038084169216907f8be0079c531659141344cd1fd0a4f28419497f9722a3daafe3b4186f6b6457e090600090a3603380546001600160a01b0319166001600160a01b0392909216919091179055565b803b620026955760405162461bcd60e51b815260206004820152602d60248201527f455243313936373a206e657720696d706c656d656e746174696f6e206973206e60448201526c1bdd08184818dbdb9d1c9858dd609a1b60648201526084016200025c565b7f360894a13ba1a3210667c828492db98dca3e2076cc3735a920a3ca505d382bbc80546001600160a01b0319166001600160a01b0392909216919091179055565b6060823b620027375760405162461bcd60e51b815260206004820152602660248201527f416464726573733a2064656c65676174652063616c6c20746f206e6f6e2d636f6044820152651b9d1c9858dd60d21b60648201526084016200025c565b600080846001600160a01b03168460405162002754919062002c98565b600060405180830381855af49150503d806000811462002791576040519150601f19603f3d011682016040523d82523d6000602084013e62002796565b606091505b5091509150620027c1828260405180606001604052806027815260200162003e00602791396200292f565b925050505b92915050565b620027d7816200262f565b6040516001600160a01b038216907fbc7cd75a20ee27fd9adebab32041f755214dbc6bffa90cc0225b39da2e5c2d3b90600090a250565b600054610100900460ff168062002828575060005460ff16155b620028475760405162461bcd60e51b81526004016200025c9062002e30565b600054610100900460ff16158015620023c3576000805461ffff1916610101179055801562000658576000805461ff001916905550565b600054610100900460ff168062002898575060005460ff16155b620028b75760405162461bcd60e51b81526004016200025c9062002e30565b600054610100900460ff16158015620028da576000805461ffff19166101011790555b603380546001600160a01b031916339081179091556040516000907f8be0079c531659141344cd1fd0a4f28419497f9722a3daafe3b4186f6b6457e0908290a3801562000658576000805461ff001916905550565b60608315620029405750816200296d565b825115620029515782518084602001fd5b8160405162461bcd60e51b81526004016200025c919062002d63565b9392505050565b61058780620030d583390190565b6107a4806200365c83390190565b600082601f830112620029a257600080fd5b813560206001600160401b03821115620029c057620029c0620030a8565b8160051b620029d182820162002eb3565b838152828101908684018388018501891015620029ed57600080fd5b600093505b8584101562002a12578035835260019390930192918401918401620029f2565b50979650505050505050565b60006020828403121562002a3157600080fd5b81356200296d81620030be565b60006020828403121562002a5157600080fd5b81516200296d81620030be565b600080600080600060a0868803121562002a7757600080fd5b853562002a8481620030be565b9450602086013562002a9681620030be565b93506040860135925060608601356001600160401b038082111562002aba57600080fd5b62002ac889838a0162002990565b9350608088013591508082111562002adf57600080fd5b5062002aee8882890162002990565b9150509295509295909350565b6000806000806080858703121562002b1257600080fd5b843562002b1f81620030be565b9350602085013562002b3181620030be565b93969395505050506040820135916060013590565b6000806040838503121562002b5a57600080fd5b823562002b6781620030be565b91506020838101356001600160401b038082111562002b8557600080fd5b818601915086601f83011262002b9a57600080fd5b81358181111562002baf5762002baf620030a8565b62002bc3601f8201601f1916850162002eb3565b9150808252878482850101111562002bda57600080fd5b80848401858401376000848284010152508093505050509250929050565b60006020828403121562002c0b57600080fd5b815180151581146200296d57600080fd5b60006020828403121562002c2f57600080fd5b5051919050565b60006020828403121562002c4957600080fd5b815160ff811681146200296d57600080fd5b600081518084526020808501945080840160005b8381101562002c8d5781518752958201959082019060010162002c6f565b509495945050505050565b6000825162002cac8184602087016200302b565b9190910192915050565b6020808252825182820181905260009190848201906040850190845b8181101562002cf95783516001600160a01b03168352928401929184019160010162002cd2565b50909695505050505050565b6001600160a01b0387811682528681166020830152851660408201526060810184905260c06080820181905260009062002d429083018562002c5b565b82810360a084015262002d56818562002c5b565b9998505050505050505050565b602081526000825180602084015262002d848160408501602087016200302b565b601f01601f19169190910160400192915050565b6020808252602c908201527f46756e6374696f6e206d7573742062652063616c6c6564207468726f7567682060408201526b19195b1959d85d1958d85b1b60a21b606082015260800190565b6020808252602c908201527f46756e6374696f6e206d7573742062652063616c6c6564207468726f7567682060408201526b6163746976652070726f787960a01b606082015260800190565b6020808252602e908201527f496e697469616c697a61626c653a20636f6e747261637420697320616c72656160408201526d191e481a5b9a5d1a585b1a5e995960921b606082015260800190565b6020808252818101527f4f776e61626c653a2063616c6c6572206973206e6f7420746865206f776e6572604082015260600190565b604051601f8201601f191681016001600160401b038111828210171562002ede5762002ede620030a8565b604052919050565b6000821982111562002efc5762002efc6200307c565b500190565b600181815b8085111562002f4257816000190482111562002f265762002f266200307c565b8085161562002f3457918102915b93841c939080029062002f06565b509250929050565b60006200296d60ff84168360008262002f6657506001620027c6565b8162002f7557506000620027c6565b816001811462002f8e576002811462002f995762002fb9565b6001915050620027c6565b60ff84111562002fad5762002fad6200307c565b50506001821b620027c6565b5060208310610133831016604e8410600b841016171562002fde575081810a620027c6565b62002fea838362002f01565b80600019048211156200300157620030016200307c565b029392505050565b60008160001904831182151516156200302657620030266200307c565b500290565b60005b83811015620030485781810151838201526020016200302e565b8381111562003058576000848401525b50505050565b60006000198214156200307557620030756200307c565b5060010190565b634e487b7160e01b600052601160045260246000fd5b634e487b7160e01b600052603260045260246000fd5b634e487b7160e01b600052604160045260246000fd5b6001600160a01b03811681146200065857600080fdfe61010060405234801561001157600080fd5b506040516105873803806105878339810160408190526100309161006f565b6001600160601b0319606086811b821660805285811b821660a05284901b1660c052603382905561006181426100cd565b60e0525061010b9350505050565b600080600080600060a0868803121561008757600080fd5b8551610092816100f3565b60208701519095506100a3816100f3565b60408701519094506100b4816100f3565b6060870151608090970151959894975095949392505050565b600082198211156100ee57634e487b7160e01b600052601160045260246000fd5b500190565b6001600160a01b038116811461010857600080fd5b50565b60805160601c60a05160601c60c05160601c60e051610420610167600039600081816101050152610157015260008181608401526103000152600060c3015260008181610131015281816101e501526102d101526104206000f3fe608060405234801561001057600080fd5b506004361061007d5760003560e01c806386d1a69f1161005b57806386d1a69f146100f9578063b91d400114610103578063f6b4dfb414610129578063fc0c546a1461012f57600080fd5b806338af3eed1461008257806367e404ce146100c15780636ab28bc8146100e7575b600080fd5b7f00000000000000000000000000000000000000000000000000000000000000005b6040516001600160a01b0390911681526020015b60405180910390f35b7f00000000000000000000000000000000000000000000000000000000000000006100a4565b6033545b6040519081526020016100b8565b610101610155565b005b7f00000000000000000000000000000000000000000000000000000000000000006100eb565b306100a4565b7f00000000000000000000000000000000000000000000000000000000000000006100a4565b7f00000000000000000000000000000000000000000000000000000000000000004210156101e15760405162461bcd60e51b815260206004820152602e60248201527f546f6b656e4c6f636b3a2072656c656173652074696d65206973206265666f7260448201526d652063757272656e742074696d6560901b60648201526084015b60405180910390fd5b60007f00000000000000000000000000000000000000000000000000000000000000006040516370a0823160e01b81523060048201526001600160a01b0391909116906370a082319060240160206040518083038186803b15801561024557600080fd5b505afa158015610259573d6000803e3d6000fd5b505050506040513d601f19601f8201168201806040525081019061027d91906103d1565b9050600081116102cf5760405162461bcd60e51b815260206004820152601f60248201527f546f6b656e4c6f636b3a206e6f20746f6b656e7320746f2072656c656173650060448201526064016101d8565b7f00000000000000000000000000000000000000000000000000000000000000006001600160a01b031663a9059cbb7f00000000000000000000000000000000000000000000000000000000000000006040516001600160e01b031960e084901b1681526001600160a01b03909116600482015260248101849052604401602060405180830381600087803b15801561036757600080fd5b505af115801561037b573d6000803e3d6000fd5b505050506040513d601f19601f8201168201806040525081019061039f91906103a8565b50506000603355565b6000602082840312156103ba57600080fd5b815180151581146103ca57600080fd5b9392505050565b6000602082840312156103e357600080fd5b505191905056fea2646970667358221220e429d4e4b98f278de369f4e165b93dfdfc9ead44f481f40e11eeae3417b7aadf64736f6c6343000807003360e0604052600060355534801561001557600080fd5b506040516107a43803806107a4833981016040819052610034916101c1565b6001600160601b0319606087811b821660805286811b821660a05285901b1660c0526034839055815161006e9060369060208501906100c1565b5080516100829060379060208401906100c1565b50426038556037805460009061009a5761009a61028d565b90600052602060002001546038546100b29190610267565b603355506102d1945050505050565b8280548282559060005260206000209081019282156100fc579160200282015b828111156100fc5782518255916020019190600101906100e1565b5061010892915061010c565b5090565b5b80821115610108576000815560010161010d565b600082601f83011261013257600080fd5b815160206001600160401b038083111561014e5761014e6102a3565b8260051b604051601f19603f83011681018181108482111715610173576101736102a3565b6040528481528381019250868401828801850189101561019257600080fd5b600092505b858310156101b5578051845292840192600192909201918401610197565b50979650505050505050565b60008060008060008060c087890312156101da57600080fd5b86516101e5816102b9565b60208801519096506101f6816102b9565b6040880151909550610207816102b9565b6060880151608089015191955093506001600160401b038082111561022b57600080fd5b6102378a838b01610121565b935060a089015191508082111561024d57600080fd5b5061025a89828a01610121565b9150509295509295509295565b6000821982111561028857634e487b7160e01b600052601160045260246000fd5b500190565b634e487b7160e01b600052603260045260246000fd5b634e487b7160e01b600052604160045260246000fd5b6001600160a01b03811681146102ce57600080fd5b50565b60805160601c60a05160601c60c05160601c61048f61031560003960008181608401526102d30152600060c301526000818161011301526102a4015261048f6000f3fe608060405234801561001057600080fd5b506004361061007d5760003560e01c806386d1a69f1161005b57806386d1a69f146100f9578063b91d400114610103578063f6b4dfb41461010b578063fc0c546a1461011157600080fd5b806338af3eed1461008257806367e404ce146100c15780636ab28bc8146100e7575b600080fd5b7f00000000000000000000000000000000000000000000000000000000000000005b6040516001600160a01b0390911681526020015b60405180910390f35b7f00000000000000000000000000000000000000000000000000000000000000006100a4565b6034545b6040519081526020016100b8565b610101610137565b005b6033546100eb565b306100a4565b7f00000000000000000000000000000000000000000000000000000000000000006100a4565b6000603454116101a55760405162461bcd60e51b815260206004820152602e60248201527f5363686564756c6564546f6b656e4c6f636b3a206e6f20746f6b656e73206c6560448201526d199d081a5b8818dbdb9d1c9858dd60921b60648201526084015b60405180910390fd5b60335442101561021d5760405162461bcd60e51b815260206004820152603760248201527f5363686564756c6564546f6b656e4c6f636b3a2072656c656173652074696d6560448201527f206973206265666f72652063757272656e742074696d65000000000000000000606482015260840161019c565b600060366035548154811061023457610234610443565b90600052602060002001549050600081116102a25760405162461bcd60e51b815260206004820152602860248201527f5363686564756c6564546f6b656e4c6f636b3a206e6f20746f6b656e7320746f6044820152672072656c6561736560c01b606482015260840161019c565b7f00000000000000000000000000000000000000000000000000000000000000006001600160a01b031663a9059cbb7f00000000000000000000000000000000000000000000000000000000000000006040516001600160e01b031960e084901b1681526001600160a01b03909116600482015260248101849052604401602060405180830381600087803b15801561033a57600080fd5b505af115801561034e573d6000803e3d6000fd5b505050506040513d601f19601f8201168201806040525081019061037291906103d5565b506035546103819060016103fe565b603555603454610392908290610416565b60345560375460355410156103d2576037603554815481106103b6576103b6610443565b90600052602060002001546038546103ce91906103fe565b6033555b50565b6000602082840312156103e757600080fd5b815180151581146103f757600080fd5b9392505050565b600082198211156104115761041161042d565b500190565b6000828210156104285761042861042d565b500390565b634e487b7160e01b600052601160045260246000fd5b634e487b7160e01b600052603260045260246000fdfea26469706673582212204fd6e3370a7d43d737eadaa0301af5b1fc0cb97741dff8b8e5b81fe7536e560164736f6c63430008070033416464726573733a206c6f772d6c6576656c2064656c65676174652063616c6c206661696c6564a264697066735822122092edbff1c638fe23140d9914accb29906a6d1e03828c6e7849c1ece5e761621f64736f6c63430008070033",
    "sourcePath": "d:/Documents/GitHub/Gauss-GANG-Smart-Contract/flattenedContracts/GaussVault.sol",
    "compiler": {
        "name": "solc",
        "version": "0.8.7+commit.e28d00a7"
    },
    "functionHashes": {
        "beneficiaryVestingAddresses()": "ae073cc7",
        "initialize(address)": "c4d66de8",
        "lockGaussVault()": "be92c1c8",
        "owner()": "8da5cb5b",
        "releaseAvailableTokens()": "e5e09396",
        "scheduledVesting(address,address,uint256,uint256[],uint256[])": "9af09749",
        "transferOwnership(address)": "f2fde38b",
        "upgradeTo(address)": "3659cfe6",
        "upgradeToAndCall(address,bytes)": "4f1ef286",
        "vestTokens(address,address,uint256,uint256)": "161dcaa4",
        "vestingContractAddresses()": "f82d5c35"
    },
    "gasEstimates": {
        "creation": {
            "codeDepositCost": "3192800",
            "executionCost": "infinite",
            "totalCost": "infinite"
        },
        "external": {
            "beneficiaryVestingAddresses()": "infinite",
            "initialize(address)": "infinite",
            "lockGaussVault()": "infinite",
            "owner()": "2387",
            "releaseAvailableTokens()": "infinite",
            "scheduledVesting(address,address,uint256,uint256[],uint256[])": "infinite",
            "transferOwnership(address)": "infinite",
            "upgradeTo(address)": "infinite",
            "upgradeToAndCall(address,bytes)": "infinite",
            "vestTokens(address,address,uint256,uint256)": "infinite",
            "vestingContractAddresses()": "infinite"
        },
        "internal": {
            "__GaussVault_init_unchained(address)": "infinite",
            "_authorizeUpgrade(address)": "infinite",
            "_lockAdvisorTokens()": "infinite",
            "_lockCharitableFundTokens()": "infinite",
            "_lockCommunityTokens()": "infinite",
            "_lockCoreTeamTokens()": "infinite",
            "_lockLiquidityTokens()": "infinite",
            "_lockMarketingTokens()": "infinite",
            "_lockOpsDevTokens()": "infinite",
            "_lockReserveTokens()": "infinite",
            "_lockVestingIncentiveTokens()": "infinite"
        }
    }
}