{
    "contractName": "TokenLock",
    "abi": [
        {
            "inputs": [
                {
                    "internalType": "contract IBEP20",
                    "name": "token_",
                    "type": "address"
                },
                {
                    "internalType": "address",
                    "name": "sender_",
                    "type": "address"
                },
                {
                    "internalType": "address",
                    "name": "beneficiary_",
                    "type": "address"
                },
                {
                    "internalType": "uint256",
                    "name": "amount_",
                    "type": "uint256"
                },
                {
                    "internalType": "uint256",
                    "name": "releaseTime_",
                    "type": "uint256"
                }
            ],
            "stateMutability": "nonpayable",
            "type": "constructor"
        },
        {
            "inputs": [],
            "name": "beneficiary",
            "outputs": [
                {
                    "internalType": "address",
                    "name": "",
                    "type": "address"
                }
            ],
            "stateMutability": "view",
            "type": "function"
        },
        {
            "inputs": [],
            "name": "contractAddress",
            "outputs": [
                {
                    "internalType": "address",
                    "name": "",
                    "type": "address"
                }
            ],
            "stateMutability": "view",
            "type": "function"
        },
        {
            "inputs": [],
            "name": "lockedAmount",
            "outputs": [
                {
                    "internalType": "uint256",
                    "name": "",
                    "type": "uint256"
                }
            ],
            "stateMutability": "view",
            "type": "function"
        },
        {
            "inputs": [],
            "name": "release",
            "outputs": [],
            "stateMutability": "nonpayable",
            "type": "function"
        },
        {
            "inputs": [],
            "name": "releaseTime",
            "outputs": [
                {
                    "internalType": "uint256",
                    "name": "",
                    "type": "uint256"
                }
            ],
            "stateMutability": "view",
            "type": "function"
        },
        {
            "inputs": [],
            "name": "sender",
            "outputs": [
                {
                    "internalType": "address",
                    "name": "",
                    "type": "address"
                }
            ],
            "stateMutability": "view",
            "type": "function"
        },
        {
            "inputs": [],
            "name": "token",
            "outputs": [
                {
                    "internalType": "contract IBEP20",
                    "name": "",
                    "type": "address"
                }
            ],
            "stateMutability": "view",
            "type": "function"
        }
    ],
    "bytecode": "61010060405234801561001157600080fd5b506040516105753803806105758339810160408190526100309161007e565b6001600160a01b0380861660805284811660a052831660c052603382905561005881426100dc565b60e052506101029350505050565b6001600160a01b038116811461007b57600080fd5b50565b600080600080600060a0868803121561009657600080fd5b85516100a181610066565b60208701519095506100b281610066565b60408701519094506100c381610066565b6060870151608090970151959894975095949392505050565b600082198211156100fd57634e487b7160e01b600052601160045260246000fd5b500190565b60805160a05160c05160e051610420610155600039600081816101050152610157015260008181608401526103000152600060c3015260008181610131015281816101e501526102d101526104206000f3fe608060405234801561001057600080fd5b506004361061007d5760003560e01c806386d1a69f1161005b57806386d1a69f146100f9578063b91d400114610103578063f6b4dfb414610129578063fc0c546a1461012f57600080fd5b806338af3eed1461008257806367e404ce146100c15780636ab28bc8146100e7575b600080fd5b7f00000000000000000000000000000000000000000000000000000000000000005b6040516001600160a01b0390911681526020015b60405180910390f35b7f00000000000000000000000000000000000000000000000000000000000000006100a4565b6033545b6040519081526020016100b8565b610101610155565b005b7f00000000000000000000000000000000000000000000000000000000000000006100eb565b306100a4565b7f00000000000000000000000000000000000000000000000000000000000000006100a4565b7f00000000000000000000000000000000000000000000000000000000000000004210156101e15760405162461bcd60e51b815260206004820152602e60248201527f546f6b656e4c6f636b3a2072656c656173652074696d65206973206265666f7260448201526d652063757272656e742074696d6560901b60648201526084015b60405180910390fd5b60007f00000000000000000000000000000000000000000000000000000000000000006040516370a0823160e01b81523060048201526001600160a01b0391909116906370a082319060240160206040518083038186803b15801561024557600080fd5b505afa158015610259573d6000803e3d6000fd5b505050506040513d601f19601f8201168201806040525081019061027d91906103a8565b9050600081116102cf5760405162461bcd60e51b815260206004820152601f60248201527f546f6b656e4c6f636b3a206e6f20746f6b656e7320746f2072656c656173650060448201526064016101d8565b7f00000000000000000000000000000000000000000000000000000000000000006001600160a01b031663a9059cbb7f00000000000000000000000000000000000000000000000000000000000000006040516001600160e01b031960e084901b1681526001600160a01b03909116600482015260248101849052604401602060405180830381600087803b15801561036757600080fd5b505af115801561037b573d6000803e3d6000fd5b505050506040513d601f19601f8201168201806040525081019061039f91906103c1565b50506000603355565b6000602082840312156103ba57600080fd5b5051919050565b6000602082840312156103d357600080fd5b815180151581146103e357600080fd5b939250505056fea2646970667358221220bceeb4626e3cb74a195c5e657469440f663a35fac7950e2e41604747753f9b1964736f6c63430008090033",
    "sourcePath": "d:/Documents/GitHub/Gauss-GANG-Smart-Contract/flattenedContracts/GaussVault.sol",
    "compiler": {
        "name": "solc",
        "version": "0.8.9+commit.e5eed63a"
    },
    "functionHashes": {
        "beneficiary()": "38af3eed",
        "contractAddress()": "f6b4dfb4",
        "lockedAmount()": "6ab28bc8",
        "release()": "86d1a69f",
        "releaseTime()": "b91d4001",
        "sender()": "67e404ce",
        "token()": "fc0c546a"
    },
    "gasEstimates": {
        "creation": {
            "codeDepositCost": "211200",
            "executionCost": "infinite",
            "totalCost": "infinite"
        },
        "external": {
            "beneficiary()": "infinite",
            "contractAddress()": "245",
            "lockedAmount()": "2326",
            "release()": "infinite",
            "releaseTime()": "infinite",
            "sender()": "infinite",
            "token()": "infinite"
        }
    }
}